:100000000C9462000C948A000C948A000C948A0070
:100010000C948A000C948A000C948A000C948A0038
:100020000C948A000C948A000C948A000C948A0028
:100030000C948A000C948A000C948A000C948A0018
:100040000C9413030C948A000C94E1020C94BB02F0
:100050000C948A000C948A000C948A000C948A00F8
:100060000C948A000C948A000000000024002700F1
:100070002A0000000000250028002B0000000000DE
:1000800023002600290004040404040404040202DA
:100090000202020203030303030301020408102007
:1000A0004080010204081020010204081020000012
:1000B0000008000201000003040700000000000027
:1000C0000000EE0411241FBECFEFD8E0DEBFCDBF8D
:1000D00011E0A0E0B1E0E6E4FAE002C005900D9284
:1000E000A636B107D9F722E0A6E6B1E001C01D921D
:1000F000AC31B207E1F710E0C2E6D0E004C02197CE
:10010000FE010E941B05C136D107C9F70E945D039D
:100110000C9421050C940000FC0128EE33E0629F52
:10012000C001639F900D729F900D1124480F591FBD
:10013000052E000C660B770B40835183628373831B
:1001400080819181A281B381892B8A2B8B2B21F411
:10015000108211821282138280819181A281B381E7
:100160002FB7F894409118025091190260911A0229
:1001700070911B022FBF840F951FA61FB71F80838E
:100180009183A283B3830895AF92BF92CF92DF92FF
:10019000EF92FF920F931F93CF93DF936C017B013C
:1001A0008B01040F151FEB015E01AE18BF08C017CD
:1001B000D10759F06991D601ED91FC910190F08140
:1001C000E02DC6010995892B79F7C501DF91CF9103
:1001D0001F910F91FF90EF90DF90CF90BF90AF9065
:1001E0000895FC01538D448D252F30E0842F90E03D
:1001F000821B930B541710F0CF9608950197089522
:10020000FC01918D828D981761F0A28DAE0FBF2FEA
:10021000B11D5D968C91928D9F5F9F73928F90E040
:1002200008958FEF9FEF0895FC01918D828D9817AF
:1002300031F0828DE80FF11D858D90E008958FEFEC
:100240009FEF0895FC01918D228D892F90E0805CB5
:100250009F4F821B91098F73992708958BE791E037
:100260000E94220121E0892B09F420E0822F0895C9
:1002700080E090E0892B29F00E942E0181110C94DE
:1002800000000895FC01A48DA80FB92FB11DA35A39
:10029000BF4F2C91848D90E001968F739927848FA6
:1002A000A689B7892C93A089B1898C9183708064C9
:1002B0008C93938D848D981306C00288F389E02D6A
:1002C00080818F7D80830895EF92FF920F931F931B
:1002D000CF93DF93EC0181E0888F9B8D8C8D9813F9
:1002E0001AC0E889F989808185FF15C09FB7F89405
:1002F000EE89FF896083E889F98980818370806451
:1003000080839FBF81E090E0DF91CF911F910F919B
:10031000FF90EF900895F62E0B8D10E00F5F1F4FAA
:100320000F731127E02E8C8D8E110CC00FB607FCB9
:10033000FACFE889F989808185FFF5CFCE010E9447
:100340004201F1CFEB8DEC0FFD2FF11DE35AFF4F72
:10035000F0829FB7F8940B8FEA89FB8980818062D5
:10036000CFCFCF93DF93EC01888D8823B9F0AA8992
:10037000BB89E889F9898C9185FD03C0808186FD60
:100380000DC00FB607FCF7CF8C9185FFF2CF8081AF
:1003900085FFEDCFCE010E944201E9CFDF91CF91E1
:1003A0000895833081F028F4813099F08230A9F0EB
:1003B00008958730A9F08830C9F08430B1F4809175
:1003C00080008F7D03C0809180008F7780938000B4
:1003D000089584B58F7784BD089584B58F7DFBCF54
:1003E0008091B0008F778093B00008958091B00025
:1003F0008F7DF9CFCF93DF93282F30E0F901E255BD
:10040000FF4F8491F901E656FF4FD491F901EA5765
:10041000FF4FC491CC23A1F081110E94D101EC2F98
:10042000F0E0EE0FFF1FE458FF4FA591B491EC915F
:10043000ED2381E090E009F480E0DF91CF91089511
:1004400080E090E0FACF1F93CF93DF93282F30E026
:10045000F901E255FF4F8491F901E656FF4FD4911F
:10046000F901EA57FF4FC491CC23A9F0162F81114F
:100470000E94D101EC2FF0E0EE0FFF1FEE58FF4F6E
:10048000A591B4918FB7F894EC91111108C0D09553
:10049000DE23DC938FBFDF91CF911F910895DE2B78
:1004A000F8CFCF93DF9390E0FC01E656FF4F249105
:1004B0008A579F4FFC0184918823D1F090E0880FE8
:1004C000991FFC01E859FF4FA591B491FC01EE582A
:1004D000FF4FC591D49161110EC09FB7F8948C91D4
:1004E000E22FE0958E238C932881E223E8839FBF3F
:1004F000DF91CF9108958FB7F894EC91E22BEC93B4
:100500008FBFF6CF0F931F932FB7F8944091180227
:100510005091190260911A0270911B022FBFFC01C9
:10052000008111812281338181E0401751076207E8
:10053000730708F480E01F910F910895CF93DF9324
:10054000FC0101900020E9F73197AF01481B590BDE
:10055000BC018BE791E00E94C400EC0142E050E056
:1005600062E171E08BE791E00E94C4008C0F9D1F57
:10057000DF91CF9108951F920F920FB60F92112421
:100580002F933F934F935F936F937F938F939F939B
:10059000AF93BF93EF93FF938BE791E00E944201EB
:1005A000FF91EF91BF91AF919F918F917F916F914B
:1005B0005F914F913F912F910F900FBE0F901F9021
:1005C00018951F920F920FB60F9211242F938F93AD
:1005D0009F93EF93FF93E0918B01F0918C018081C9
:1005E000E0919101F091920182FD1BC09081809178
:1005F00094018F5F8F7320919501821741F0E091F4
:100600009401F0E0E558FE4F958F80939401FF919F
:10061000EF919F918F912F910F900FBE0F901F9090
:1006200018958081F4CF1F920F920FB60F9211246C
:100630002F933F938F939F93AF93BF938091180213
:1006400090911902A0911A02B0911B0230916A0197
:1006500023E0230F2D3758F50196A11DB11D2093DE
:100660006A018093180290931902A0931A02B09322
:100670001B028091660190916701A0916801B09181
:1006800069010196A11DB11D8093660190936701D8
:10069000A0936801B0936901BF91AF919F918F9131
:1006A0003F912F910F900FBE0F901F90189526E845
:1006B000230F0296A11DB11DD2CF789484B582601C
:1006C00084BD84B5816084BD85B5826085BD85B5F6
:1006D000816085BD80916E00816080936E00109274
:1006E00081008091810082608093810080918100EF
:1006F0008160809381008091800081608093800080
:100700008091B10084608093B1008091B0008160DD
:100710008093B00080917A00846080937A00809109
:100720007A00826080937A0080917A008160809361
:100730007A0080917A00806880937A001092C100DC
:10074000E0918B01F0918C0182E08083E091870140
:10075000F09188011082E0918901F0918A018FEC7B
:10076000808310929301E0918F01F091900186E0D7
:100770008083E0918D01F0918E0180818061808382
:10078000E0918D01F0918E01808188608083E091FD
:100790008D01F0918E01808180688083E0918D01D0
:1007A000F0918E0180818F7D808360E088E00E94DF
:1007B000510261E086E00E94510261E083E00E9404
:1007C000510261E084E00E94510260E089E00E94F1
:1007D000510261E08DE00E94510260E083E00E94DE
:1007E000230260E084E00E94230260E086E00E9431
:1007F000230250E040E061E070E083E791E00E9476
:100800008C0050E040E061E070E08FE691E00E94F3
:100810008C0044EF51E070E060E08BE691E00E94D4
:100820008C0080E0C82E80E0D82E92E0A92EB12C5A
:1008300003E010E088E00E94FA017C0186E00E945B
:10084000FA0189E00E94FA01EC01E114F10409F0D7
:1008500089C0E0907901F0907A0181E0E816F10416
:1008600011F58091770190917801892BE1F461E095
:1008700083E00E94230285E191E00E949E0261E0F4
:1008800086E00E942302F0927801E092770150E026
:1008900040E061E070E083E791E00E948C0061E05D
:1008A0008DE00E942302209709F088C061E083E078
:1008B0000E94230261E084E00E94230260E086E05F
:1008C0000E94230210927801109277018AE391E04E
:1008D0000E949E0210927A011092790144EF51E039
:1008E00070E060E08BE691E00E948C0080917701DF
:1008F00090917801019791F483E791E00E94820240
:10090000882321F160E083E00E94230282E491E0E9
:100910000E949E02109378010093770180917701E5
:1009200090917801029791F48FE691E00E94820203
:10093000882361F060E084E00E94230285E591E075
:100940000E949E021093780100937701C114D10494
:1009500009F470CF0E942E01882309F46BCF0E9406
:10096000000068CFEA94EF2809F09DCF80917901CB
:1009700090917A01019709F096CF8091770190913B
:100980007801892B09F08FCF61E084E00E94230277
:1009900089E291E00E949E0261E086E00E942302CB
:1009A000B0927801A092770150E040E061E070E001
:1009B0008FE691E00E948C0060E072CFC130D105DB
:1009C00009F094CF8BE691E00E948202882309F41B
:1009D0008DCFD0937A01C093790188CFEBE7F1E016
:1009E0001382128288EE93E0A0E0B0E084839583C6
:1009F000A683B78384E091E09183808385EC90E0C7
:100A00009587848784EC90E09787868780EC90E0D8
:100A1000918B808B81EC90E0938B828B82EC90E0C9
:100A2000958B848B86EC90E0978B868B118E128E43
:100A3000138E148E0895EE0FFF1F0590F491E02D94
:060A40000994F894FFCFB9
:100A4600000000006401C400F100B10122010001B0
:100A560014010D0A006164656C616E746520636F34
:100A66006D706C657461646F00617472617320638C
:100A76006F6D706C657461646F006170616761644D
:100A86006F006164656C616E746520656E63656E8A
:100A96006469646F00617472617320656E63656E6C
:060AA6006469646F0000AA
:00000001FF
