:100000000C94C2010C94EA010C94EA010C94EA01EC
:100010000C94EA010C94EA010C94EA010C94EA01B4
:100020000C94EA010C94EA010C94EA010C94EA01A4
:100030000C94EA010C9437120C94EA010C94EA0136
:100040000C9473120C94EA010C94EA010C94EA01EA
:100050000C94EA010C94EA010C94EA010C94EA0174
:100060000C94EA010C94EA0107634236B79BD8A7C7
:100070001A39685618AEBAAB558C1D3CB7CC5763CD
:10008000BD6DEDFD753EF6177231BF000000803F7B
:1000900008000000BE922449123EABAAAA2ABECD97
:1000A000CCCC4C3E00000080BEABAAAAAA3E000009
:1000B0000000BF000000803F000000000008417801
:1000C000D3BB4387D1133D190E3CC3BD4282AD2B38
:1000D0003E68EC8276BED98FE1A93E4C80EFFFBE30
:1000E00001C4FF7F3F000000000004062000000064
:1000F000000000404040004000A0A000000000A020
:10010000E0A0E0A0004060C060C000A0204080A04F
:10011000002040C0A0E000808000000000408080FF
:1001200080400080404040800040A040000000002F
:1001300040E04000000000008080000000E000007F
:1001400000000000008000202040808000E0A0A08F
:10015000A0E00040C04040E000E020E080E000E09F
:1001600020E020E000A0A0E0202000E080E020C00F
:1001700000C080E0A0E000E02040808000E0A0E03F
:10018000A0E000E0A0E0206000004000400000008F
:10019000400040800020408040200000E000E0005F
:1001A00000804020408000C02040004000E0A0A02F
:1001B000E0E000E0A0E0A0A000C0A0E0A0C000E05F
:1001C000808080E000C0A0A0A0C000E080E080E0CF
:1001D00000E080E0808000E08080A0E000A0A0E05F
:1001E000A0A000E0404040E000202020A0E00080EF
:1001F000A0C0C0A00080808080E000A0E0E0A0A0BF
:1002000000C0A0A0A0A00040A0A0A04000E0A0E0EE
:1002100080800040A0A0E06600E0A0C0E0AA00E06E
:1002200080E020E000E04040404000A0A0A0A0E02E
:1002300000A0A0A0A04000A0A0E0E0A200A0A040DC
:10024000A0A000A0A040404000E0204080E000C00E
:10025000808080C000008040202000C0404040C01E
:100260000040A00000000000000000E0008040000E
:100270000000000060A0A060008080C0A0C000005E
:100280006080806000202060A0600040A0E080606E
:10029000006040E040400060A06020C0008080C05E
:1002A000A0A00040004040400040004040C000800E
:1002B00080A0C0A000C0404040E00000A0E0A0A09E
:1002C0000000C0A0A0A0000040A0A0400000C0A06E
:1002D000C080000060A060200000C0A080800000FE
:1002E000604020600040E04040400000A0A0A060CE
:1002F0000000A0A0A0400000A0A0E0A00000A0403E
:1003000040A00000A0E020400000E04080E000208D
:1003100040C040220040400040400080406040809B
:100320000000A040000000000000080002010000E2
:100330000304070000000000000000010204081090
:10034000204080010204081020010204081020044B
:10035000040404040404040202020202020303036C
:100360000303030000000023002600290000000012
:1003700000250028002B0000000000240027002A90
:1003800000001E0811241FBECFEFD8E0DEBFCDBF96
:1003900011E0A0E0B1E0E2ECF2E302C005900D92C2
:1003A000A63CB107D9F722E0A6ECB1E001C01D924E
:1003B000A435B207E1F711E0C2ECD1E004C0219707
:1003C000FE010E942C18C13CD107C9F70E9464129B
:1003D0000C945F190C940000CF92DF92EF92FF9281
:1003E0000F931F93E82FF92F05C001501109210920
:1003F000310961F1908196239417B9F305C001503A
:1004000011092109310911F1908196239413F7CF35
:10041000C12CD12CE12CF12C0AC08FEFC81AD80ABC
:10042000E80AF80A0C151D052E053F0579F08081B4
:100430008623841791F36C2D7D2D8E2D9F2D1F917A
:100440000F91FF90EF90DF90CF90089560E070E003
:1004500080E090E01F910F91FF90EF90DF90CF90A0
:100460000895CF92DF92EF92FF92CF93DF93EC014A
:100470000E94BD12C880D980EA80FB8021E06C1503
:100480007D058E059F0508F420E0822FDF91CF9136
:10049000FF90EF90DF90CF9008958F929F92AF9250
:1004A000BF92CF92DF92EF92FF9260E088E00E94CD
:1004B000B61360E086E00E94B61360E084E00E941C
:1004C000B61360E085E00E94B61360E083E00E940E
:1004D000B61360E082E00E94B61360E08DE00E94F7
:1004E000B61361E08BE00E94B61361E08CE00E94DD
:1004F000B61361E08FE00E94B61361E08AE00E94CB
:10050000B61360E080E00E94B61361E08CE00E94C8
:10051000F21361E08BE00E94F21361E08FE00E9431
:10052000F21320910601309107014091080150918A
:10053000090160910A0170910B0180910C01909169
:100540000D010E94EB140E94CC166B017C012091DE
:10055000120130911301409114015091150160E096
:1005600070E080E89FE30E94EB144B015C01209156
:100570000E0130910F01409110015091110160E086
:1005800070E080E89FE30E94EB149B01AC01C50181
:10059000B4010E947E149B01AC01C701B6010E9408
:1005A000EB146093FC017093FD018093FE01909326
:1005B000FF019058209116013091170140911801C8
:1005C000509119010E94EB140E9465159B01AC012A
:1005D00060911A0170911B0180911C0190911D0185
:1005E0000E9448176093F8017093F9018093FA0113
:1005F0009093FB0148EE53E060E070E088E092E009
:100600000E94340888E092E00E94480880ED97E05C
:10061000A0E0B0E08093220290932302A0932402F2
:10062000B09325028091220290912302A09124028E
:10063000B0912502892B8A2B8B2B41F41092220238
:10064000109223021092240210922502C0902202DE
:10065000D0902302E0902402F09025020E94BD1267
:10066000C60ED71EE81EF91EC0922202D0922302A7
:10067000E0922402F092250280ED97E0A0E0B0E045
:1006800080931E0290931F02A0932002B093210238
:1006900080911E0290911F02A0912002B091210230
:1006A000892B8A2B8B2B41F410921E0210921F0271
:1006B0001092200210922102C0901E02D0901F02C0
:1006C000E0902002F09021020E94BD12C60ED71EBB
:1006D000E81EF91EC0921E02D0921F02E092200274
:1006E000F092210280ED97E0A0E0B0E080931A0242
:1006F00090931B02A0931C02B0931D0280911A02DA
:1007000090911B02A0911C02B0911D02892B8A2B93
:100710008B2B41F410921A0210921B0210921C02B1
:1007200010921D02C0901A02D0901B02E0901C0291
:10073000F0901D020E94BD12C60ED71EE81EF91EC3
:10074000C0921A02D0921B02E0921C02F0921D028B
:1007500080ED97E0A0E0B0E080931602909317023E
:10076000A0931802B093190280911602909117027B
:10077000A0911802B0911902892B8A2B8B2B41F47E
:10078000109216021092170210921802109219027B
:10079000C0901602D0901702E0901802F090190253
:1007A0000E94BD12C60ED71EE81EF91EC092160288
:1007B000D0921702E0921802F092190220E648E760
:1007C00061E086E292E0FF90EF90DF90CF90BF90E3
:1007D000AF909F908F900C94C3088F929F92AF928E
:1007E000BF92CF92DF92EF92FF920F931F93CF931E
:1007F000DF936AEE70E086E292E00E942F0B21E820
:1008000031E040E060E086E292E00E94FB0B2BE2E8
:1008100031E04FE060E086E292E00E94FB0B2DE3C6
:1008200031E04EE160E086E292E00E94FB0B25E5BC
:1008300031E04DE260E086E292E00E94FB0B24E6AC
:1008400031E04CE360E086E292E00E94FB0B2AE795
:1008500031E04BE460E086E292E00E94FB0B83E033
:100860000E9422149093D7018093D6018DE00E94BC
:1008700022149093DB018093DA0185E00E94221418
:100880009093E5018093E4018BE00E942214909301
:10089000DD018093DC018FE00E9422149093D5014A
:1008A0008093D40188E00E9422149093E701809302
:1008B000E60184E00E9422149093E3018093E20118
:1008C00086E00E9422149093DF018093DE018CE089
:1008D0000E9422149093D9018093D801C0902201E4
:1008E000D0902301E0902401F090250180E00E9447
:1008F0007013BC01990F880B990B0E94CF1520E053
:1009000030E040E85AE30E9448179B01AC01C70160
:10091000B6010E9448176B017C016093040270933A
:100920000502809306029093070220911E013091E8
:100930001F0140912001509121010E9448174B0155
:100940005C01A701960160912201709123018091C1
:100950002401909125010E947E149B01AC01C501E8
:10096000B4010E94EB146093000270930102809323
:100970000202909303022091F8013091F901409115
:10098000FA015091FB010E94EB140E94CC169B01CE
:10099000AC016091FC017091FD018091FE0190918C
:1009A000FF010E94EB146093F4017093F5018093B2
:1009B000F6019093F70123E333E948E853E40E94FA
:1009C0007E146093F0017093F1018093F201909393
:1009D000F3016093E8017093E9018093EA01909339
:1009E000EB010E9497157093ED016093EC010AE012
:1009F00010E09B014FE065E486E292E00E94BD0CAE
:100A000022E931E04FE062E586E292E00E94FB0BD2
:100A10008091EC019091ED018F3691051CF424E951
:100A200031E002C02BE931E04FE06FE586E292E071
:100A30000E94FB0B8091D6019091D701019709F09C
:100A40003FC024E931E04DE26FE586E292E00E948A
:100A5000FB0B80ED97E0A0E0B0E080931E02909346
:100A60001F02A0932002B093210280911E02909158
:100A70001F02A0912002B0912102892B8A2B8B2B7F
:100A800041F410921E0210921F0210922002109246
:100A90002102C0901E02D0901F02E0902002F09030
:100AA00021020E94BD12C60ED71EE81EF91EC0927A
:100AB0001E02D0921F02E0922002F09221020EC08C
:100AC0008EE192E00E943102882341F02BE931E06F
:100AD0004DE26FE586E292E00E94FB0B8091DA0125
:100AE0009091DB01019709F03FC024E931E04EE12C
:100AF0006FE586E292E00E94FB0B80ED97E0A0E0BC
:100B0000B0E080931A0290931B02A0931C02B09352
:100B10001D0280911A0290911B02A0911C02B091BB
:100B20001D02892B8A2B8B2B41F410921A021092F2
:100B30001B0210921C0210921D02C0901A02D0904B
:100B40001B02E0901C02F0901D020E94BD12C60E16
:100B5000D71EE81EF91EC0921A02D0921B02E09224
:100B60001C02F0921D020EC08AE192E00E94310246
:100B7000882341F02BE931E04EE16FE586E292E017
:100B80000E94FB0B2091E2013091E3018091D8019A
:100B90009091D901232BB9F4009731F421E030E092
:100BA0003093E1012093E0012091E0013091E101D7
:100BB0002130310541F4009731F422E030E03093E8
:100BC000E1012093E001892B51F48091E0019091A3
:100BD000E101029721F461E08CE00E94F213809120
:100BE000E6019091E701892B09F05BC08091DA0161
:100BF0009091DB01019709F054C08091EC01909134
:100C0000ED018E3691050CF04CC08091DE01909183
:100C1000DF01019709F045C080ED97E0A0E0B0E06A
:100C20008093160290931702A0931802B0931902B2
:100C30008091160290911702A0911802B0911902AA
:100C4000892B8A2B8B2B41F41092160210921702DB
:100C50001092180210921902C0901602D09017023A
:100C6000E0901802F09019020E94BD12C60ED71E25
:100C7000E81EF91EC0921602D0921702E0921802E6
:100C8000F092190261E08CE00E94F2131092E101EF
:100C90001092E00181E090E09093EF018093EE01EB
:100CA00016C082E090E09093EF018093EE01809176
:100CB000E0019091E101892B51F486E192E00E94DC
:100CC0003102882321F060E08CE00E94F2138091D1
:100CD000DE019091DF0181309105A9F02091DA01C8
:100CE0003091DB012130310571F02091EC01309120
:100CF000ED012E3631053CF02091C8013091C9013B
:100D00002436310534F422E030E03093D3012093CF
:100D1000D201892BA1F08091DA019091DB01892B1E
:100D200071F08091EC019091ED018F3691053CF4CA
:100D30008091C8019091C9018536910534F081E018
:100D400090E09093D3018093D2018091E40190913F
:100D5000E501892B51F48091D2019091D301019743
:100D600021F460E08CE00E94F2138091E401909104
:100D7000E501892B41F48091D2019091D301029732
:100D800011F460E001C061E08BE00E94F21320EA00
:100D900036E841E050E061E082E00E944B1460934D
:100DA000CE017093CF018093D0019093D10120EABE
:100DB00036E841E050E060E082E00E944B1460932E
:100DC000CA017093CB018093CC019093CD01C09068
:100DD000CE01D090CF01E090D001F090D1019B01E5
:100DE000AC012C0D3D1D4E1D5F1D60E472E48FE0D3
:100DF00090E00E94D7173093C7012093C6016EE19F
:100E0000629FC001639F900D11249093C90180934C
:100E1000C8010A9744F422EA31E040E06AE586E23C
:100E200092E00E94FB0B2091C8013091C901253648
:100E3000310544F00AE010E040E06FE586E292E020
:100E40000E94BD0C8091C8019091C90181349F41DD
:100E500044F02BE931E04BE46FE586E292E00E943A
:100E6000FB0B8091C8019091C90180349F4144F4EB
:100E700024E931E04BE46FE586E292E00E94FB0B4F
:100E80008091C8019091C901853F91400CF463C0E5
:100E90008091EE019091EF01019709F05CC060E054
:100EA0008FE00E94F2138091E6019091E701892B77
:100EB00009F03FC024E931E04CE36FE586E292E0BF
:100EC0000E94FB0B80ED97E0A0E0B0E0809322024F
:100ED00090932302A0932402B093250280912202D2
:100EE00090912302A0912402B0912502892B8A2B94
:100EF0008B2B41F4109222021092230210922402B2
:100F000010922502C0902202D0902302E090240289
:100F1000F09025020E94BD12C60ED71EE81EF91ED3
:100F2000C0922202D0922302E0922402F092250283
:100F300012C061E08FE00E94F21382E292E00E9410
:100F40003102882341F02BE931E04CE36FE586E282
:100F500092E00E94FB0B8091EE019091EF010197CE
:100F600041F08091EE019091EF01029709F042C0AB
:100F70001FC02AEA31E045E560E086E292E00E9487
:100F8000FB0BC2E3D0E061E08AE00E94F2138CED3B
:100F900095E00E942A1360E08AE00E94F21362E169
:100FA00070E080E090E00E94EE12219761F7D9CFC7
:100FB00061E08FE00E94F21327EB31E045E560E04D
:100FC00086E292E00E94FB0BC2E3D0E061E08AE09F
:100FD0000E94F21384EF91E00E942A1360E08AE0FD
:100FE0000E94F21363E170E080E090E00E94EE1254
:100FF000219761F788E092E00E949908882389F0A0
:1010000060E086E292E0DF91CF911F910F91FF9017
:10101000EF90DF90CF90BF90AF909F908F900C9407
:10102000F908DF91CF911F910F91FF90EF90DF9022
:10103000CF90BF90AF909F908F90089588E092E0FE
:101040000C942208FC0110821182128213821482F5
:10105000158216821782118610861286138681E009
:1010600090E0958784870895FC014115510561053D
:10107000710529F0342F252F962F872F04C031E0DA
:1010800020E090E080E03083218392838383089581
:10109000CF93DF93EC010E94BD126C837D838E831E
:1010A0009F831D861C861A861B86DF91CF9108952B
:1010B0000F931F93CF93DF93EC010E94BD120C811D
:1010C0001D812E813F81601B710B820B930BDF9181
:1010D000CF911F910F9108950F931F93CF93DF939B
:1010E000FC0124853585232B81F4EC010E945808EE
:1010F000088119812A813B81601771078207930754
:1011000020F081E090E09D878C87DF91CF911F9147
:101110000F910895CF93DF93EC010E946C0881E05A
:101120002C853D852130310509F080E0DF91CF919C
:1011300008950F931F93CF938C010E948A08C82FA4
:10114000882319F0C8010E9448088C2FCF911F9165
:101150000F910895FC011282138280E090E02091AB
:101160003E0230913D02239F900111248217930784
:101170004CF4E0914302F0914402E80FF91F108211
:101180000196EDCF0895FF920F931F93CF93DF93B6
:1011900000D0CDB7DEB78C01942F842F887FF1F07B
:1011A000F62E692F669566956695629FC00111249B
:1011B0002A8369830E943218F801918380834A81CF
:1011C0006981009769F0128213829C018F2D0E9421
:1011D0007D11C8010E94AA0880E003C081E001C01F
:1011E00084E00F900F90DF91CF911F910F91FF90AE
:1011F0000895613031F018F06230E9F008950C94F0
:10120000AA08FC011282138280E090E04FEF209147
:101210003E0230913D02239F9001112482179307D3
:101220004CF4E0914302F0914402E80FF91F40832F
:101230000196EDCF089580E090E020913E0230913C
:101240003D02239F90011124821793075CF4E091E3
:101250004302F0914402E80FF91F2081209520837A
:101260000196EBCF08952F923F924F925F926F922B
:101270007F928F929F92AF92BF92CF92DF92EF9226
:10128000FF920F931F93CF93DF93CDB7DEB72997CC
:101290000FB6F894DEBF0FBECDBF99878887962F13
:1012A000977058E0591BE11006C0F901E00FF11FDB
:1012B000E4900F5F1F4FC11006C0F901E00FF11F4E
:1012C000C4900F5F1F4F8E2D8770EE2DE695E6952B
:1012D000E695882321F0FF24F394FE0E02C0FE2E33
:1012E00088E0669566956695A62FB0E0BC83AB83D3
:1012F000292E312C4101880E911CAFEFB0E0082C53
:1013000002C0B595A7950A94E2F7852F90E09A83DD
:10131000898391E0F91202C07A2E01C0712C8FEFFF
:1013200090E0BC0101C0660F5A95EAF7762A7D82EB
:10133000B4016850710902C0959587956A95E2F7E6
:10134000DA2EA12CB12C642E712CEF2DF0E0DF01F0
:101350001197BF83AE83AC1408F090C090913E0209
:10136000A501460D571D949FB001959F700D112446
:10137000EB80FC806E0D7F1DA885B985ED91FC91F9
:10138000E60FF71F90814D8149234083D8011196C4
:10139000F901E00FF11F4491E885F985E080F180C3
:1013A000F701E60FF71FE42EF12C022C02C0F59492
:1013B000E7940A94E2F75081E52AE0824E805F804C
:1013C0004A0E5B1E7B01E01AF10A87017801EA0EE2
:1013D000FB1EE885F9856081718150E0A415B50593
:1013E00010F56E0D7F1DFB019081098001C0440F37
:1013F0000A94EAF74083F901EA0FFB1F4491E8855C
:10140000F98560817181FB01EE0DFF1D642F70E095
:10141000022C02C0759567950A94E2F75081652BFE
:1014200060831196D3CFF8E08F16910440F4F70152
:101430003197E60FF71F9D216081962B09C098E038
:101440008916910431F0FB01EE0DFF1D9081982368
:101450009083E885F985608171816E0D7F1D09801B
:1014600002C0440F551F0A94E2F7FB019081492BFB
:101470004083FFEFAF1ABF0A8D016DCF29960FB6DB
:10148000F894DEBF0FBECDBFDF91CF911F910F91BA
:10149000FF90EF90DF90CF90BF90AF909F908F9094
:1014A0007F906F905F904F903F902F900895DF92C4
:1014B000EF92FF920F931F93CF93DF934130A9F1E7
:1014C000C0F0423009F44DC0433009F0C0C0562F7F
:1014D0005770F52E66956695669570E071956195E5
:1014E0007109E12C42E050E028E030E02F19310989
:1014F0007CC0809143029091440220913E02DC0125
:10150000629FA00DB11D112430913D02AC01329FAC
:10151000400D511D11249A01FC012A173B0708F4C4
:1015200096C08C9181931D92F8CF80914302909147
:10153000440230913D0220913E02DC01329FA00D19
:10154000B11D1124FD01629FE019F10911241196CA
:10155000E817F90708F47BC020812E931082319799
:10156000F7CFD62FD77066956695669570E0C0E088
:1015700048E050E04D1B510980913D02C81708F02A
:1015800066C080913E02E0914302F09144028C9F3C
:10159000E00DF11D1124DF01A60FB71F90E00297A7
:1015A0008E0F9F1F8A179B07A0F02C91122F0D2ED4
:1015B00001C0110F0A94EAF71D923C91232F30E0ED
:1015C000042E02C0359527950A94E2F7212B21932A
:1015D000E9CF8C910D2E01C0880F0A94EAF71C9276
:1015E0008083CF5FC9CF8083E39480913D02E8166A
:1015F00070F5A0913E028A2F90E0FC013197AE9DDC
:10160000E00DF11D1124A0914302B0914402EA0FB4
:10161000FB1FDF01A60FB71F8A01081B190B0E0F56
:101620001F1F8C9190E00F2C02C0959587950A940E
:10163000E2F71C92A017B107B0F2CE91022E01C0C2
:10164000CC0F0A94EAF78C2B80833197EACFDF9195
:10165000CF911F910F91FF90EF90DF900895FC01C3
:10166000758364830895CF92EF920F931F93022F97
:10167000FC0124813581F90132965491D9011196EA
:10168000FD01C490F901E490FD01A491051B0A9F9E
:10169000800111240D5F1F4F0E9433091F910F918C
:1016A000EF90CF900895DC0113962C91139730E0C2
:1016B0001496ED91FC9115973196649140913D02FD
:1016C00050E0461B51092417350724F0649140E08F
:1016D0000C94570AE4912E0F311DFC0123830895C9
:1016E0000F931F93CF93DF931F92CDB7DEB76A306E
:1016F00029F1F0F4662309F466C0683061F5DC0175
:101700001496ED91FC911597E49112966C911297B5
:1017100070E06E1B710912966C93129720E213967B
:101720004C910F90DF91CF911F910F910C94330B3F
:101730006D3071F06E3009F446C00DC0DC011296B8
:101740001C920F90DF91CF911F910F910C94530B2E
:10175000FC01128238C0262F8C01DC0112966C919C
:10176000129780913E021496ED91FC911597E491A9
:10177000462F50E0B8E08B9FC00111248E1B9109C9
:10178000F801481759076CF01282C80129830E949A
:10179000530B2981D80113964C91139712966C9193
:1017A00001C04381C8010E94330BD8011496ED910A
:1017B000FC911597E49112968C911297F0E0E80F46
:1017C000F11D1296EC930F90DF91CF911F910F9125
:1017D00008950F931F93CF93DF938C01EB016991D1
:1017E000662321F0C8010E94700BF9CFDF91CF91E1
:1017F0001F910F910895FC0162834383B9010C94FA
:10180000E90B4F925F926F927F928F929F92AF926D
:10181000BF92CF92DF92EF92FF920F931F93CF93DD
:10182000DF93CDB7DEB7A0970FB6F894DEBF0FBE3B
:10183000CDBF5C014115510561057105C9F460E337
:10184000A0960FB6F894DEBF0FBECDBFDF91CF914B
:101850001F910F91FF90EF90DF90CF90BF90AF90CE
:101860009F908F907F906F905F904F900C94700B33
:101870008E010F5F1F4FC12CD12C76014801422EE3
:10188000512C612C712C8FEFC81AD80AE80AF80A7B
:10189000CB01BA01A30192010E94D717942F852F83
:1018A000F80161938F01A901692F782F4115510526
:1018B0006105710541F78601612C712CF1E0CF1AA9
:1018C000D108E108F108F601E619F709E80DF91D5C
:1018D00060816A3010F4605D01C0695CC5010E94DE
:1018E000700B8FEF681A780A6016710661F7A09680
:1018F0000FB6F894DEBF0FBECDBFDF91CF911F9121
:101900000F91FF90EF90DF90CF90BF90AF909F909E
:101910008F907F906F905F904F900895CF92DF925D
:10192000EF92FF92CF93DF93EC016A017B0177FF87
:101930000BC06DE20E94700BF094E094D094C094C0
:10194000C11CD11CE11CF11C2AE0B701A601CE018B
:10195000DF91CF91FF90EF90DF90CF900C94010C2E
:101960002115310519F4642F0C94700B2A303105C0
:1019700011F40C948E0C0C94010C0F931F93742F84
:10198000A9019801FC0162837383052E000C660B8C
:10199000770B1F910F910C94B00C08952091340295
:1019A0003091350280913A0290E02817390779F496
:1019B00010924602109245028091400280934102AB
:1019C00085E89DE0909331028093300216C020910B
:1019D00034023091350280913B0290913C022817ED
:1019E000390759F487E09DE09093310280933002EB
:1019F000E0912601F09127010995809134029091A0
:101A00003502019690933502809334020895209117
:101A100034023091350280913B0290913C022817AC
:101A200039070CF450C08CEA93E0909389008093BE
:101A300088008FEF9FEF909335028093340280915E
:101A4000360290913702A0913802B0913902019686
:101A5000A11DB11D8093360290933702A0933802E6
:101A6000B093390280912C0290912D02A0912E0208
:101A7000B0912F02892B8A2B8B2B09F180912C029C
:101A800090912D02A0912E02B0912F0218161906E6
:101A90001A061B0684F580912C0290912D02A091CC
:101AA0002E02B0912F020197A109B10980932C0257
:101AB00090932D02A0932E02B0932F021CC010927F
:101AC000B100289818C020913402309135028091DD
:101AD0004202082E000C990B2817390761F48AE49A
:101AE00090E090938900809388008EEC9CE0909326
:101AF0003102809330028091340290913502019638
:101B0000909335028093340208953091840020919F
:101B10003F022A50231B2350F0F72D5F19F02A951E
:101B200011F001C00000E0913202F09133020995FA
:101B3000909141028091400291110FC08093410227
:101B400090913E022091450230914602290F311DAD
:101B5000309346022093450203C091509093410276
:101B600040913402509135024F5F5F4F60913A02CD
:101B700070913D02082E000C990B0196789F900100
:101B8000799F300D1124C901860F911D48175907FF
:101B900031F48EEC9CE0909331028093300280917E
:101BA000340290913502019690933502809334026D
:101BB00008950F93CF93DF93E4E3F2E0A785B08914
:101BC000C0914502D09146028285AC0FBD1F0BB17A
:101BD0000F7703C000FA07F90BB90D90000007FA60
:101BE00007F90BB900000000000006FA07F90BB96D
:101BF00000000000000005FA07F90BB90000000022
:101C0000000004FA07F90BB900000000000003FA15
:101C100007F90BB900000000000002FA07F90BB940
:101C200000000000000001FA07F90BB98A9591F64F
:101C30000000000000FA07F90BB90BB10F7707FBA2
:101C400007F90BB9DF91CF910F9108950F93CF93BF
:101C5000DF93E4E3F2E0A785B089C0914502D0911B
:101C600046028285AC0FBD1F0BB10F7703C000FA8F
:101C700007F90BB90D9007FA07F90BB9000000003E
:101C800006FA07F90BB90000000005FA07F90BB9CD
:101C90000000000004FA07F90BB90000000003FA85
:101CA00007F90BB90000000002FA07F90BB90000B0
:101CB0008A9501FA07F90BB9D1F6000000FA07F985
:101CC0000BB90BB10F7707FB07F90BB9DF91CF9178
:101CD0000F9108950F93CF93DF93E4E3F2E0A7858C
:101CE000B089C0914502D09146028285AC0FBD1FDC
:101CF00002C0000C0BB80D9000000BB800000000F3
:101D0000000C0BB800000000000C0BB80000000035
:101D1000000C0BB800000000000C0BB80000000025
:101D2000000C0BB80000000C8A950BB811F70000EE
:101D3000000C0BB80000000000005F98DF91CF910D
:101D40000F9108950F93CF93DF93E4E3F2E0A7851B
:101D5000B089C0914502D09146028285AC0FBD1F6B
:101D60008E3191F08D3151F08C3149F08B3141F051
:101D70008A3139F0893131F0883129F01CC032C004
:101D800048C05EC074C08AC00D900BB80000000C43
:101D90000BB80000000C0BB80000000C0BB80000E2
:101DA000000C0BB80000000C0BB80000000C0BB8C6
:101DB0000000000C0BB80D900BB80000000C0BB825
:101DC0000000000C0BB80000000C0BB80000000C69
:101DD0000BB80000000C0BB80000000C0BB80000A2
:101DE000000C0BB80D900BB80000000C0BB80000F5
:101DF000000C0BB80000000C0BB80000000C0BB876
:101E00000000000C0BB80000000C0BB80000000C28
:101E10000BB80D900BB80000000C0BB80000000CC4
:101E20000BB80000000C0BB80000000C0BB8000051
:101E3000000C0BB80000000C0BB80000000C0BB835
:101E40000D900BB80000000C0BB80000000C0BB894
:101E50000000000C0BB80000000C0BB80000000CD8
:101E60000BB80000000C0BB80000000C0BB80D9074
:101E70000BB80000000C0BB80000000C0BB8000001
:101E8000000C0BB80000000C0BB80000000C0BB8E5
:101E90000000000C0BB80000000C0BB80D900BB844
:101EA0000000000C0BB80000000C0BB80000000C88
:101EB0000BB80000000C0BB80000000C0BB80000C1
:101EC000000C0BB80000000C0BB80D900BB8000014
:101ED000000C0BB80000000C0BB80000000C0BB895
:101EE0000000000C0BB80000000C0BB80000000C48
:101EF0000BB80000000C0BB80D900BB80000000CE4
:101F00000BB80000000C0BB80000000C0BB8000070
:101F1000000C0BB80000000C0BB80000000C0BB854
:101F20000000000C0BB80D900BB80000000C0BB8B3
:101F30000000000C0BB80000000C0BB80000000CF7
:101F40000BB80000000C0BB80000000C0BB8000030
:101F5000000C0BB80D900BB80000000C0BB8000083
:101F6000000C0BB80000000C0BB80000000C0BB804
:101F70000000000C0BB80000000C0BB80000000CB7
:101F80000BB80D900BB80000000C0BB80000000C53
:101F90000BB80000000C0BB80000000C0BB80000E0
:101FA000000C0BB80000000C0BB80000000C0BB8C4
:101FB0000D900BB80000000C0BB80000000C0BB823
:101FC0000000000C0BB80000000C0BB80000000C67
:101FD0000BB80000000C0BB80000000C0BB80D9003
:101FE0000BB80000000C0BB80000000C0BB8000090
:101FF000000C0BB80000000C0BB80000000C0BB874
:102000000000000C0BB80000000C0BB80D900BB8D2
:102010000000000C0BB80000000C0BB80000000C16
:102020000BB80000000C0BB80000000C0BB800004F
:10203000000C0BB80000000C0BB80D900BB80000A2
:10204000000C0BB80000000C0BB80000000C0BB823
:102050000000000C0BB80000000C0BB80000000CD6
:102060000BB80000000C0BB80D900BB80000000C72
:102070000BB80000000C0BB80000000C0BB80000FF
:10208000000C0BB80000000C0BB80000000C0BB8E3
:102090000000000C0BB80D900BB80000000C0BB842
:1020A0000000000C0BB80000000C0BB80000000C86
:1020B0000BB80000000C0BB80000000C0BB80000BF
:1020C000000C0BB80D900BB80000000C0BB8000012
:1020D000000C0BB80000000C0BB80000000C0BB893
:1020E0000000000C0BB80000000C0BB80000000C46
:1020F0000BB80D900BB80000000C0BB80000000CE2
:102100000BB80000000C0BB80000000C0BB800006E
:10211000000C0BB80000000C0BB80000000C0BB852
:102120000D900BB80000000C0BB80000000C0BB8B1
:102130000000000C0BB80000000C0BB80000000CF5
:102140000BB80000000C0BB80000000C0BB80D9091
:102150000BB80000000C0BB80000000C0BB800001E
:10216000000C0BB80000000C0BB80000000C0BB802
:102170000000000C0BB80000000C0BB80D900BB861
:102180000000000C0BB80000000C0BB80000000CA5
:102190000BB80000000C0BB80000000C0BB80000DE
:1021A000000C0BB80000000C0BB80D900BB8000031
:1021B000000C0BB80000000C0BB80000000C0BB8B2
:1021C0000000000C0BB80000000C0BB80000000C65
:1021D0000BB80000000C0BB80D900BB80000000C01
:1021E0000BB80000000C0BB80000000C0BB800008E
:1021F000000C0BB80000000C0BB80000000C0BB872
:102200000000000C0BB80D900BB80000000C0BB8D0
:102210000000000C0BB80000000C0BB80000000C14
:102220000BB80000000C0BB80000000C0BB800004D
:10223000000C0BB80D900BB80000000C0BB80000A0
:10224000000C0BB80000000C0BB80000000C0BB821
:102250000000000C0BB80000000C0BB80000000CD4
:102260000BB80D900BB80000000C0BB80000000C70
:102270000BB80000000C0BB80000000C0BB80000FD
:10228000000C0BB80000000C0BB80000000C0BB8E1
:102290000D900BB80000000C0BB80000000C0BB840
:1022A0000000000C0BB80000000C0BB80000000C84
:1022B0000BB80000000C0BB80000000C0BB80D9020
:1022C0000BB80000000C0BB80000000C0BB80000AD
:1022D000000C0BB80000000C0BB80000000C0BB891
:1022E0000000000C0BB80000000C0BB80000000050
:1022F0005F98DF91CF910F910895CF93DF93D82FFF
:10230000E62F309344022093430260933E024093B1
:102310003D0210923602109237021092380210924B
:102320003902642F70E0882319F084E091E002C044
:1023300088ED90E00E94C317615060934002C09105
:102340004002C093410288E0E89F90011124032ECF
:10235000000C440B550B60EE72E080E090E00E94B0
:10236000F917243061F018F4233089F00BC02530C0
:1023700019F0263049F006C086E29EE00AC08AE6DF
:102380009EE007C0273018F089ED9DE002C082EA88
:102390009EE09093330280933202579A219A5F987D
:1023A000299A209A82EC8093800089E180938100B1
:1023B00040913D022C2FCC0F330B2F5F3F4F429F9C
:1023C000C001439F900D1124DD23C9F097FD0196B4
:1023D00095958795919581959109845680933A02B8
:1023E00087EC80933F0282E08093420288E391E091
:1023F00090933C0280933B028FEF93E018C097FDCF
:10240000019695958795919581959109855780932A
:102410003A028FEB80933F0283E08093420286E092
:1024200091E090933C0280933B0287EF93E090937E
:102430008700809386008AE490E0909389008093DF
:10244000880080913B0290913C0201969093350266
:102450008093340287E09DE09093310280933002B4
:1024600081E080936F007894DF91CF9108951F925F
:102470000F920FB60F9211242F933F934F935F93B8
:102480006F937F938F939F93AF93BF93EF93FF933C
:10249000E0912801F09129010995E0913002F09135
:1024A00031020995FF91EF91BF91AF919F918F916B
:1024B0007F916F915F914F913F912F910F900FBE40
:1024C0000F901F90189508950E9435130E94631273
:1024D0000E944D02C0E0D0E00E94ED032097E1F39E
:1024E0000E940000F9CF1F920F920FB60F92112495
:1024F0002F933F938F939F93AF93BF938091480205
:1025000090914902A0914A02B0914B02309147024A
:1025100023E0230F2D3720F40196A11DB11D05C026
:1025200026E8230F0296A11DB11D20934702809338
:10253000480290934902A0934A02B0934B028091C3
:102540004C0290914D02A0914E02B0914F02019623
:10255000A11DB11D80934C0290934D02A0934E0299
:10256000B0934F02BF91AF919F918F913F912F9167
:102570000F900FBE0F901F9018952FB7F894609191
:1025800048027091490280914A0290914B022FBFFC
:1025900008953FB7F89480914C0290914D02A0911C
:1025A0004E02B0914F0226B5A89B05C02F3F19F0EF
:1025B0000196A11DB11D3FBFBA2FA92F982F8827C3
:1025C000820F911DA11DB11DBC01CD0142E0660F1E
:1025D000771F881F991F4A95D1F708958F929F9270
:1025E000AF92BF92CF92DF92EF92FF926B017C018C
:1025F0000E94C9124B015C01C114D104E104F10431
:1026000001F10E947D140E94C912DC01CB018819DE
:102610009909AA09BB09883E9340A105B10560F359
:1026200021E0C21AD108E108F10888EE880E83E0A3
:10263000981EA11CB11CC114D104E104F10419F7C6
:10264000DBCFFF90EF90DF90CF90BF90AF909F9047
:102650008F9008958230910538F0880F991F880F68
:10266000991F05970197F1F70895789484B58260D2
:1026700084BD84B5816084BD85B5826085BD85B526
:10268000816085BDEEE6F0E0808181608083E1E8D5
:10269000F0E010828081826080838081816080830D
:1026A000E0E8F0E0808181608083E1EBF0E0808110
:1026B00084608083E0EBF0E0808181608083EAE7E2
:1026C000F0E080818460808380818260808380816B
:1026D000816080838081806880831092C10008952A
:1026E0008E3008F08E50877020912A0190E4299F47
:1026F00090011124822B80937C0080917A00806469
:1027000080937A0080917A0086FDFCCF80917800DA
:102710002091790090E0922B0895833081F028F485
:10272000813099F08230A1F008958730A9F0883087
:10273000B9F08430D1F4809180008F7D03C0809106
:1027400080008F7780938000089584B58F7702C0D2
:1027500084B58F7D84BD08958091B0008F7703C0CC
:102760008091B0008F7D8093B0000895CF93DF9368
:1027700090E0FC01E55CFC4F2491FC01E15BFC4F27
:102780008491882361F190E0880F991FFC01E9583A
:10279000FC4FC591D491FC01E359FC4FA591B49134
:1027A000611109C09FB7F89488812095822388839E
:1027B000EC912E230BC0623061F49FB7F8943881FE
:1027C000822F809583238883EC912E2B2C939FBF9F
:1027D00006C08FB7F894E8812E2B28838FBFDF9136
:1027E000CF9108951F93CF93DF93282F30E0F90105
:1027F000E95DFC4F8491F901E55CFC4FD491F9014E
:10280000E15BFC4FC491CC23C9F0162F81110E94CB
:102810008D13EC2FF0E0EE0FFF1FE359FC4FA59155
:10282000B4918FB7F894111105C09C91ED2FE095EC
:10283000E92302C0EC91ED2BEC938FBFDF91CF9198
:102840001F910895CF93DF93282F30E0F901E95DC0
:10285000FC4F8491F901E55CFC4FD491F901E15BF7
:10286000FC4FC491CC2391F081110E948D13EC2F69
:10287000F0E0EE0FFF1FED59FC4FA591B491EC91E4
:10288000ED2381E090E021F480E002C080E090E060
:10289000DF91CF9108950F931F9390E0FC01E55CC9
:1028A000FC4F7491FC01E15BFC4FE491662311F055
:1028B000672F01C060E0F0E0EE0FFF1FED59FC4F05
:1028C0008591949189019A013F70462F672F0E944C
:1028D000EC01611571058105910549F0DC01CB0121
:1028E0000196A11DB11DBC01CD019F7003C060E028
:1028F00070E0CB011F910F91089508955058BB27A8
:10290000AA270E9496140C9448160E943A1638F092
:102910000E94411620F039F49F3F19F426F40C94DC
:1029200010160EF4E095E7FB0C940A16E92F0E94AE
:10293000591658F3BA17620773078407950720F0F2
:1029400079F4A6F50C947B160EF4E0950B2EBA2FB5
:10295000A02D0B01B90190010C01CA01A0011124A5
:10296000FF27591B99F0593F50F4503E68F11A1651
:10297000F040A22F232F342F4427585FF3CF4695E2
:1029800037952795A795F0405395C9F77EF41F1604
:10299000BA0B620B730B840BBAF09150A1F0FF0FCE
:1029A000BB1F661F771F881FC2F70EC0BA0F621FBA
:1029B000731F841F48F4879577956795B795F795AA
:1029C0009E3F08F0B0CF9395880F08F09927EE0F3F
:1029D0009795879508950E94FF140C9448160E94BD
:1029E000411658F00E943A1640F029F45F3F29F052
:1029F0000C940A1651110C947C160C9410160E941B
:102A0000591668F39923B1F3552391F3951B550B90
:102A1000BB27AA2762177307840738F09F5F5F4FB1
:102A2000220F331F441FAA1FA9F335D00E2E3AF0F0
:102A3000E0E832D091505040E695001CCAF72BD008
:102A4000FE2F29D0660F771F881FBB1F2617370759
:102A50004807AB07B0E809F0BB0B802DBF01FF278B
:102A600093585F4F3AF09E3F510578F00C940A1648
:102A70000C947C165F3FE4F3983ED4F386957795EB
:102A80006795B795F7959F5FC9F7880F911D969544
:102A9000879597F90895E1E0660F771F881FBB1FA0
:102AA000621773078407BA0720F0621B730B840B4D
:102AB000BA0BEE1F88F7E095089529F416F00C94F0
:102AC0000A160C947B160C9410160E946116A8F33B
:102AD0009638A0F707F80F92E8942BE33AEA48EB10
:102AE0005FE70E945E170F920F920F924DB75EB78D
:102AF0000F920E941417E8E6F0E00E9413164F911F
:102B00005F91EF91FF91E595EE1FFF1F49F0FE5792
:102B1000E0684427EE0F441FFA95E1F74195550B05
:102B20000E948E160F9007FE0C94821608950E9444
:102B30009E156894B1110C947C1608950E9461163C
:102B400088F09F5798F0B92F9927B751B0F0E1F06E
:102B5000660F771F881F991F1AF0BA95C9F714C01E
:102B6000B13091F00E947B16B1E008950C947B1671
:102B7000672F782F8827B85F39F0B93FCCF3869557
:102B800077956795B395D9F73EF4909580957095B4
:102B900061957F4F8F4F9F4F0895E89409C097FB31
:102BA0003EF490958095709561957F4F8F4F9F4F24
:102BB0009923A9F0F92F96E9BB279395F695879568
:102BC00077956795B795F111F8CFFAF4BB0F11F42B
:102BD00060FF1BC06F5F7F4F8F4F9F4F16C08823D2
:102BE00011F096E911C0772321F09EE8872F762F08
:102BF00005C0662371F096E8862F70E060E02AF049
:102C00009A95660F771F881FDAF7880F9695879534
:102C100097F9089597F99F6780E870E060E008955C
:102C20009FEF80EC0895DF93CF931F930F93FF9254
:102C3000EF92DF927B018C01689406C0DA2EEF01DF
:102C40000E945B17FE01E894A5912591359145916D
:102C50005591A6F3EF010E949614FE019701A80179
:102C6000DA9469F7DF90EF90FF900F911F91CF9169
:102C7000DF91089500240A9416161706180609060F
:102C8000089500240A9412161306140605060895E2
:102C9000092E0394000C11F4882352F0BB0F40F46A
:102CA000BF2B11F460FF04C06F5F7F4F8F4F9F4FAA
:102CB000089557FD9058440F551F59F05F3F71F02C
:102CC0004795880F97FB991F61F09F3F79F0879593
:102CD0000895121613061406551FF2CF4695F1DF1C
:102CE00008C0161617061806991FF1CF86957105AC
:102CF000610508940895E894BB2766277727CB01E0
:102D000097F908959B01AC0160E070E080E89FE3D3
:102D10000C94EB140C940A160C94B5170E946116CF
:102D2000D8F39923C9F3940F511DA3F39150504048
:102D300094F059F0882332F0660F771F881F915066
:102D40005040C1F79E3F51052CF7880F911D969575
:102D5000879597F908955F3FACF0983E9CF0BB27AC
:102D6000869577956795B79508F4B1609395C1F707
:102D7000BB0F58F711F460FFE8CF6F5F7F4F8F4FA5
:102D80009F4FE3CF0C947C1616F00C94B5170C945F
:102D9000101668940C940A160E946116A8F39923E1
:102DA000C1F3AEF3DF93CF931F930F93FF92C92F1D
:102DB000DD2788232AF02197660F771F881FDAF70F
:102DC00020E030E040E85FEB9FE3883920F0803E70
:102DD00038F021968F770E947F14E0E9F0E004C07C
:102DE0000E947F14EDEBF0E00E9413168B01BE01F0
:102DF000EC01FB2E6F5771097595771F880B990BA6
:102E00000E94CF1528E132E741E35FE30E945B17A0
:102E1000AF2D9801AE01FF900F911F91CF91DF91DF
:102E20000E9496140C944816FA01DC01AA0FBB1FED
:102E30009B01AC01BF5728F4222733274427507841
:102E400020C0B75190F4AB2F0024469537952795B5
:102E5000011CA395D2F3002071F0220F331F441FF1
:102E6000B395DAF30ED00C947E1461307105A0E8AE
:102E70008A07B94630F49B01AC016627772788277B
:102E80009078309621F020833183428353830895D4
:102E90000E945B170C9448160E943A1638F00E9464
:102EA000411620F0952311F00C940A160C9410167C
:102EB00011240C947C160E94591670F3959FC1F34F
:102EC000950F50E0551F629FF001729FBB27F00DD8
:102ED000B11D639FAA27F00DB11DAA1F649F66272D
:102EE000B00DA11D661F829F2227B00DA11D621F7C
:102EF000739FB00DA11D621F839FA00D611D221F36
:102F0000749F3327A00D611D231F849F600D211D19
:102F1000822F762F6A2F11249F5750409AF0F1F09C
:102F200088234AF0EE0FFF1FBB1F661F771F881F05
:102F300091505040A9F79E3F510580F00C940A161D
:102F40000C947C165F3FE4F3983ED4F38695779516
:102F50006795B795F795E7959F5FC1F7FE2B880FAB
:102F6000911D9695879597F908959F3F31F091505F
:102F700020F4879577956795B795880F911D96955D
:102F8000879597F9089597FB072E16F4009407D0BC
:102F900077FD09D00E94181807FC05D03EF49095E3
:102FA00081959F4F0895709561957F4F0895A1E297
:102FB0001A2EAA1BBB1BFD010DC0AA1FBB1FEE1FB3
:102FC000FF1FA217B307E407F50720F0A21BB30BFE
:102FD000E40BF50B661F771F881F991F1A9469F77A
:102FE00060957095809590959B01AC01BD01CF01D6
:102FF0000895052E97FB1EF400940E94101857FDAB
:1030000007D00E94D71707FC03D04EF40C94101879
:1030100050954095309521953F4F4F4F5F4F089504
:1030200090958095709561957F4F8F4F9F4F089534
:10303000AA1BBB1B51E107C0AA1FBB1FA617B707DE
:1030400010F0A61BB70B881F991F5A95A9F78095FA
:103050009095BC01CD010895EE0FFF1F0590F491EE
:10306000E02D0994CF93DF938230910510F482E034
:1030700090E0E0915202F091530220E030E0C0E095
:10308000D0E0309711F14081518148175907C0F0C5
:103090004817590761F482819381209719F09B8327
:1030A0008A832BC0909353028093520226C021152D
:1030B000310519F04217530718F49A01BE01DF01D8
:1030C000EF010280F381E02DDCCF2115310509F1FC
:1030D000281B390B2430310590F412968D919C9168
:1030E00013976115710521F0FB019383828304C05E
:1030F0009093530280935202FD01329644C0FD0129
:10310000E20FF31F81939193225031092D933C9349
:103110003AC02091500230915102232B41F420916A
:10312000020130910301309351022093500220910B
:103130000001309101012115310541F42DB73EB751
:103140004091040150910501241B350BE091500280
:10315000F0915102E217F307A0F42E1B3F0B281742
:10316000390778F0AC014E5F5F4F2417350748F000
:103170004E0F5F1F509351024093500281939193E1
:1031800002C0E0E0F0E0CF01DF91CF9108950F930E
:103190001F93CF93DF93009709F48CC0FC01329703
:1031A00013821282009152021091530201151105EF
:1031B00081F420813181820F931F20915002309140
:1031C00051022817390779F5F0935102E093500224
:1031D00071C0D80140E050E0AE17BF0750F412961E
:1031E0002D913C911397AD012115310509F1D901BC
:1031F000F3CF9D01DA013383228360817181860FD1
:10320000971F8217930769F4EC0128813981260FF3
:10321000371F2E5F3F4F318320838A819B819383A9
:103220008283452B29F4F0935302E093520242C06B
:103230001396FC93EE931297ED01499159919E01DB
:10324000240F351FE217F30771F480819181840FF9
:10325000951F029611969C938E938281938113966B
:103260009C938E931297E0E0F0E0D80112968D9136
:103270009C911397009719F0F8018C01F6CF8D916E
:103280009C9198012E5F3F4F820F931F2091500217
:10329000309151022817390769F4309729F41092B8
:1032A00053021092520202C01382128210935102F2
:1032B00000935002DF91CF911F910F910895F894E0
:0232C000FFCF3E
:1032C20000005402800000600645004C9A460080CF
:1032D200BA43008088433393924300C05A450000AA
:1032E2007A4400009040CD0CCD0C0174656D706580
:1032F20072617475726120616775613A0074656DFF
:10330200706572617475726120636F727465206199
:103312006775613A006E6976656C20646520616745
:1033220075613A0070726573696F6E20636F7274B3
:1033320065206163656974653A006D6178696D61E4
:103342002076656C6F6369646164206D6F746F725F
:103352003A0043006E6F726D616C00414C41524DF8
:1033620041004150414741444F00736572766F20DE
:1033720061637469766F00736572766F2061706144
:063382006761646F0000AA
:00000001FF
