:100000000C9467000C948F000C948F000C948F005C
:100010000C948F000C948F000C948F000C948F0024
:100020000C948F000C948F000C948F000C948F0014
:100030000C948F000C948F000C948F000C948F0004
:100040000C9453030C948F000C9421030C94FB022A
:100050000C948F000C948F000C948F000C948F00E4
:100060000C948F000C948F0005A84CCDB2D44EB9DF
:100070003836A9020C50B9918688083CA6AAAA2A4B
:10008000BE000000803F00000000250028002B007B
:1000900000000000240027002A00000000002300C8
:1000A00026002900040404040404040402020202D9
:1000B000020203030303030301020408102040802B
:1000C0000102040810200102040810208C051124EC
:1000D0001FBECFEFD8E0DEBFCDBF11E0A0E0B1E0A2
:1000E000E2E6F1E102C005900D92A432B107D9F722
:1000F00021E0A4E2B1E001C01D92A43DB207E1F706
:1001000010E0C7E6D0E004C02197FE010E94A408D9
:10011000C636D107C9F70E94E2030C94AF080C94CD
:100120000000CF92DF92EF92FF920F931F93CF9335
:10013000DF936C017A018B01C0E0D0E0CE15DF05C2
:1001400081F0D8016D918D01D601ED91FC91019066
:10015000F081E02DC6010995892B11F02196EECF93
:100160007E01C701DF91CF911F910F91FF90EF901A
:10017000DF90CF900895089580E090E00895FC010D
:10018000538D448D252F30E0842F90E0821B930BFC
:10019000541710F0CF96089501970895FC01918DA2
:1001A000828D981761F0828DDF01A80FB11D5D96D9
:1001B0008C91928D9F5F9F73928F90E008958FEF47
:1001C0009FEF0895FC01918D828D981731F0828DFB
:1001D000E80FF11D858D90E008958FEF9FEF089552
:1001E000FC01918D228D892F90E0805C9F4F821BB6
:1001F00091098F739927089587E391E00E94F00099
:1002000021E0892B09F420E0822F0895FC01848DE0
:10021000DF01A80FB11DA35ABF4F2C91848D90E030
:1002200001968F739927848FA689B7892C93A0890B
:10023000B1898C91837080648C93938D848D981395
:1002400006C00288F389E02D80818F7D8083089528
:10025000EF92FF920F931F93CF93DF93EC0181E016
:10026000888F9B8D8C8D981305C0E889F9898081D2
:1002700085FD26C0F62E0B8D10E00F5F1F4F0F730C
:100280001127E02E8C8DE8120CC00FB607FCFACFB8
:10029000E889F989808185FFF5CFCE010E940601AA
:1002A000F1CF8B8DFE01E80FF11DE35AFF4FF08275
:1002B0009FB7F8940B8FEA89FB89808180620AC01E
:1002C0009FB7F894EE89FF896083E889F989808176
:1002D0008370806480839FBF81E090E0DF91CF9145
:1002E0001F910F91FF90EF900895CF93DF93EC0152
:1002F000888D8823C9F0EA89FB89808185FD05C046
:10030000A889B9898C9186FD0FC00FB607FCF5CF7F
:10031000808185FFF2CFA889B9898C9185FFEDCFC7
:10032000CE010E940601E7CFDF91CF91089580E0D2
:1003300090E0892B29F00E94FC0081110C940000B0
:1003400008953FB7F8948091290190912A01A091D6
:100350002B01B0912C0126B5A89B05C02F3F19F0A9
:100360000196A11DB11D3FBFBA2FA92F982F882735
:10037000820F911DA11DB11DBC01CD0142E0660F90
:10038000771F881F991F4A95D1F70895009769F044
:10039000FC0101900020E9F73197AF01481B590B90
:1003A000BC0187E391E00C94910080E090E0089517
:1003B0002F923F924F925F926F927F928F929F9275
:1003C000AF92BF92CF92DF92EF92FF920F931F9363
:1003D000CF93DF93CDB7DEB7A4970FB6F894DEBF07
:1003E0000FBECDBF4B015C01F42E9B01AC010E94FE
:1003F0003408882319F082E191E027C024013501F7
:10040000E89477F82FEF3FEF4FE75FE7C301B201C2
:100410000E94340881110DC02FEF3FEF4FE75FE7D7
:10042000C301B2010E94260618161CF486E191E071
:100430000CC02FEF3FEF4FE75FE4C501B4010E940E
:10044000C20718162CF48AE191E00E94C601B8C0D8
:100450002FEF3FEF4FE75FECC501B4010E94260686
:1004600087FDF1CF20E030E0A901C501B4010E9471
:10047000260687FF0BC06DE287E391E00E9428010A
:100480003C01B7FAB094B7F8B09402C0612C712C5B
:1004900010E060E070E080E09FE3F11641F020E0C2
:1004A00030E040E251E40E9430061F5FF6CFA50124
:1004B00094010E94BA054B015C010E94A2066AA346
:1004C000C72ED82EE92E19A2262F372F482F592FA5
:1004D0008E010F5D1F4F0BA31CA39AE0292E312C18
:1004E000412C512CCA01B901A20191010E9482083C
:1004F000605DF80162938F012115310541055105B9
:1005000089F7CF010E94C6018301080F191FFF2040
:1005100009F455C06AA17C2D8D2D9E2D0E94D10617
:100520009B01AC01C501B4010E94B9054B015C01FE
:100530006EE287E391E00E942801080F191F8AE00C
:10054000282E312C412C512C20E030E040E251E4A7
:10055000C501B4010E94C7074B015C010E94A206BD
:100560009B0140E050E019A2CBA0DCA0762E3AA37C
:10057000642EE52ECA01B901A20191010E948208F0
:10058000605DF60162936F0121153105410551054A
:1005900089F7CF010E94C601080F191F672D7AA1A4
:1005A000862D9E2D0E94D1069B01AC01C501B40190
:1005B0000E94B9054B015C01FA94F110C5CFC80146
:1005C000A4960FB6F894DEBF0FBECDBFDF91CF91DA
:1005D0001F910F91FF90EF90DF90CF90BF90AF9061
:1005E0009F908F907F906F905F904F903F902F9053
:1005F00008950E94AA081F920F920FB60F9211241D
:100600002F933F934F935F936F937F938F939F931A
:10061000AF93BF93EF93FF9387E391E00E940601AE
:10062000FF91EF91BF91AF919F918F917F916F91CA
:100630005F914F913F912F910F900FBE0F901F90A0
:1006400018951F920F920FB60F9211242F938F932C
:100650009F93EF93FF93E0914701F09148018081D0
:10066000E0914D01F0914E0182FD12C09081809188
:1006700050018F5F8F7320915101821751F0E091EB
:100680005001F0E0E95CFE4F958F8093500101C06E
:100690008081FF91EF919F918F912F910F900FBECD
:1006A0000F901F9018951F920F920FB60F92112462
:1006B0002F933F938F939F93AF93BF938091250187
:1006C00090912601A0912701B09128013091240139
:1006D00023E0230F2D3720F40196A11DB11D05C085
:1006E00026E8230F0296A11DB11D209324018093BB
:1006F000250190932601A0932701B09328018091B2
:10070000290190912A01A0912B01B0912C01019611
:10071000A11DB11D8093290190932A01A0932B0163
:10072000B0932C01BF91AF919F918F913F912F91E9
:100730000F900FBE0F901F901895CF92DF92EF92FF
:10074000FF920F931F93E82FF92F05C00150110955
:100750002109310961F1908196239417B9F305C0FD
:10076000015011092109310911F190819623941347
:10077000F7CFC12CD12CE12CF12C0AC08FEFC81A75
:10078000D80AE80AF80A0C151D052E053F0579F070
:1007900080818623841791F36C2D7D2D8E2D9F2DC6
:1007A0001F910F91FF90EF90DF90CF90089560E040
:1007B00070E080E090E01F910F91FF90EF90DF904C
:1007C000CF900895789484B5826084BD84B58160AB
:1007D00084BD85B5826085BD85B5816085BD80910C
:1007E0006E00816080936E00109281008091810084
:1007F000826080938100809181008160809381007C
:10080000809180008160809380008091B10084603D
:100810008093B1008091B00081608093B00080919E
:100820007A00846080937A0080917A00826080935D
:100830007A0080917A00816080937A0080917A00BA
:10084000806880937A001092C100E5ECF0E024917A
:10085000E1EBF0E084918823C1F090E0880F991FCC
:10086000FC01E057FF4FC591D491FC01EA57FF4FBF
:10087000A591B4919FB7F8948881E22FE0958E23DB
:1008800088838C91E823EC939FBFE0914701F0911E
:10089000480182E08083E0914301F091440110829D
:1008A000E0914501F09146018FEC808310924F0159
:1008B000E0914B01F0914C0186E08083E091490189
:1008C000F0914A01808180618083E0914901F0913B
:1008D0004A01808188608083E0914901F0914A015A
:1008E000808180688083E0914901F0914A01808194
:1008F0008F7D808325EC222E20E0322EC1EBD0E0CC
:10090000412C512C30E8632E3FE3732E10923601B8
:100910001092350180913501909136010B970CF0C2
:100920006CC0F1016491FE018491E82FF0E0EE0FBC
:10093000FF1FE656FF4F8591949100E412E42FE0EB
:1009400030E0462F0E949D036115710581059105D8
:1009500049F0DC01CB010196A11DB11DBC01CD0107
:100960009F7003C060E070E0CB010E94D1062DEBC8
:1009700037E346E855E30E94C70720E030E044EB48
:1009800053E40E94C70720E030E048E452E40E94AC
:10099000C7076B017C0121EE3EE245E652E40E946E
:1009A00030060E942B064B015C01209131013091F1
:1009B00032014091330150913401C701B6010E94C8
:1009C000C207181684F4C0923101D0923201E0922D
:1009D0003301F092340180922D0190922E01A09269
:1009E0002F01B0923001809135019091360101962E
:1009F00090933601809335018DCF20E030E044EBB9
:100A000053E46091310170913201809133019091F2
:100A100034010E94C207181684F41092310110921A
:100A20003201109233011092340140922D01509204
:100A30002E0160922F017092300120E030E0A90178
:100A400060913101709132018091330190913401B4
:100A50000E942606811110C01092310110923201BD
:100A6000109233011092340140922D0150922E01C8
:100A700060922F01709230016091310170913201CA
:100A8000809133019091340142E00E94D8018EE1BF
:100A900091E00E94C60160912D0170912E0180911C
:100AA0002F019091300142E00E94D80180E291E054
:100AB0000E94C6010E94A1014B015C0188EEC82E74
:100AC00083E0D82EE12CF12C0E94A101DC01CB01A6
:100AD00088199909AA09BB09883E9340A105B10567
:100AE00098F3F1E0CF1AD108E108F10828EE820E60
:100AF00023E0921EA11CB11CC114D104E104F10435
:100B000019F71092310110923201109233011092B4
:100B100034010E949701FACEE7E3F1E013821282DA
:100B200088EE93E0A0E0B0E084839583A683B7834A
:100B300084E091E09183808385EC90E095878487C1
:100B400084EC90E09787868780EC90E0918B808B97
:100B500081EC90E0938B828B82EC90E0958B848B80
:100B600086EC90E0978B868B118E128E138E148EEE
:100B700008955058BB27AA270E94D1050C947407EA
:100B80000E943B0738F00E94420720F039F49F3F53
:100B900019F426F40C9438070EF4E095E7FB0C9456
:100BA0003207E92F0E94990758F3BA1762077307B3
:100BB0008407950720F079F4A6F50C94BB070EF492
:100BC000E0950B2EBA2FA02D0B01B90190010C015D
:100BD000CA01A0011124FF27591B99F0593F50F475
:100BE000503E68F11A16F040A22F232F342F4427CD
:100BF000585FF3CF469537952795A795F0405395C5
:100C0000C9F77EF41F16BA0B620B730B840BBAF094
:100C10009150A1F0FF0FBB1F661F771F881FC2F7FF
:100C20000EC0BA0F621F731F841F48F48795779513
:100C30006795B795F7959E3F08F0B0CF9395880FCD
:100C400008F09927EE0F9795879508950E940E0753
:100C500008F481E008950E944B07E3950C94850702
:100C60000E9444060C9474070E94420758F00E94A8
:100C70003B0740F029F45F3F29F00C9432075111F3
:100C80000C94BC070C9438070E94990768F39923C9
:100C9000B1F3552391F3951B550BBB27AA27621778
:100CA0007307840738F09F5F5F4F220F331F441F85
:100CB000AA1FA9F335D00E2E3AF0E0E832D09150B9
:100CC0005040E695001CCAF72BD0FE2F29D0660FA6
:100CD000771F881FBB1F261737074807AB07B0E8E9
:100CE00009F0BB0B802DBF01FF2793585F4F3AF0EF
:100CF0009E3F510578F00C9432070C94BC075F3F7F
:100D0000E4F3983ED4F3869577956795B795F79574
:100D10009F5FC9F7880F911D9695879597F908955C
:100D2000E1E0660F771F881FBB1F621773078407F8
:100D3000BA0720F0621B730B840BBA0BEE1F88F707
:100D4000E09508950E94A10788F09F5798F0B92F69
:100D50009927B751B0F0E1F0660F771F881F991FF0
:100D60001AF0BA95C9F714C0B13091F00E94BB07D0
:100D7000B1E008950C94BB07672F782F8827B85FE0
:100D800039F0B93FCCF3869577956795B395D9F748
:100D90003EF490958095709561957F4F8F4F9F4F52
:100DA0000895E89409C097FB3EF49095809570955E
:100DB00061957F4F8F4F9F4F9923A9F0F92F96E9A7
:100DC000BB279395F695879577956795B795F1111C
:100DD000F8CFFAF4BB0F11F460FF1BC06F5F7F4FB9
:100DE0008F4F9F4F16C0882311F096E911C07723CB
:100DF00021F09EE8872F762F05C0662371F096E8D4
:100E0000862F70E060E02AF09A95660F771F881FA2
:100E1000DAF7880F9695879597F90895990F000846
:100E2000550FAA0BE0E8FEEF16161706E807F907BC
:100E3000C0F012161306E407F50798F0621B730B57
:100E4000840B950B39F40A2661F0232B242B252BD8
:100E500021F408950A2609F4A140A6958FEF811D7B
:100E6000811D089597F99F6780E870E060E008951C
:100E70009FEF80EC089500240A94161617061806B2
:100E80000906089500240A9412161306140605068E
:100E900008950C9438070E94A107D8F3E894E0E085
:100EA000BB279F57F0F02AED3FE049EC06C0EE0F5C
:100EB000BB0F661F771F881F28F0B23A62077307BF
:100EC000840728F0B25A620B730B840BE3959A9552
:100ED00072F7803830F49A95BB0F661F771F881F12
:100EE000D2F790480C943B08092E0394000C11F49F
:100EF000882352F0BB0F40F4BF2B11F460FF04C0F5
:100F00006F5F7F4F8F4F9F4F0895EF93E0FF07C0B4
:100F1000A2EA2AED3FE049EC5FEB0E94D1050E9476
:100F200074070F90039401FC9058E8E6F0E00C94ED
:100F3000470857FD9058440F551F59F05F3F71F017
:100F40004795880F97FB991F61F09F3F79F0879530
:100F50000895121613061406551FF2CF4695F1DFB9
:100F600008C0161617061806991FF1CF8695710549
:100F7000610508940895E894BB2766277727CB017D
:100F800097F908950E940E0708F48FEF08950E94C4
:100F9000DA070C9474070E943B0738F00E9442075E
:100FA00020F0952311F00C9432070C94380711248B
:100FB0000C94BC070E94990770F3959FC1F3950F9D
:100FC00050E0551F629FF001729FBB27F00DB11DCD
:100FD000639FAA27F00DB11DAA1F649F6627B00D5D
:100FE000A11D661F829F2227B00DA11D621F739F46
:100FF000B00DA11D621F839FA00D611D221F749F54
:101000003327A00D611D231F849F600D211D822F9A
:10101000762F6A2F11249F5750409AF0F1F08823C1
:101020004AF0EE0FFF1FBB1F661F771F881F9150EE
:101030005040A9F79E3F510580F00C9432070C9464
:10104000BC075F3FE4F3983ED4F3869577956795A8
:10105000B795F795E7959F5FC1F7FE2B880F911D18
:101060009695879597F908950E940E07880B990B1E
:1010700008959F3F31F0915020F4879577956795BB
:10108000B795880F911D9695879597F908959F9329
:101090008F937F936F93FF93EF939B01AC010E941B
:1010A000C707EF91FF910E945B082F913F914F91ED
:1010B0005F910C94C707DF93CF931F930F93FF9219
:1010C000EF92DF927B018C01689406C0DA2EEF016B
:1010D0000E94DA07FE01E894A5912591359145918A
:1010E0005591A6F3EF010E94D105FE019701A801D9
:1010F000DA9469F7DF90EF90FF900F911F91CF91F5
:10110000DF910895A1E21A2EAA1BBB1BFD010DC0A1
:10111000AA1FBB1FEE1FFF1FA217B307E407F507A7
:1011200020F0A21BB30BE40BF50B661F771F881F83
:10113000991F1A9469F760957095809590959B0119
:10114000AC01BD01CF010895EE0FFF1F0590F49192
:10115000E02D099481E090E0F8940C94AF08F894A5
:02116000FFCFBF
:101162000000000028019100BF007501F000CE00D0
:10117200E2006E616E00696E66006F7666002C009A
:041182000D0A000052
:00000001FF
