:100000000C945D000C9485000C9485000C94850084
:100010000C9485000C9485000C9485000C9485004C
:100020000C9485000C9485000C9485000C9485003C
:100030000C9485000C9485000C9485000C9485002C
:100040000C94F1020C9485000C94BF020C9499025C
:100050000C9485000C9485000C9485000C9485000C
:100060000C9485000C9485000000000024002700FB
:100070002A0000000000250028002B0004040404CE
:100080000404040402020202020203030303030342
:10009000010204081020408001020408102001021F
:1000A00004081020000000080002010000030407FB
:1000B00000000000000000003B0311241FBECFEF32
:1000C000D8E0DEBFCDBF22E0A8E3B1E001C01D92C1
:1000D000A733B207E1F711E0A0E0B1E0E0E6FDE010
:1000E00002C005900D92A833B107D9F710E0CDE515
:1000F000D0E004C02197FE010E94A306CC35D107B1
:10010000C9F70E947A030C94AE060C940000E2E555
:10011000F1E0A089B18982E08C93A485B5851C9219
:10012000A685B7858FEC8C93108EA489B58986E05F
:100130008C93A289B3898C9180618C93A289B389B5
:100140008C9188608C93A289B3898C9180688C9300
:100150000288F389E02D80818F7D80830895E1EB13
:10016000F0E09491EDE9F0E02491E9E8F0E0E49129
:10017000EE2309F43CC0992339F1933091F038F41F
:100180009130A9F0923001F594B59F7D12C097305F
:1001900091F09830A1F09430B9F4909180009F7D57
:1001A00003C0909180009F77909380000DC094B51C
:1001B0009F7794BD09C09091B0009F7703C0909144
:1001C000B0009F7D9093B000F0E0EE0FFF1FEE585F
:1001D000FF4FA591B4919FB7F894811104C08C9101
:1001E0002095282302C0EC912E2B2C939FBF0895BD
:1001F000CF92DF92EF92FF920F931F93CF93DF93F3
:100200006C017A018B01C0E0D0E0CE15DF0581F0F2
:10021000D8016D918D01D601ED91FC910190F08195
:10022000E02DC6010995892B11F02196EECF7E01B4
:10023000C701DF91CF911F910F91FF90EF90DF9059
:10024000CF900895089580E090E00895FC01538DCB
:10025000448D252F30E0842F90E0821B930B5417A0
:1002600010F0CF96089501970895FC01918D828D2D
:10027000981761F0828DDF01A80FB11D5D968C91FA
:10028000928D9F5F9F73928F90E008958FEF9FEF05
:100290000895FC01918D828D981731F0828DE80FC1
:1002A000F11D858D90E008958FEF9FEF0895FC017B
:1002B000918D228D892F90E0805C9F4F821B910948
:1002C0008F739927089582E591E00E94570121E0FC
:1002D000892B09F420E0822F0895FC01848DDF0131
:1002E000A80FB11DA35ABF4F2C91848D90E00196A9
:1002F0008F739927848FA689B7892C93A089B18998
:100300008C91837080648C93938D848D981306C038
:100310000288F389E02D80818F7D80830895EF929C
:10032000FF920F931F93CF93DF93EC0181E0888FAF
:100330009B8D8C8D981305C0E889F989808185FD96
:1003400026C0F62E0B8D10E00F5F1F4F0F73112785
:10035000E02E8C8DE8120CC00FB607FCFACFE889AE
:10036000F989808185FFF5CFCE010E946D01F1CF23
:100370008B8DFE01E80FF11DE35AFF4FF0829FB70E
:10038000F8940B8FEA89FB89808180620AC09FB74D
:10039000F894EE89FF896083E889F9898081837008
:1003A000806480839FBF81E090E0DF91CF911F91B7
:1003B0000F91FF90EF900895CF93DF93EC01888D1C
:1003C0008823C9F0EA89FB89808185FD05C0A88959
:1003D000B9898C9186FD0FC00FB607FCF5CF8081DF
:1003E00085FFF2CFA889B9898C9185FFEDCFCE0129
:1003F0000E946D01E7CFDF91CF91089580E090E0FA
:10040000892B29F00E94630181110C94000008954A
:100410003FB7F89480913D0190913E01A0913F013A
:10042000B091400126B5A89B05C02F3F19F0019659
:10043000A11DB11D3FBFBA2FA92F982F8827820F6A
:10044000911DA11DB11DBC01CD0142E0660F771FBA
:10045000881F991F4A95D1F708952FB7F894609196
:10046000390170913A0180913B0190913C012FBF7D
:1004700008950E94A9066115710579F0FB010190AC
:100480000020E9F73197AF01461B570BDC01ED91D6
:10049000FC910280F381E02D099480E090E00895C2
:1004A0008F929F92AF92BF92EF92FF920F931F9302
:1004B000CF93DF93CDB7DEB7A1970FB6F894DEBF29
:1004C0000FBECDBF7C01FA01CB0119A2223008F486
:1004D0002AE08E010F5D1F4F822E912CA12CB12C92
:1004E000BF01A50194010E948106F901CA010150D2
:1004F00011096A3014F4605D01C0695CD8016C9325
:10050000232B242B252B61F7B801C7010E943B0246
:10051000A1960FB6F894DEBF0FBECDBFDF91CF918D
:100520001F910F91FF90EF90BF90AF909F908F9091
:1005300008951F920F920FB60F9211242F933F939D
:100540004F935F936F937F938F939F93AF93BF93DB
:10055000EF93FF9382E591E00E946D01FF91EF918F
:10056000BF91AF919F918F917F916F915F914F91CB
:100570003F912F910F900FBE0F901F9018951F92D3
:100580000F920FB60F9211242F938F939F93EF9397
:10059000FF93E0916201F09163018081E091680135
:1005A000F091690182FD12C0908180916B018F5F93
:1005B0008F7320916C01821751F0E0916B01F0E094
:1005C000EE5AFE4F958F80936B0101C08081FF91A1
:1005D000EF919F918F912F910F900FBE0F901F90D1
:1005E00018951F920F920FB60F9211242F933F93DD
:1005F0008F939F93AF93BF938091390190913A016C
:10060000A0913B01B0913C013091380123E0230FD0
:100610002D3720F40196A11DB11D05C026E8230F3A
:100620000296A11DB11D209338018093390190934A
:100630003A01A0933B01B0933C0180913D01909120
:100640003E01A0913F01B09140010196A11DB11D55
:1006500080933D0190933E01A0933F01B0934001F0
:10066000BF91AF919F918F913F912F910F900FBEAE
:100670000F901F901895E2E5F1E01382128288EE48
:1006800093E0A0E0B0E084839583A683B78384E001
:1006900091E09183808385EC90E09587848784EC5A
:1006A00090E09787868780EC90E0918B808B81EC3F
:1006B00090E0938B828B82EC90E0958B848B86EC20
:1006C00090E0978B868B118E128E138E148EEFEE28
:1006D000F1E0168217821086118612861386148620
:1006E000158616861786108A118A128A138A148A2A
:1006F000158A0895789484B5826084BD84B581603C
:1007000084BD85B5826085BD85B5816085BD8091DC
:100710006E00816080936E00109281008091810054
:10072000826080938100809181008160809381004C
:10073000809180008160809380008091B10084600E
:100740008093B1008091B00081608093B00080916F
:100750007A00846080937A0080917A00826080932E
:100760007A0080917A00816080937A0080917A008B
:10077000806880937A001092C10010923302109228
:10078000340210923502109236021092F10110924A
:10079000F2011092F3011092F4010E942D026B01FC
:1007A0007C014B015C0128EB820E2BE0921EA11C08
:1007B000B11C0E942D026C157D058E059F0528F049
:1007C00086169706A806B906A0F782E591E09093F1
:1007D0003202809331020E9487000E942D026093B2
:1007E000F1017093F2018093F3019093F40162E1BF
:1007F00071E080913102909132020E943B020E948E
:100800002D026B017C014B015C013AE0830E911CCF
:10081000A11CB11C0E942D026C157D058E059F0543
:1008200028F086169706A806B906A0F781E08093FF
:1008300005020E948700EDE9F0E02491E9E8F0E08C
:100840008491882399F090E0880F991FFC01E85962
:10085000FF4FA591B491FC01EE58FF4F8591949103
:100860008FB7F894EC91E22BEC938FBFEEE9F0E0B8
:100870002491EAE8F0E084918823C1F090E0880FA9
:10088000991FFC01E859FF4FC591D491FC01EE5826
:10089000FF4FA591B4919FB7F8948881E22FE0951E
:1008A0008E2388838C91E823EC939FBF81E00E9484
:1008B000AF0088E893E1A0E0B0E080934501909319
:1008C0004601A0934701B093480180914501909162
:1008D0004601A0914701B0914801892B8A2B8B2BAF
:1008E00041F4109245011092460110924701109276
:1008F0004801C0904501D0904601E0904701F0903A
:1009000048010E942D02DC01CB018C0D9D1DAE1D06
:10091000BF1D8093450190934601A0934701B0937A
:10092000480188E893E1A0E0B0E080934101909312
:100930004201A0934301B093440180914101909101
:100940004201A0914301B0914401892B8A2B8B2B4A
:1009500041F4109241011092420110924301109211
:100960004401C0904101D0904201E0904301F090D9
:1009700044010E942D02DC01CB018C0D9D1DAE1D9A
:10098000BF1D8093410190934201A0934301B09316
:100990004401109249019EE0492E98E3592E90E6B9
:1009A000692E9CE3792E0E942D02672B682B692B00
:1009B00041F40E942D02623071058105910508F411
:1009C00014C10E942D02C0904E01D0904F01E090C2
:1009D0005001F09051016C157D058E059F0540F486
:1009E00060934E0170934F01809350019093510199
:1009F000C0904E01D0904F01E0905001F090510115
:100A00009B01AC012C193D094E095F0969017A016E
:100A10003AEFC316D104E104F10408F4E6C0609390
:100A20004E0170934F01809350019093510184EFD8
:100A300091E0A0E0B0E08093FD019093FE01A093CF
:100A4000FF01B09300021092010210920202109274
:100A50000302109204028091F5019091F601A09199
:100A6000F701B091F8018093F9019093FA01A093F6
:100A7000FB01B093FC010E942D026093F50170937D
:100A8000F6018093F7019093F8010E942D02609384
:100A9000F1017093F2018093F3019093F4010E94AD
:100AA0002D026B017C0164E271E080913102909132
:100AB00032020E943B022AE041E050E060E070E038
:100AC00080913102909132020E9450026BE271E0FB
:100AD00080913102909132020E943B022AE0B701DC
:100AE000A60180913102909132020E9450026DE283
:100AF00071E080913102909132020E943B0280911C
:100B0000F5019091F601A091F701B091F801B701BC
:100B1000A601481B590B6A0B7B0B2AE0809131021E
:100B2000909132020E9450026DE271E08091310298
:100B3000909132020E943B024091F5015091F601E2
:100B40006091F7017091F8018091F9019091FA019B
:100B5000A091FB01B091FC01481B590B6A0B7B0B68
:100B60002AE080913102909132020E9450026FE29D
:100B700071E080913102909132020E943B020E940A
:100B80002D02AB01BC012AE080913102909132022A
:100B90000E945002E0903102F090320261E371E075
:100BA000C7010E943B0261E271E0C7010E943B0263
:100BB0000E942D026B017C014B015C0192E0890EC9
:100BC000911CA11CB11C0E942D026C157D058E0587
:100BD0009F0508F088C00E942D026093F501709374
:100BE000F6018093F7019093F80140924A015092E8
:100BF0004B0160924C0170924D018091490181112D
:100C000010C00E942D02C0904501D0904601E09096
:100C10004701F09048016C157D058E059F05A8F0F1
:100C200069C00E942D02C0904101D0904201E09025
:100C30004301F09044016C157D058E059F0528F059
:100C400081E00E94AF00109249012AE040E050E0AC
:100C5000BA0182E591E00E9450026EE282E591E0E5
:100C60000E948F012AE040E050E0BA0182E591E065
:100C70000E9450022AE041E050E060E070E082E52E
:100C800091E00E94500261E271E082E591E00E94F1
:100C90003B020E9408024B015C0188EEC82E83E0F3
:100CA000D82EE12CF12C0E940802DC01CB0188191E
:100CB0009909AA09BB09883E9340A105B10598F39B
:100CC000A1E0CA1AD108E108F108B8EE8B0EB3E032
:100CD0009B1EA11CB11CC114D104E104F10419F73D
:100CE0000E94FE0160CE86169706A806B90608F097
:100CF0006ACF71CF80E00E94AF0081E0809349010C
:100D0000A4CFA1E21A2EAA1BBB1BFD010DC0AA1F76
:100D1000BB1FEE1FFF1FA217B307E407F50720F064
:100D2000A21BB30BE40BF50B661F771F881F991FDF
:100D30001A9469F760957095809590959B01AC0128
:100D4000BD01CF010895EE0FFF1F0590F491E02D36
:100D5000099481E090E0F8940C94AE06F894FFCFEB
:100D6000000000008F01F8002601DC015701350169
:100D70004901564D4450565F317C315F564D4450C9
:100D8000560D0A00564D4450455F003A323A007CF9
:080D9000005F564D4450450080
:107E0000112484B714BE81FFF0D085E080938100F7
:107E100082E08093C00088E18093C10086E0809377
:107E2000C20080E18093C4008EE0C9D0259A86E02C
:107E300020E33CEF91E0309385002093840096BBD3
:107E4000B09BFECF1D9AA8958150A9F7CC24DD24C4
:107E500088248394B5E0AB2EA1E19A2EF3E0BF2EE7
:107E6000A2D0813461F49FD0082FAFD0023811F036
:107E7000013811F484E001C083E08DD089C08234E0
:107E800011F484E103C0853419F485E0A6D080C0E4
:107E9000853579F488D0E82EFF2485D0082F10E0AE
:107EA000102F00270E291F29000F111F8ED06801E7
:107EB0006FC0863521F484E090D080E0DECF843638
:107EC00009F040C070D06FD0082F6DD080E0C81688
:107ED00080E7D80618F4F601B7BEE895C0E0D1E017
:107EE00062D089930C17E1F7F0E0CF16F0E7DF06D8
:107EF00018F0F601B7BEE89568D007B600FCFDCFD4
:107F0000A601A0E0B1E02C9130E011968C91119780
:107F100090E0982F8827822B932B1296FA010C0160
:107F200087BEE89511244E5F5F4FF1E0A038BF0790
:107F300051F7F601A7BEE89507B600FCFDCF97BE46
:107F4000E89526C08437B1F42ED02DD0F82E2BD052
:107F50003CD0F601EF2C8F010F5F1F4F84911BD097
:107F6000EA94F801C1F70894C11CD11CFA94CF0C13
:107F7000D11C0EC0853739F428D08EE10CD085E9AC
:107F80000AD08FE07ACF813511F488E018D01DD067
:107F900080E101D065CF982F8091C00085FFFCCF94
:107FA0009093C60008958091C00087FFFCCF809118
:107FB000C00084FD01C0A8958091C6000895E0E648
:107FC000F0E098E1908380830895EDDF803219F02E
:107FD00088E0F5DFFFCF84E1DECF1F93182FE3DFCA
:107FE0001150E9F7F2DF1F91089580E0E8DFEE27F6
:047FF000FF270994CA
:027FFE00040479
:0400000300007E007B
:00000001FF