:020000040800F2
:1000000000280020DD4C0008254D0008254D000883
:10001000254D0008254D0008254D00080000000072
:10002000000000000000000000000000254D000856
:10003000254D000800000000254D00088B410008F8
:10004000254D0008254D0008254D0008254D0008C8
:10005000254D0008254D00087D4200088342000818
:10006000894200088F42000895420008254D00088B
:10007000254D0008254D0008254D0008254D000898
:10008000254D0008254D0008254D0008195C000885
:100090000D5C0008254D0008254D00089B42000816
:1000A000254D0008BD310008254D0008D13100085C
:1000B000D5310008E931000800000000254D000896
:1000C000254D00080000000000000000254D00083C
:1000D00000000000054B00081D4B00080000000058
:1000E000B1420008254D00081D5C0008000000001A
:1000F0000000000000000000000000000000000000
:0C01000000000000000000005FF808F1A3
:10010C00034613F8012B002AFBD1181A013870474B
:10011C0010B5054C237833B9044B13B10448AFF335
:10012C0000800123237010BD20020020000000007D
:10013C00D06E000808B5034B1BB103490348AFF35D
:10014C00008008BD0000000024020020D06E0008D2
:10015C0010B50C2004F018FE0C2004F023FE0A4B02
:10016C000121186804F0B2FE084B094C18680321F1
:10017C0004F0ACFE2068012104F0A8FE20680021E8
:10018C00BDE8104004F000BF08000020040000206F
:10019C0000000020194B2DE9F041186804F030FFE5
:1001AC00174CDFF860802060D8F8000004F00AFEDD
:1001BC002368154F012B154E154D38600ED1336841
:1001CC0063B92B78134A83F0010311782B70124B0F
:1001DC0081F001011868117004F0D6FE29780F4DDA
:1001EC0029B1D8F8000004F0EDFD0146386028680C
:1001FC0004F0FEFD23683360BDE8F08104000020AC
:10020C00400200200C0000204C0200204402002080
:10021C003C020020480200200000002008000020C2
:10022C007047000038B50E4B05461A784FF47A73B8
:10023C00B3FBF2F30B4A1068B0FBF3F000F0FEFBDB
:10024C00044658B90F2D09D8024629464FF0FF3005
:10025C0000F0A4FB2046044B1D6038BD0120FCE7D8
:10026C00100000203400002014000020074A08B5BC
:10027C001368032043F01003136000F07DFB002093
:10028C00FFF7D0FFFFF7CCFF002008BD0020024095
:10029C00034A044B11681B780B441360704700BF72
:1002AC005002002010000020014B1868704700BF5E
:1002BC0050020020F7B5002504460E460195FFF7C5
:1002CC00F3FF236807469A68D10508D50120A36A75
:1002DC0084F8245043F02003A36203B0F0BD5A68A5
:1002EC00D20503D4DB6A13F4700F40D0444B0220C8
:1002FC001D6801F0F5FD2368424A1969B5FBF0F55C
:10030C001142414A54D1D8684049084250D1196928
:10031C0011425ED1DA683E4B1A4214BF29231423D2
:10032C005D43019BAB4226D2721C64D0002E56D189
:10033C00019BAB420DD3019B01330193019BAB425B
:10034C00F4D318E0751C13D066B923681B689807A2
:10035C000DD4A36A032043F00403A362002384F8A2
:10036C002430BAE7FFF7A0FFC01BB042EDD82268DB
:10037C0013689907E6D56FF0120322681360A36A1D
:10038C0043F40073A362936803F46023B3F5602F06
:10039C000CD1237B53B9A36A23F48073A362A36AA1
:1003AC00DB0403D4A36A43F00103A362002094E7A7
:1003BC001969114203D1D968154A11420BD0196938
:1003CC00144A114209D1DB68134214BFFC23542395
:1003DC00A6E72923A4E75423A2E7FC23A0E7FFF711
:1003EC0063FFC01BB042A3D8019B01330193019B57
:1003FC009D429BD8BFE7019B0133019391E700BF5E
:10040C003400002024499224922449122449920059
:10041C0092244900499224000368D86C704700006C
:10042C00002373B5019390F824300446012B6CD053
:10043C00012380F824304D680268062D086805EB0E
:10044C00850322D81F26556B053B9E4025EA0605E1
:10045C0000FA03F32B43536309288B6800EB400528
:10046C004FF0070129D9D6681E3DA94026EA0101A3
:10047C00AB400B43D360A0F11003012B25D9002016
:10048C00002384F8243002B070BD0C2D4FF01F05F2
:10049C0009D8166B233B9D4026EA050500FA03F3A9
:1004AC002B431363D8E7D66A413B9D4026EA0505EA
:1004BC0000FA03F32B43D362CEE71069A94020EA7C
:1004CC000101AB400B431361D9E7114B9A4216D192
:1004DC0093681B02D3D49368102843F400039360F1
:1004EC00CDD10C4B0C4A1B68B3FBF2F30A225343DD
:1004FC000193019B002BC2D0019B013BF8E7A36A3F
:10050C00012043F02003A362BAE70220BBE700BF3F
:10051C00002401403400002040420F00806A7047E4
:10052C00002337B50193036804469A68D20702D5B5
:10053C00002003B030BD9A6842F001029A60144B5F
:10054C00144A1B68B3FBF2F30193019BE3B9FFF769
:10055C00ABFE054623689B68DB07E9D4FFF7A4FED6
:10056C00401B0228F6D923689B6813F00103F1D1D4
:10057C00A26A012042F01002A262E26A84F82430DE
:10058C0042F00102E262D4E7019B013BDCE700BFD1
:10059C003400002040420F0010B590F8243004467F
:1005AC00012B54D0012380F82430FFF7B9FF002829
:1005BC0049D1A36A274A23F4407323F0010343F47F
:1005CC008073A3622368934204D123494A6812F4CE
:1005DC00702F2ED1A26A22F48012A2625A685205A0
:1005EC0041BFA26A22F4405242F48052A262A26A33
:1005FC0012F480521CBFE26A22F00602E262002270
:10060C0084F824206FF002021A609A6802F46022C7
:10061C00B2F5602F13D10F4A934205D1A2F5806237
:10062C00526812F4702F0AD19A6842F4A0029A60B0
:10063C0010BDA26A42F48012A2624A68CFE79A689F
:10064C0042F48012F3E7002384F82430F0E7022010
:10065C00EEE700BF002801400024014038B50368D4
:10066C0004469A68D10701D4002038BD9A6822F05C
:10067C0001029A60FFF718FE054623689B68DB07AA
:10068C00F2D5FFF711FE401B0228F6D923689B68B0
:10069C00DA07F2D5A36A012043F01003A362E36AE0
:1006AC0043F00103E362E0E7F8B5044600286DD09F
:1006BC00836A23B9C36280F8243003F001FC20461E
:1006CC00FFF7CCFFA36A13F0100361D100285FD1B0
:1006DC00A26A616822F4885222F0020242F00202FD
:1006EC00E569A668A262227B2943B6F5807F41EAC0
:1006FC00420136D0771E7D427D412D02277D012F90
:10070C0006D182BBA269013A45EA423242F4006545
:10071C002268B6F5807F576827F4694745EA0705D4
:10072C00556097681D4D05EA070545EA010595607A
:10073C0001D0012E02D12369013B1B05D56A25F49A
:10074C0070052B43D3629268154B1340994213D119
:10075C000023E362A36A23F0030343F00103A362C3
:10076C00F8BD3546CAE7A26A42F02002A262E26AEC
:10077C0042F00102E262CBE7A36A23F0120343F0DA
:10078C001003A362E36A43F00103E3620120E7E78D
:10079C00A36A43F01003A362F8E700BFFDF7E1FF83
:1007AC00FE0E1FFF38B50446002850D0836A43F074
:1007BC0002038362FFF752FF0546002842D16FF017
:1007CC001F02236820461A605968224A0A405A6060
:1007DC009968214A0A409A60DA6802F07F42DA602E
:1007EC001A6902F040421A6159691C4A1140596158
:1007FC00996911409961D9691140D961196A1140FF
:10080C001962596A11405962996A0A409A62DA6A05
:10081C00134902F07F42DA62DA6A02F07F42DA624E
:10082C001A6B02F040421A635A6B02F040425A6350
:10083C009A6B0A409A639A6B0A409A6303F072FBB4
:10084C00E562A562002384F82430284638BD0125D2
:10085C00FBE700BF00003FFFF00601FF00F0FFFFC9
:10086C000000C0FF10B590F824300446012B11D0C5
:10087C00012380F82430FFF7F1FE38B9A36A23F482
:10088C00885323F0010343F00103A362002384F88F
:10089C00243010BD0220FCE7002373B5019390F8BF
:1008AC0024300446012B62D0012380F82430FFF75A
:1008BC00D5FE0546002832D1A36A022023F48853C2
:1008CC0023F0020343F00203A3622A4B1E6801F0DB
:1008DC0007FBB6FBF0F676000196019B1BBB20468E
:1008EC00FFF71EFE2268936843F008039360FFF73E
:1008FC00DBFC064623689A68110718D49A6842F004
:10090C0004029A60FFF7D0FC064623689B685B07DD
:10091C0023D4A36A23F0030343F00103A36200234F
:10092C0084F8243016E0019B013B0193D5E7FFF7D7
:10093C00BBFC801B0A28DDD923689B681807D9D516
:10094C00A36A012523F0120343F01003A3620023D2
:10095C0084F82430284602B070BDFFF7A5FC801B3C
:10096C000A28D2D923689B685A07CED5E8E7022516
:10097C00F0E700BF3400002007490302CA6803F403
:10098C00E06322F4E0621204120C134343F0BF63E1
:10099C0043F40033CB60704700ED00E0154B30B5ED
:1009AC00DC68C4F30224C4F10703251D042B28BF03
:1009BC000423062D4FF0FF3594BF0024033C05FAA9
:1009CC0003F321EA0303A54022EA0502A340002811
:1009DC0043EA0203ACBF00F16040074A4FEA03133D
:1009EC00DBB2ABBF00F5614000F00F0080F80033C4
:1009FC00135430BD00ED00E014ED00E0002807DBDF
:100A0C0001234109034A00F01F00834042F82130C2
:100A1C00704700BF00E100E000280CDB0122064912
:100A2C00430900F01F008240203341F82320BFF31C
:100A3C004F8FBFF36F8F704700E100E00138B0F1CA
:100A4C00807F0BD24FF0E023F021054A586182F8E9
:100A5C0023100020072298611A617047012070470B
:100A6C0000ED00E0002808DB01224309034900F0F7
:100A7C001F008240603341F82320704700E100E002
:100A8C00704708B5FFF7FCFF08BD704710B504466A
:100A9C0050B1437903F0FF0213B90271FFF7F5FF70
:100AAC0001230020637110BD0120FCE790F8212088
:100ABC000346022A06D0042282630120002283F816
:100ACC00202070470268C06B116821F00E01116084
:100ADC00116821F00101116001211A6C01FA02F276
:100AEC004260002083F82110E8E7000008B590F878
:100AFC002130022B03D004238363012008BD03683B
:100B0C001A6822F00E021A601A6822F001021A60AA
:100B1C00164A93421CD0143293421BD01432934287
:100B2C001AD0143293421AD0143293421AD014327F
:100B3C00934214BF4FF080734FF480130C4A5360F0
:100B4C004FF480730384436B03B198470020D5E7BF
:100B5C000123F3E71023F1E74FF48073EEE74FF432
:100B6C008053EBE74FF48033E8E700BF0800024006
:100B7C0000000240044A08B55169014202D050619C
:100B8C0003F060FB08BD00BF00040140F0B5044653
:100B9C0087B010B390F8A93203F0FF021BB980F8AC
:100BAC00A82204F08FFF032325466E4684F8A93251
:100BBC0055F8100B02F081FB0FCD0FC62B682546A4
:100BCC003360271D55F8100B97E80E0002F065FBFB
:100BDC00064630B1022384F8A9320125284607B015
:100BEC00F0BD0146206802F072FB31464FF0010E59
:100BFC0028260846D4F804C0CAB2944501F1010174
:100C0C001DD8002128260A46C8B2844501F10101ED
:100C1C0022D80FCD6E460FC62B683360206897E83C
:100C2C000E0002F056FB05460028D3D1012384F8B0
:100C3C002400206884F8A93202F0E8FDCEE706FB18
:100C4C000243C3E90E0083F829E083F82820DA86F2
:100C5C0083F82B001864CFE706FB0043C3E95E2240
:100C6C0083F8692183F8680183F86B21C3F880212C
:100C7C00CAE738B590F8A8320446012B10D00125EC
:100C8C0080F8A852006802F00FFB2946204600F0BD
:100C9C00FCFD206802F0B8FD002084F8A80238BDE5
:100CAC000220FCE710B590F8A8220446012A0BD0CC
:100CBC00012280F8241080F8A822006802F09EFD22
:100CCC00002084F8A80210BD0220FCE72DE9F04FAB
:100CDC00044685B0006802F09BFD000408D5282767
:100CEC00DFF808832068B0F844301D0400F1C1809F
:100CFC00206802F08DFD41050FD522682046B2F820
:100D0C00443023F480631B041B0CA2F8443004F021
:100D1C0046FF00212046FFF7C5FF206802F078FD52
:100D2C00410408D52268B2F8443023F480431B04F4
:100D3C001B0CA2F84430206802F06AFD820408D52E
:100D4C002268B2F8443023F400531B041B0CA2F8A5
:100D5C004430206802F05CFDC3041CD52268204698
:100D6C00B2F8403023F004031B041B0CA2F84030F3
:100D7C00B2F8403023F008031B041B0CA2F84030DF
:100D8C0004F02AFF2268B2F8443023F480531B0489
:100D9C001B0CA2F84430206802F03AFD070546D53A
:100DAC0068462368064619461A4603F1200532F8B0
:100DBC00047B954226F8027BF9D1B3F8402092B21D
:100DCC0042F00102A3F84020B3F8402022F00102C7
:100DDC001204120CA3F84020B3F844205605FBD59E
:100DEC00B3F8442022F480621204120CA3F84420BD
:100DFC0030F8022B21F8042B8D42F9D1B3F84020A6
:100E0C00204692B242F00802A3F84020B3F84420E6
:100E1C0022F400621204120CA3F84420B3F8402010
:100E2C0092B242F00402A3F8402004F0C5FE206800
:100E3C0002F0EEFC82050BD522682046B2F8443055
:100E4C0023F400731B041B0CA2F8443004F0A3FE23
:100E5C00206802F0DDFCC30508D52268B2F84430E6
:100E6C0023F480731B041B0CA2F8443005B0BDE8BE
:100E7C00F08FB0F84450A9B215F00F0540F0C180C6
:100E8C0011F010012DD103889BB203EA080343F43F
:100E9C0000430380B0F8503094F828209BB203EB49
:100EAC00C20300EB4303B3F80434E26BC3F309034E
:100EBC001A4463642046E26304F065FE94F824301F
:100ECC00002B3FF40FAF226C2168002A7FF40AAF8D
:100EDC0094F8243043F08003A1F84C3084F824209B
:100EEC0000E70588ABB215F4006521D0B0F850309E
:100EFC0094F868219BB203EBC20300EB4303B3F8F5
:100F0C000C34B4F86E21C3F30903C4F8843104F52E
:100F1C002C7102F057FF22682046138823F07003CF
:100F2C001B051B0D43F08003138004F01DFED9E656
:100F3C001A047FF5D7AE038823F070031B051B0D35
:100F4C0043F080030380B0F8503094F868219BB2D2
:100F5C0003EBC20300EB4303B3F80C34C3F30903F4
:100F6C00C4F884318BB1D4F87C1171B1B4F86E2112
:100F7C0002F028FFD4F87C31D4F88421294613449C
:100F8C002046C4F87C3104F0F5FD21680B881B0564
:100F9C003FF5A8AEB1F85030D4F878519BB201F2BD
:100FAC000C40DDB9C25A22F4F8421204120CC2529F
:100FBC00C25A6FEA42426FEA524292B2C2520B8854
:100FCC0023F4804323F070031B041B0C83F4405365
:100FDC0043F4004343F080030B8083E63E2D07D897
:100FEC006A08EE0748BF01329202E6E70F8FFFFF57
:100FFC006E09C24AED0608BF06F1FF3642EA8622A8
:10100C00DBE730F8253019049EB240F1F28030F85D
:10101C00253007FB054123F070031B051B0D43F026
:10102C00800320F8253091F8743100F5806EBBB93F
:10103C00B0F8503091F868219BB2063303EBC20331
:10104C003EF81390C9F30909B9F1000F00F0B6800E
:10105C004B46B1F86E21D1F87C1102F0B3FEADE035
:10106C0091F86B3191F86821022B40F08580B0F833
:10107C0050904FEAC20B1FFA89F916F4804AD1F846
:10108C008031D94406F0400C3BD009F102093EF8FE
:10109C001990C9F3090999451FD8A3EB0903C1F8A5
:1010AC008031EBB1BCF1000F0DD030F8223023F4BD
:1010BC00E04323F070031B041B0C43F4004343F088
:1010CC00C00320F82230B9F1000F77D0282101FBA2
:1010DC0005414B46B1F87021BDE70023C1F88031C2
:1010EC0030F8223023F4804323F070031B041B0CD4
:1010FC0083F4005343F4004343F0800320F8223080
:10110C00D0E709F106093EF81990C9F30909994588
:10111C001FD8A3EB0903C1F88031E3B1BCF1000F78
:10112C000DD130F8223023F4E04323F070031B047C
:10113C001B0C43F4004343F0C00320F82230B9F1F8
:10114C00000F3BD0282101FB05414B46B1F8722121
:10115C0081E7C1F880A130F8223023F4804323F0DA
:10116C0070031B041B0C83F4005343F4004343F043
:10117C00800320F82230D1E730F8223023F4E0430A
:10118C0023F070031B041B0C43F4004343F0C00317
:10119C0020F8223091F8683130F82320DB0012F46B
:1011AC00804FB0F8502092B254D0023213443EF823
:1011BC001390C9F30909B9F1000F8AD107FB05F1A6
:1011CC006318D3F884214A44C3F88421D3F87C21D2
:1011DC004A44C3F87C21D3F880211AB1D3F8783172
:1011EC00994541D207FB0543204693F8681104F05A
:1011FC00C1FC320620687FF575AD30F8253007FB51
:10120C0005499BB203EA080343F4004320F8253058
:10121C0099F82B3099F82810032B04D01BB1022B12
:10122C0037D1F30535D4B0F8503007FB05429BB2EB
:10123C00023303EBC10300EB4303B3F80034166C29
:10124C00C3F309039E4216D800232046136404F00E
:10125C009AFC47E5063213443EF81390C9F309098A
:10126C00B9F1000FAAD070E701F5B47120682144E0
:10127C0002F0E4FABDE7D16BF61A1944D163516C54
:10128C0016641944516405FB0771214402F0D6FA27
:10129C0028E5282202FB0542B0F850C04FEAC10BEA
:1012AC001FFA8CFC16F0400E136C00F5806ADC44BF
:1012BC0006F4804600F0EC800CF1020C3AF81CC0ED
:1012CC00CCF3090C9C451BD30025156499F82930E7
:1012DC00B6B2002B54D0012B79D1B0F850C000F22B
:1012EC0004421FFA8CFC0B016244D552B0F850201A
:1012FC0000F20C4092B21044C55268E00080FFFF2F
:10130C00A3EB0C031364002E79D1282303FB0543B4
:10131C0093F84C20012A40F0F880DA6BD3F848E0BF
:10132C0002EB0C065A6CDE6362445A649A6B964567
:10133C0074D3AEEB020EC3F848E099F829C093B20F
:10134C00BCF1000F40F09780B0F850E000F2044C74
:10135C001FFA8EFEF4440901002A6CD13CF80120DE
:10136C0022F4F8421204120C2CF801203CF8012053
:10137C006FEA42426FEA524292B22CF8012068E0C6
:10138C00B0F8502000F2044592B20B011544EA5A11
:10139C0022F4F8421204120CEA52EA5A6FEA424260
:1013AC006FEA524292B2EA52B0F8502000F20C406E
:1013BC0092B21044C25A22F4F8421204120CC252D5
:1013CC00C25A6FEA42426FEA524292B2C25220466D
:1013DC0004F0D9FB002E00F0988099F828102268B0
:1013EC0032F8213023F4E04323F070031B041B0C70
:1013FC0043F4404343F0800322F8213085E030F879
:10140C00213023F4E04323F070031B041B0C43F442
:10141C00404343F0800320F8213076E7BEF1000F03
:10142C0003D1624683F84CE087E7002283F84C2016
:10143C009A64724681E73E2A13D84FEA520ED207BD
:10144C0048BF0EF1010E4FEA8E2E1FFA8EFE2CF8BD
:10145C0001E0282202FB0542128E314602F0DEF931
:10146C0053E04FEA521ED2067D4A08BF0EF1FF3EF2
:10147C0042EA8E2280E7BCF1010FEAD1B0F850C0ED
:10148C0000F204421FFA8CFC624409015352E0E75B
:10149C000CF1060C3AF81CC0CCF3090C9C4549D94C
:1014AC00C2F840E0B6B299F82930002B40F08E809B
:1014BC00B0F8502000F2044592B20B011544EA5AE0
:1014CC0022F4F8421204120CEA52EA5A6FEA42422F
:1014DC006FEA524292B2EA52B0F8502000F20C403D
:1014EC0092B21044C25A22F4F8421204120CC252A4
:1014FC00C25A6FEA42426FEA524292B2C25220463C
:10150C0004F041FB002E3FF468AF99F828102268D4
:10151C0032F8213023F4E04323F040031B041B0C6E
:10152C0083F0300343F4004343F0800322F821306E
:10153C00FFF7D8BBA3EB0C031364B6B2002BB2D0ED
:10154C006EB930F8213023F4E04323F070031B0410
:10155C001B0C43F4404343F0800320F82130282334
:10156C0003FB054393F84C20012ACED15A6CDE6B59
:10157C006244D3F848E05A649A6B66449645DE633D
:10158C0037D3AEEB020EC3F848E099F829C093B2FA
:10159C00BCF1000F57D1B0F850E000F20C4C1FFA20
:1015AC008EFEF44409018ABB3CF8012022F4F84277
:1015BC001204120C2CF801203CF801206FEA424274
:1015CC006FEA524292B22CF801202DE0012B96D1F9
:1015DC00B0F8505000F20442ADB22A4400250B0181
:1015EC00D552B0F8502000F20C4092B21044C552C3
:1015FC0085E7BEF1000F03D1624683F84CE0C4E7E7
:10160C0000229A6483F84C207246BEE73E2A10D81A
:10161C004FEA520ED20748BF0EF1010E4FEA8E2E42
:10162C001FFA8EFE2CF801E0282202FB05456A8E7B
:10163C0013E74FEA521ED206094A08BF0EF1FF3ECD
:10164C0042EA8E22BEE7BCF1010FEDD1B0F850207A
:10165C0000F20C4C92B294440A012CF80230E3E7ED
:10166C000080FFFF11F0800F70B5054601F00700F8
:10167C004FF028011CD0012400FB011129444C70AF
:10168C000A614A780870CB7002B1C881022B04BF82
:10169C0000230B7195F8A832012B13D00123286875
:1016AC0085F8A83201F02AFE002085F8A80270BD4A
:1016BC00002601FB00F404F5B4712C44294484F891
:1016CC006961DDE70220F2E711F0800F10B501F03F
:1016DC00070204464FF0280113D0012302FB01112D
:1016EC0001444B700A7094F8A832012B13D00123DB
:1016FC00206884F8A83201F045FF002084F8A80285
:10170C0010BD01FB02F303F5B47101440344002046
:10171C0083F86901E6E70220F2E770B52824002679
:10172C0001F007014C43051985F8681104F5B471F3
:10173C000144C5E95F23C5F8846185F869610068D7
:10174C0002F07CF8304670BD282301F0070103FB42
:10175C000100D0F88401704770B501F0070528210D
:10176C0001FB05040026C4E90F23012205FB01112E
:10177C0084F84C200144A364666484F8292084F81E
:10178C002850006802F05AF8304670BD38B54368EE
:10179C0001F007059D42044628D811F0800F4FF048
:1017AC0028031AD005FB0333C11801234B70012306
:1017BC000D708B7094F8A8229A4219D0206884F886
:1017CC00A83201F0B2FF25B9206804F52C7102F0A3
:1017DC0023F8002084F8A80238BD00224B4303F5FF
:1017EC00B4710344014483F86921E0E70120F3E775
:1017FC000220F1E738B5436801F00F029A42044623
:10180C0026D811F0800F01F007024FF0280115D0F7
:10181C00012302FB011101444B7000250A708D70ED
:10182C0094F8A832012B15D00123206884F8A83233
:10183C0001F09BFF284684F8A85238BD01FB02F347
:10184C0003F5B47101440344002083F86901E4E713
:10185C000120F2E70220F0E710B5282411F0800FE8
:10186C001BBF01F0070101FB044404FB010000193C
:10187C0008BF00F5B47099B21AB90273C180002088
:10188C0010BD012283600273F9E770472DE9F34123
:10189C00054638B30368DB0710D42B689F075ED46A
:1018AC002B68190700F195802B685A0700F1C1804D
:1018BC00EB69002B40F02C81002029E0904C6368F0
:1018CC0003F00C03042B07D0636803F00C03082B04
:1018DC000AD16368DE0307D523689C03DDD56B68EA
:1018EC00002BDAD1012013E06B68B3F5803F12D1E5
:1018FC00236843F480332360FEF7D6FC0646236846
:10190C009803CAD4FEF7D0FC801B6428F7D90320B7
:10191C0002B0BDE8F0819BB9236823F480332360C7
:10192C00236823F480232360FEF7BEFC064623685D
:10193C009903B2D5FEF7B8FC801B6428F7D9E6E70B
:10194C00B3F5A02F236803D143F480232360CFE7A2
:10195C0023F480332360236823F48023CBE7684C83
:10196C00636813F00C0F07D0636803F00C03082BAB
:10197C0010D16368DA030DD423689B0702D52B6959
:10198C00012BAFD123686A6923F0F80343EAC20341
:10199C00236085E72A695B4B6AB101221A60FEF766
:1019AC0083FC064623689F07ECD4FEF77DFC801B66
:1019BC000228F7D9ABE71A60FEF776FC06462368D7
:1019CC0098077FF56DAFFEF76FFC801B0228F6D9E8
:1019DC009DE7AA694A4E4B4BE2B10122C3F8802421
:1019EC00FEF762FC0446736A9B070DD54FF4FA525E
:1019FC00454B1B68B3FBF2F3019300BF019B5A1ECE
:101A0C000192002BF9D14FE7FEF74EFC001B022888
:101A1C00E9D97CE7C3F88024FEF746FC0446736AD8
:101A2C009F077FF541AFFEF73FFC001B0228F6D95C
:101A3C006DE7334CE369D80024D40127E36943F004
:101A4C008053E361E36903F080530093009B2F4EB6
:101A5C003368D90518D5EB68012B26D1236A43F0DE
:101A6C0001032362FEF720FC41F288380646236A04
:101A7C009B073FD5002F3FF41BAFE36923F0805346
:101A8C00E36115E70027E2E7336843F480733360C2
:101A9C00FEF70AFC80463368DA05DCD4FEF704FC5A
:101AAC00A0EB08006428F6D931E7ABB9236A41F200
:101ABC00883823F001032362236A23F00403236292
:101ACC00FEF7F2FB0646236A9807D3D5FEF7ECFB2C
:101ADC00801B4045F7D91AE7052B236A03D143F045
:101AEC0004032362BAE723F001032362236A23F081
:101AFC000403B6E7FEF7D8FB801B4045B7D906E7D1
:101B0C0000100240000042423400002000700040EF
:101B1C002A4C626802F00C02082A3ED00022022BEA
:101B2C00274B1A662CD1FEF7BFFB0646236899019A
:101B3C0020D42B6AB3F5803F05D16268A96822F4E2
:101B4C0000320A436260696A62680B4322F47412C1
:101B5C001343012263601A4B1A66FEF7A5FB054678
:101B6C0023689A013FF5A8AEFEF79EFB401B0228A6
:101B7C00F6D9CCE6FEF798FB801B0228D6D9C6E630
:101B8C00FEF792FB054623689B017FF595AEFEF7A9
:101B9C008BFB401B0228F6D9B9E6012B3FF4A2AE11
:101BAC0060682B6A00F480329A427FF49BAE6B6AB9
:101BBC0000F47010C01A18BF0120A9E600100240F2
:101BCC000000424230B5184B87B002AC03F110054F
:101BDC00224618685968083303C2AB421446F7D141
:101BEC0040F201231149ADF804304B6803F00C02AC
:101BFC00082A17D1C3F3834218326A44DB0312F864
:101C0C00100C0CD54B680A4AC3F3404350431833AD
:101C1C006B4413F8143CB0FBF3F007B030BD054B2C
:101C2C005843FAE70248F8E7E86E00080010024053
:101C3C0000127A0000093D002DE9F0410D460446E2
:101C4C0010B90120BDE8F081444A136803F0070382
:101C5C008B4228D321688E0730D4CA0743D43F4A1D
:101C6C00136803F00703AB4265D822683C4D12F0B1
:101C7C00040F6CD1130706D56B68226923F46053EB
:101C8C0043EAC2036B60FFF79DFF6B68354AC3F3F1
:101C9C000313D35CD840344B1860344B1868FEF7F0
:101CAC00C1FA0020CEE7136823F007030B4313603F
:101CBC00136803F007038B42C3D1CBE7284B11F019
:101CCC00040F1EBF5A6842F4E0625A60080742BF14
:101CDC005A6842F460525A605A68A06822F0F002C6
:101CEC0002435A60B9E762681D4E012A33681AD163
:101CFC0013F4003FA5D0736841F2883823F0030336
:101D0C0013437360FEF7D0FA07467368626803F0FA
:101D1C000C03B3EB820FA2D0FEF7C6FAC01B4045F2
:101D2C00F3D903208EE7022A02D113F0007FE1E7FA
:101D3C0013F0020FDEE7136823F007032B43136045
:101D4C00136803F00703AB427FF47BAF8DE76B683E
:101D5C00E16823F4E0630B436B608BE700200240E7
:101D6C0000100240586F00083400002014000020BE
:101D7C00044B054A5B68C3F30223D35C034A106827
:101D8C00D840704700100240506F0008340000200B
:101D9C00044B054A5B68C3F3C223D35C034A106847
:101DAC00D840704700100240506F000834000020EB
:101DBC000F2303600B4B5A6802F0030242605A680F
:101DCC0002F0F00282605A6802F4E062C2605B6862
:101DDC00DB0803F4E0630361034B1B6803F00703A8
:101DEC000B607047001002400020024003682DE990
:101DFC00F3410546D80721D5364CE369D9002BD4DD
:101E0C000126E36943F08053E361E36903F08053F7
:101E1C000193019B304F3B68DA051FD5236A6A6832
:101E2C0013F440732ED1236A6A6823F4407313436E
:101E3C0023621EB1E36923F08053E3612A689107A2
:101E4C0006D52449A8684B6823F4404303434B60F0
:101E5C00D30636D4002012E00026DBE73B6843F4BF
:101E6C0080733B60FEF720FA80463B68DB05D5D4D7
:101E7C00FEF71AFAA0EB08006428F6D9032002B08A
:101E8C00BDE8F08102F440729A42CCD00120134A92
:101E9C00236AC2F84004002023F44071DF07C2F823
:101EAC0040042162BFD5FEF7FFF941F2883807469E
:101EBC00236A9807B7D4FEF7F7F9C01B4045F7D94A
:101ECC00DCE7044AE968536823F480030B4353604E
:101EDC00C0E700BF0010024000700040000042420A
:101EEC00024670B5334B86B002AD03F110062C469A
:101EFC0018685968083303C4B3422546F7D140F239
:101F0C000123022AADF8043047D0102A03D0012A4D
:101F1C0024D0002036E0284A5168106810F08070F8
:101F2C0030D0C1F3834318336B44C90313F8100C3E
:101F3C0049BF5368214BC3F34043183341BF6B4433
:101F4C0013F8141C1E4BB3FBF1F3584353685B029C
:101F5C0018D403234000B0FBF3F013E040F202313D
:101F6C00154A136A1940B1F5817F1FD003F44073F1
:101F7C00B3F5007F08D149F64043506A10F00200D7
:101F8C0018BF184606B070BDB3F5407FC1D11068BC
:101F9C004FF2244310F40030F2E7FFF7F9FE064B42
:101FAC005B68C3F3813301335B00D4E74FF400402B
:101FBC00E8E700BFE86E00080010024000093D0091
:101FCC0000127A00036A70B523F001030362036AFE
:101FDC00446882690D6822F073022A438D6823F0ED
:101FEC0002032B430A4DA8420BD1CD6823F0080302
:101FFC002B4324F44074D1E90556354323F00403F4
:10200C002C43446082614A684263036270BD00BF26
:10201C00002C0140036A70B523F480730362036AD9
:10202C004468C2690D6822F073022A438D6823F458
:10203C00007343EA05230B4DA8420DD1CD6823F460
:10204C00006343EA052324F44054D1E90556354393
:10205C0023F4806344EA05144460C2614A68C26395
:10206C00036270BD002C0140036A30B523F4805329
:10207C000362036A4468C2690D6822F4E64242EACC
:10208C0005228D6823F4005343EA0533064DA8421C
:10209C0002BF4D6924F4804444EA85144460C26153
:1020AC004A680264036230BD002C014090F83D3058
:1020BC00012B18D102230D4A80F83D30036893425E
:1020CC0006D0B3F1804F03D0A2F59432934204D1E1
:1020DC009A6802F00702062A03D01A6842F001023D
:1020EC001A60002070470120704700BF002C01408F
:1020FC0090F83C200346012A4FF0020009D01A68E0
:10210C0083F83D0051610020012283F83C0083F8E4
:10211C003D20704770477047036810B51A69044634
:10212C0091070ED5DA6892070BD56FF002021A618F
:10213C00012202779B699B0777D001F0ACF8002352
:10214C00237723681A69500710D5DA6851070DD523
:10215C006FF004021A61022222779B69204613F465
:10216C00407F68D001F097F80023237723681A6921
:10217C0012070FD5DA6810070CD56FF008021A6138
:10218C0004222277DB69204699075AD001F083F8A4
:10219C000023237723681A69D20610D5DA68D00693
:1021AC000DD56FF010021A6108222277DB692046E8
:1021BC0013F4407F4BD001F06EF800232377236893
:1021CC001A69D10708D5DA68D20705D56FF0010274
:1021DC0020461A6101F03CF823681A69100608D5EC
:1021EC00DA68110605D56FF0800220461A6100F0FE
:1021FC00E6FA23681A69520608D5DA68500605D53E
:10220C006FF0400220461A61FFF785FF23681A69B8
:10221C00910622D5DA6892061FD56FF0200220466F
:10222C00BDE810401A6100F0C9BA01F032F820463E
:10223C00FFF770FF83E701F02CF82046FFF76AFFE9
:10224C0092E701F026F82046FFF764FFA0E701F0C3
:10225C0020F82046FFF75EFFAFE710BD114A036878
:10226C00904206D0B0F1804F03D0A2F59432904248
:10227C0007D14A6823F070031343CA6823F44073F0
:10228C0013434A6923F08003134303608B68C362D2
:10229C000B688362034B984204BF0B6903630123F1
:1022AC0043617047002C014010B5044630B390F8E0
:1022BC003D3003F0FF021BB980F83C2002F02AFBF2
:1022CC000223206884F83D30211DFFF7C7FF01234E
:1022DC00002084F8463084F83E3084F83F3084F88F
:1022EC00403084F8413084F8423084F8433084F82C
:1022FC00443084F8453084F83D3010BD0120FCE7B3
:10230C00036A70B523F010030362036A44688269A0
:10231C000D6822F4E64242EA05228D6823F0200380
:10232C0043EA05130B4DA8420DD1CD6823F0800371
:10233C0043EA051324F44064D1E90556354323F0F0
:10234C00400344EA8504446082614A688263036204
:10235C0070BD00BF002C014010B590F83C30044615
:10236C00012B1BD0082A15D006D85AB1042A0DD03F
:10237C00002084F83C0010BD0C2AF9D10068FFF74E
:10238C0073FEF5E70068FFF71DFEF1E70068FFF745
:10239C00B7FFEDE70068FFF73DFEE9E70220EAE74B
:1023AC0038B590F83C300446012B4ED00123082A56
:1023BC0080F83C3039D006D8BAB1042A25D0002098
:1023CC0084F83C0038BD0C2AF9D10068FFF74CFEAC
:1023DC00C3690A6943F40063C361C36923F480636E
:1023EC00C361C36943EA02232DE00068FFF7EAFDED
:1023FC0083690A6943F008038361836923F004034A
:10240C008361836913438361D9E70068FFF778FF21
:10241C0083690A6943F400638361836923F48063ED
:10242C008361836943EA0223EDE70068FFF7F2FD5D
:10243C00C3690A6943F00803C361C36923F0040349
:10244C00C361C3691343C361B9E70220BAE7000053
:10245C0070B5046A104E24F001040462B042846921
:10246C00056A15D0B0F1804F12D0A6F59436B04263
:10247C000ED044F001021B0122F0F002DBB2134338
:10248C0001F00A0125F00A0211438361016270BD5B
:10249C0024F003042243EEE7002C0140F8B590F839
:1024AC003C300446012B0D46174673D0012380F8AF
:1024BC003C30EB68006806C96FB9FFF7C9FF836948
:1024CC00AA6823F00C0383618369134383610020A2
:1024DC0084F83C00F8BD042FAE68056A1DD125F0C8
:1024EC00100505628569076A25F4407545EA0225E1
:1024FC001B03090125F470459BB227F0A00701F0DE
:10250C00A0012B43394383610162836923F4406347
:10251C008361836943EA0623D8E7082F1CD125F48D
:10252C0080750562C569076A25F0030515431B0113
:10253C00090225F0F005DBB227F4007701F40071F5
:10254C002B433943C3610162C36923F00C03C3619C
:10255C00C3693343C361BAE725F480550562C56985
:10256C00076A25F4407545EA02251B03090325F487
:10257C0070459BB227F4005701F400512B433943AB
:10258C00C3610162C36923F44063C361C36943EA55
:10259C000623DFE702209DE710B50124036A01F052
:1025AC001F018C4023EA04030362036A8A401A4326
:1025BC00026210BD08B529B990F83E30012B1DD030
:1025CC0001202FE0042907D190F83F30012BF7D1DF
:1025DC00022380F83F3014E0082907D090F84130EE
:1025EC00012BEDD1022380F841300AE090F8403005
:1025FC00012BE5D1022380F8403002E0022380F861
:10260C003E3000680122FFF7C7FF0C4B98420AD1FD
:10261C00436C43F400434364836803F00703062BC5
:10262C0007D1002008BDB0F1804FF5D0044B984283
:10263C00F2D0036843F001030360F2E7002C014081
:10264C0000040040FFF7B6BF034610B539BB90F845
:10265C003E4093F84220012CE0B2D2B253D1012A71
:10266C001CD1022283F83E2083F8422018680122F4
:10267C00FFF792FF254B984206D0B0F1804F03D064
:10268C00A3F59433984204D1836803F00703062B17
:10269C0003D0036843F001030360002010BD04293C
:1026AC000FD190F83F4093F84320012CE0B2D2B206
:1026BC0029D1012AF2D1022283F83F2083F843204A
:1026CC00D4E708290FD090F8414093F84520012C0D
:1026DC00E0B2D2B217D1012AE0D1022283F8412014
:1026EC0083F84520C2E790F8404093F84420012C31
:1026FC00E0B2D2B207D1012AD0D1022283F8402015
:10270C0083F84420B2E70120C8E700BF002C014049
:10271C0010B50424036A01F01F018C4023EA040362
:10272C000362036A8A401A43026210BD08B529B9D4
:10273C0090F84230012B1DD001203AE0042907D13A
:10274C0090F84330012BF7D1022380F8433014E08A
:10275C00082907D090F84530012BEDD1022380F8E1
:10276C0045300AE090F84430012BE5D1022380F883
:10277C00443002E0022380F8423000680422FFF764
:10278C00C7FF436C43F4004343640A4B984206D0A2
:10279C00B0F1804F03D0A3F59433984204D18368F1
:1027AC0003F00703062B03D0036843F00103036017
:1027BC00002008BD002C0140FFF7B8BF70477047E0
:1027CC000368DA6822F49072DA605A6922F0010226
:1027DC005A61026B012A02BFDA6822F01002DA6039
:1027EC00202380F83E3000230363704790F83D307F
:1027FC00202B18D1A9B1A2B190F83C30012B12D0EA
:10280C00C28400238284212201620168036480F85F
:10281C003C3080F83D20CA68184642F08002CA60FD
:10282C007047012070470220704708B50023406AAA
:10283C00C385C38402F022F908BD704790F83E307E
:10284C0007B5222B37D181680268B1F5805F836AA6
:10285C0034D10169002934D15268C2F3080223F83B
:10286C00022BC28D8362013A92B2C2851ABB0368F5
:10287C00D96821F02001D960D96821F48071D96020
:10288C00596921F001015961202180F83E10016B3A
:10289C00012920D10263D96821F01001D96019688F
:1028AC00C90605D501921A6801925B680193019BD8
:1028BC00818DFFF7C2FF03B05DF804FB39B90169E4
:1028CC0029B95268D2B21A70836A0133C9E75268C7
:1028DC0002F07F02F7E702F0CBF8ECE7036837B5BC
:1028EC001A68044612F00F0FD9685D6909D1950674
:1028FC0040F182808D067FD503B0BDE83040FFF7F4
:10290C009DBF15F0010543D012F0010F02F0040336
:10291C005BD11BB1236C43F002032364900741D5B8
:10292C00236C12F0080F43F00403236403D0236CD0
:10293C0043F008032364236C002B57D0920604D574
:10294C008B0602D52046FFF779FF216820464B699C
:10295C00226C03F0400302F0080253EA020547D050
:10296C00FFF72EFF4B695D063DD54B69A06B23F03D
:10297C0040034B61002836D0694B4363FEF7B6F831
:10298C00002833D0A06B436B03B0BDE83040184730
:10299C0011F4907F30D012F0010F02F0040307D134
:1029AC0093070DD41007C6D501F020032B43BDE7C8
:1029BC00C8050FD4002BF3D19307F3D5002DAFD15D
:1029CC001507B8D511F0200FB0E7C80502D4002BBD
:1029DC00A0D1F1E7236C500743F001032364EBD53E
:1029EC00002DDDD096E7204602F048F803B030BD4C
:1029FC0002F044F82564F9E7206B012855D1D00684
:102A0C0053D5CD0651D5002101911A6801925A680F
:102A1C000192019A5A6912F040022AD0A06B026806
:102A2C00526892B2002AE1D0A58D9542DED9E2859A
:102A3C008269202A15D0DA6822F48072DA605A6929
:102A4C0022F001025A615A6922F040025A61202296
:102A5C0084F83E202163DA6822F01002DA60FEF777
:102A6C0025F8E38DA18DC91A89B22046FFF7E5FE42
:102A7C00BCE7E08DE58DA18DADB280B2002DB5D057
:102A8C00091A89B20029B1D0D86820F49070D860A6
:102A9C00586920F001005861202084F83E00226320
:102AAC00DA6822F01002DA60DFE7100626D50D0690
:102ABC0024D594F83D20212A98D1A168226AB1F539
:102ACC00805F16D12169A1B932F8021BC1F308014C
:102ADC0059602262E28C013A92B2E284002A85D1DA
:102AEC00DA6822F08002DA60DA6842F04002DA60DA
:102AFC007CE7511C216212785A60EBE750067FF597
:102B0C0075AF4A067FF572AFDA68204622F04002B4
:102B1C00DA60202384F83D3001F0ADFF66E700BF9A
:102B2C003728000890F83C30012B11D02423026880
:102B3C0080F83D30D36823F00C0343F00803D360D6
:102B4C00202380F83D30002380F83C301846704735
:102B5C000220704790F83C30012B11D024230268DE
:102B6C0080F83D30D36823F00C0343F00403D360AA
:102B7C00202380F83D30002380F83C301846704705
:102B8C000220704790F83D2090F83E0010437047AB
:102B9C00C28582858162034622220020186483F854
:102BAC003C0083F83E201B68DA6842F48072DA60DD
:102BBC005A6942F001025A61DA6842F02002DA6086
:102BCC00704770B490F83E60202E0DD149B142B1DF
:102BDC0090F83C40012C07D00024046370BCFFF734
:102BEC00D7BF012070BC70470220FBE7836810B58B
:102BFC0004462BB10322014698470023C4E9023353
:102C0C0010BD836810B5044613B1032201469847E2
:102C1C00204610BD4B1E032B9ABF880004384FF082
:102C2C00FF3070470139435C2BB1022907D8054BA3
:102C3C0033F811007047032901D8034BF8E74FF024
:102C4C00FF3070470A6F0008026F00080139032932
:102C5C009ABF024B585C4FF0FF307047FD6E000876
:102C6C00013903299ABF024B58564FF0FF30704779
:102C7C00F96E0008F8B50446FFF7CCFF0246501C6D
:102C8C000E4600D1FEE72046FFF7E0FF411C05464B
:102C9C0000D1FEE731462046FFF7C4FF013000D1DA
:102CAC00FEE7B71D04EB0717BB682BB1E94323699B
:102CBC001961D9680D43DD60731E04EB43018988EB
:102CCC000C293FD8DFE801F046461414140707140A
:102CDC00143F3F3F2100E35C114604F110001BB18F
:102CEC00BDE8F840FFF768BDBDE8F840FFF7AABCA7
:102CFC00E35C114604F110001BB1BDE8F840FFF78E
:102D0C0015BDBDE8F840FFF755BC114604F11000A5
:102D1C00FFF79AFC31462046FFF7A2FF0146054615
:102D2C002046FFF77FFF2269136A1843BB681062C5
:102D3C0043B129462046FFF789FFC3431361D3688B
:102D4C001843D060F8BD04F110001146BDE8F840FE
:102D5C00FFF77ABC23691B68DB07F3D404F110007E
:102D6C00BDE8F840FFF7A2B9836E10B5044653B125
:102D7C006FF0010250F8103F1A61DA6842F001025C
:102D8C00DA60FFF793F920460121FFF773FF204625
:102D9C000221FFF76FFF20460321FFF76BFF204650
:102DAC00BDE810400421FFF765BF00002DE9F04796
:102DBC008CB099460446FFF72DFF431C88461746F6
:102DCC00054600D1FEE74FF6FF7305932369C8B99A
:102DDC005B6B002606930123CDE90966CDE902362B
:102DEC00079608960B960196049608F1FF3A0C2F5D
:102DFC0030D8DFE807F01016285053555E60626635
:102E0C00646D6F00042801D19B6BE2E708280CBFAE
:102E1C00DB6B1B6CDDE705962A4605A904F1100057
:102E2C0016E004EB4808B8F802304BB100232A46F0
:102E3C00A8F8023005A904F110000593FFF78CFAED
:102E4C000CB0BDE8F08710232A46059305A9E018BD
:102E5C00FFF782FA04EB4A03B9F1FF3F9F80EFD0F2
:102E6C00484601F095FDA8424ED148462749093FF6
:102E7C0001F060FC032F05D8484601F0D1FE00217B
:102E8C0002F024F84846214901F08EFCC0F30050B2
:102E9C0004F80A00D4E720230593BDE73023FBE7B1
:102EAC0060232A4605A904F110000593FFF778FA70
:102EBC00D0E77023F5E75023EEE74023ECE702233D
:102ECC0001932A4601A904F11000FFF7E7FAC1E7C4
:102EDC000A23F5E704F110062A4601A93046FFF74C
:102EEC00DDFA41462046FFF7BBFE0C2204EB400303
:102EFC005A80022301462046CDE90133FFF78AFEB2
:102F0C0001A902463046E0E7FEE700BFEC6F00087F
:102F1C00013903299ABF00EB4100808800207047DB
:102F2C0001211030FFF7E4B80369186800F00100C4
:102F3C00704710B502460C46FFF7F6FF80B9CB6818
:102F4C00DB070ED5CB68104623F00103CB60FFF7EF
:102F5C00E7FF6FF001032361E36843F00103E360D3
:102F6C0010BD1046BDE81040FFF7DABF094A034612
:102F7C0090420AD0B0F1804F09D04FF6FF70A2F505
:102F8C009432934208BF0220704700207047012002
:102F9C00704700BF002C0140014670B5044651F843
:102FAC00100FFFF7E3FF0546084601F05FFC002316
:102FBC00084AE36042F8253004F1600604F1B005DC
:102FCC00B54204D0103D2846FFF71BFEF8E720461B
:102FDC0070BD00BF54020020F8B504460846FFF748
:102FEC00C5FF4FF6FF73984200D1FEE7236903B18A
:102FFC00FEE71C4D04F10C0245F820200E2204F1D2
:10300C0010063046C4E90C33C4E90E33C4E910335E
:10301C00C4E91623216184F82C30A36484F84C3065
:10302C0084F84D30E46001F0EDFB04F1600504F12F
:10303C00B00728461035FFF7D9FDBD42F9D1002362
:10304C004FF6FF72C4E90033C4E90632C4E9083311
:10305C00A360636180233046A362BDE8F840FFF7AC
:10306C0023B900BF5402002010B586B014220446C8
:10307C00002101A803F042FE0023694601A8009339
:10308C00FEF796FE206901F06DFC012802D00228A3
:10309C000FD0FEE7049CFEF76BFEB4F5C06F05D0B5
:1030AC000BD824F48074B4F5806F00D1400006B0C6
:1030BC0010BD059CFEF76CFEEFE7B4F5E06FF4E78E
:1030CC00012A38B505460C460BD0022A16D004B19D
:1030DC00013C29692846CC62EC61BDE83840FFF719
:1030EC0028BFFFF7C1FF084BB0FBF3F044432A693C
:1030FC00230C93620133B4FBF3F4E8E7FFF7B4FF5E
:10310C00B0FBF4F4F3E700BF40420F00F8B50546FE
:10311C0014461A46FFF77EFD2B69411C06469F6A32
:10312C0000D1FEE7822A07F1010730D01CD8102A03
:10313C0007D842B1DB6A03FB044301249440013CF1
:10314C0018E0812A19D04FF6FF722969CB6A934295
:10315C0003D1B4F5803F08BF1C46EEB94C6328463A
:10316C00BDE8F840FFF7E5BE832AECD1DB6A03FB30
:10317C0004436424B3FBF4F4E5E72846FFF774FF3B
:10318C000A4BB0FBF3F06043B0FBF7F4DBE72846E7
:10319C00FFF76AFF6743F7E7042E01D18C63DEE784
:1031AC00082E0CBFCC630C64D9E700BF40420F0063
:1031BC00034B186810B10430FEF7AEBF704700BF68
:1031CC0054020020FFF7F4BF034B586810B10430D1
:1031DC00FEF7A2BF704700BF54020020034B986853
:1031EC0010B10430FEF798BF704700BF54020020A6
:1031FC000022C0E90022C0E902227047F8B504465B
:10320C000E4600F1600500F1B00728461035FFF7B7
:10321C00EFFFBD42F9D10023204631462361FFF771
:10322C00DBFE2046F8BD826810B50AB903F046FEF5
:10323C00C368BDE81040184708B500B9FEE701F0B7
:10324C00DFFA0068836E13B16030FFF7ECFF08BD46
:10325C00FFF7F2BF10B500B9FEE7037F013B072B68
:10326C0010D8DFE803F004140F100F0F0F12012415
:10327C0001F0C6FA0068063400EB041083680BB149
:10328C00FFF7D1FF10BD0324F2E70424F0E702247A
:10329C00EEE7FFF7DFBFFFF7DDBF84B001A880E8E2
:1032AC000E0004B00020704703464FF43F4200204C
:1032BC00A3F84400A3F840207047B0F8403023F442
:1032CC007C535B045B0CA0F840300020704700205E
:1032DC00704784B010B5044603A880E80E000020A7
:1032EC000123A4F84030A4F84000A4F84400A4F84A
:1032FC005000BDE8104004B070470000F0B50A78EB
:10330C00CD7830F82240034624F4EC4424F07004C9
:10331C002404240C032D4ED8DFE805F0024A48465D
:10332C00284644F4007448F280073C4323F82240BA
:10333C0033F82240904EA4B234401443274323F870
:10334C0022700C7B03EB0217002C40F08180CC88A0
:10335C0091F801C064086400BCF1000F2DD0B3F8E3
:10336C00501089B23944A1F8004433F822104F06AA
:10337C0009D533F8221089B2314041F4004141F0B3
:10338C00C00123F8221033F822107C4C89B2012D95
:10339C0001EA040101D081F0200141F4004141F027
:1033AC00800123F82210AEE044F4C0640020BAE798
:1033BC0044F48064FAE70120B5E7B3F85050ADB29D
:1033CC003D44A5F80844B3F850400D69A4B23C4400
:1033DC006DBBB4F80C1421F4F8410904090CA4F8E1
:1033EC000C14B4F80C146FEA41416FEA514189B2E4
:1033FC00A4F80C1433F8221049040DD533F822101C
:10340C0021F4E04121F070010904090C41F4404120
:10341C0041F0800123F8221033F8221021F480416E
:10342C0021F070010904090C81F44051B5E73E2DDF
:10343C0005D86908EE0748BF01318902D7E76E0944
:10344C004F49ED0608BF06F1FF3641EA8621CEE76B
:10345C0033F82240A4B2344044F4014444F08004D4
:10346C0023F82240B3F85040B1F808C0A4B24FEA98
:10347C005C0C3C444FEA4C0CA4F800C4B3F850402C
:10348C00A4B23C444F897F087F00A4F808744978A3
:10349C00D1BB33F822104F0409D533F8221089B26E
:1034AC00314041F4404141F0800123F8221033F8BF
:1034BC0022104D060DD533F8221021F4E04121F0F5
:1034CC0070010904090C41F4004141F0C00123F8DA
:1034DC00221048F2800433F8221021F4804121F0AC
:1034EC0070010904090C81F44051214323F8221086
:1034FC0033F8221021F4E04121F040010904090CB9
:10350C000C4323F82240F0BD33F822104C0409D5AB
:10351C0033F8221089B2314041F4404141F080012E
:10352C0023F8221033F8221049060DD533F8221057
:10353C0021F4E04121F070010904090C41F400412F
:10354C0041F0C00123F8221033F822100B4C89B241
:10355C002140012D18BF81F0200141F4004141F0C0
:10356C00800123F8221033F8221021F4804121F03D
:10357C0070010904090C10E78F8FFFFFBF8FFFFF4D
:10358C000080FFFF4A780B78097BD9BB0AB330F86F
:10359C00232051060DD530F8232022F4E04222F0EE
:1035AC0070021204120C42F4004242F0C00220F8E5
:1035BC00232030F8232022F4E04222F040021204AF
:1035CC00120C42F4004242F0800220F8232000202A
:1035DC00704730F8232052040DD530F8232022F404
:1035EC00E04222F070021204120C42F4404242F00B
:1035FC00800220F8232030F8232022F4804222F08D
:10360C007002DCE7002A4AD130F8232051040DD592
:10361C0030F8232022F4E04222F070021204120C43
:10362C0042F4404242F0800220F8232030F823205C
:10363C0052060DD530F8232022F4E04222F070021D
:10364C001204120C42F4004242F0C00220F8232073
:10365C0048F2800130F8232022F4E04222F070027C
:10366C001204120C42F4004242F0C00220F8232053
:10367C0030F8232022F4804222F070021204120C43
:10368C000A4320F8232030F8232022F4E04222F0D1
:10369C0040021204120C114320F8231097E730F863
:1036AC00232051040DD530F8232022F4E04222F0DF
:1036BC0070021204120C42F4404242F0800220F8D4
:1036CC00232030F8232052060DD530F8232022F485
:1036DC00E04222F070021204120C42F4004242F05A
:1036EC00C00220F8232048F2800130F8232022F475
:1036FC00E04222F070021204120C42F4404242F0FA
:10370C00800220F8232030F8232022F4E04222F01B
:10371C0040021204120C0A4320F8232030F8232014
:10372C0022F4804222F07002B3E74B780A788BB116
:10373C0030F8223023F4E04323F040031B041B0C2D
:10374C0083F0100343F4004343F0800320F822304D
:10375C000020704730F8223023F4804323F07003AC
:10376C001B041B0C83F48053ECE70B7B3BBB4B78AB
:10377C000A7833B330F822305B060DD530F822309E
:10378C0023F4E04323F070031B041B0C43F40043AD
:10379C0043F0C00320F82230CB78012B0FD030F847
:1037AC00223023F4E04323F040031B041B0C83F072
:1037BC00200343F4004343F0800320F82230002020
:1037CC00704730F822305B040DD530F8223023F4EA
:1037DC00E04323F070031B041B0C43F4404343F001
:1037EC00800320F8223030F8223023F4804323F079
:1037FC0070031B041B0C83F44053DAE711B98023CC
:10380C00A0F84C3000207047002070470020704713
:10381C00B0F8440080B270470020704700EB4200C3
:10382C00013300F580605B0800EB8303984200D104
:10383C00704731F8022B20F8042BF7E72DE9F047FD
:10384C004B780446012B0D460A7B40F08581D1F85C
:10385C0010808F694969474528BF47460ABBBFB2EC
:10386C00EA883B46FFF7DAFFB4F85000297880B2BB
:10387C0004F20442090102448F522A7834F82230AF
:10388C0023F4E04323F040031B041B0C83F03003B0
:10389C00002043F4004343F0800324F82230BDE8B9
:1038AC00F087EB7895F800E0022B2E6A4FEA0E1C9D
:1038BC0040F0B880B04580F09A8030F82E30F61B7E
:1038CC0023F4E04323F070031B041B0C43F401436B
:1038DC0043F0800320F82E3030F82E90B0F850E0F2
:1038EC0019F040092E62BBB201EB070A1FFA8EFEDB
:1038FC003FD000F20C42724422F80C306A89FFF778
:10390C008DFFB04536BFF31B00233E466A782B6211
:10391C00C5F814A0B3B2002A40F0D280B4F850001D
:10392C00297880B204F204420901024486B9885A0B
:10393C0020F4F8400004000C8852885A6FEA40408A
:10394C006FEA504080B288522A895146204666E080
:10395C003E2E05D87008F60748BF01308002F1E70B
:10396C007709F0069B4808BF07F1FF3740EA87202C
:10397C00E8E700F20442724422F80C302A89FFF77F
:10398C004DFFB04536BFF31B4B463E466A782B6263
:10399C00C5F814A0B3B2002A40F0D180B4F850009E
:1039AC00297880B204F20C420901024476B9885A93
:1039BC0020F4F8400004000C8852885A6FEA40400A
:1039CC006FEA504080B288526A89BEE73E2E05D815
:1039DC007008F60748BF01308002F3E77709F0065C
:1039EC007C4808BF07F1FF3740EA8720EAE730F848
:1039FC002E2022F4E24222F070021204120C42F445
:103A0C00004242F0800220F82E20B0F8503000F234
:103A1C0004429BB21A44B3B222F80C302A89FFF745
:103A2C00FDFE2AE730F82E20F61B22F4E04222F0AD
:103A3C0070021204120C42F4014242F0800220F88F
:103A4C002E2030F82E90B0F850E019F040092E627C
:103A5C00BBB201EB070A1FFA8EFE3ED000F20C42FD
:103A6C00724422F80C306A89FFF7D8FEB04536BF95
:103A7C00F31B00233E46C5F814A02B62002E3FF426
:103A8C00FCAE6A78B3B2DAB9B4F85020287892B2A6
:103A9C0004F204413E2E4FEA0010114407D872087C
:103AAC00F60748BF0132920292B242524CE77709B4
:103ABC00F206484A08BF07F1FF3742EA8722F3E7CC
:103ACC00012A7FF441AFB4F85000297880B204F297
:103ADC000442090102448B5236E700F2044272445C
:103AEC0022F80C302A89FFF799FEB04536BFF31B3C
:103AFC004B463E46C5F814A02B62002E3FF4BDAEDB
:103B0C006A78B3B2DAB9B4F85020287892B204F2D9
:103B1C000C413E2E4FEA0010114407D87208F607EC
:103B2C0048BF0132920292B242524DE77709F20637
:103B3C00284A08BF07F1FF3742EA8722F3E7012A38
:103B4C007FF442AFB4F85000297880B204F20C42F2
:103B5C00090102448B5237E7002A3DD18B69096970
:103B6C00B0F850008B4284BF5A1A0B462978AA61D0
:103B7C0080B204F20C42090102446BB98B5A23F453
:103B8C00F8431B041B0C8B528B5A6FEA43436FEAAE
:103B9C0053439BB28B5208E03E2B12D85808DE07D9
:103BAC0048BF0130800280B288522A7834F8223023
:103BBC0023F4804323F070031B041B0C83F4405349
:103BCC0066E65809DB06034B08BF00F1FF3043EAF9
:103BDC008023DEE70080FFFFCA78022A7FD153BB27
:103BEC00B0F850200B78096992B200F204401B0126
:103BFC00104404F20C4600293AD1C25A22F4F8427D
:103C0C001204120CC252C25A6FEA42426FEA52427A
:103C1C0092B2C252B4F8502092B23244D15A21F42A
:103C2C00F8410904090CD152D15A6FEA41416FEAAB
:103C3C00514189B2D152EB69002BB6D044F240030A
:103C4C002A7834F8221003EA01008B4301D00028B3
:103C5C00ABD134F8223023F4E04323F070031B047F
:103C6C001B0C43F4004343F0C00324F822309CE7C0
:103C7C003E2913D84A0811F001011ABF571CBF0284
:103C8C009702BFB2C752B4F8500080B2304403441C
:103C9C0001B10132920292B21A80CCE74F0911F0B5
:103CAC001F01474A0FD042EA872292B2C252B4F89F
:103CBC00502092B2324413443A4601B97A1E40491C
:103CCC0041EA8222E7E707F1FF3C42EA8C2292B2FA
:103CDC00C252B4F8502092B216443344ECE7012A95
:103CEC006CD189692A69914294BF0020881AA86115
:103CFC0088BF1146002B7FF458AFB4F850202B78B6
:103D0C0092B204F204461B01164404F20C40F1B9C1
:103D1C00F25A22F4F8421204120CF252F25A6FEADE
:103D2C0042426FEA524292B2F252B4F8502092B22E
:103D3C000244D15A21F4F8410904090CD152D15A48
:103D4C006FEA41416FEA514189B2D1522DE73E29C8
:103D5C0013D84A0811F001011ABF571CBF02970271
:103D6C00BFB2F752B4F85060B6B23044034401B15C
:103D7C000132920292B21A8017E74F0911F01F011B
:103D8C000F4A0FD042EA872292B2F252B4F8502076
:103D9C0092B2024413443A4601B97A1E084941EAE8
:103DAC008222E7E707F1FF3C42EA8C2292B2F25200
:103DBC00B4F8502092B210440344ECE701206EE5B5
:103DCC000080FFFF00EB4200F0B500F580605D085D
:103DDC000C4607462E46023436B9DB0744BF30F892
:103DEC00253001F81530F0BD37F8042B013E92B2A6
:103DFC0004F8022C120A04F8012CECE702F0C8BEFD
:103E0C0002F0CEBE84B0032834D8DFE800F0020FF5
:103E1C001B27194B19489A6942F004029A619B6955
:103E2C0003F004030093009B04B07047124B14483A
:103E3C009A6942F008029A619B6903F008030193A6
:103E4C00019BF1E70C4B0F489A6942F010029A6102
:103E5C009B6903F010030293029BE5E7064B0A48AB
:103E6C009A6942F020029A619B6903F02003039344
:103E7C00039BD9E70020D7E700100240000801405F
:103E8C00000C0140001001400014014008B5044929
:103E9C0000F08AFCC0F3C430112800D9FEE708BD3D
:103EAC00C071000841F20103984204D041F20203B0
:103EBC00984202D0FEE71020704711207047000096
:103ECC000368134A82B0934211D1124B9A6942F49F
:103EDC0000729A619B6903F400730093009B0E4B74
:103EEC001868C30411D40D4902B000F023BC0C4A6D
:103EFC009342F4D1074B9A6942F480629A619B69B0
:103F0C0003F480630193019BE9E702B0704700BFA3
:103F1C00002401400010024028000020C07100085D
:103F2C00002801400368124A93420DD1114BDA6804
:103F3C0042F40072DA60DA6822F40072DA609A698C
:103F4C0022F400729A6170470B4A9342FBD1094BE1
:103F5C00DA6842F48062DA60DA6822F48062DA604D
:103F6C009A6922F480629A619A6922F48062E9E784
:103F7C00002401400010024000280140F0B593B02D
:103F8C0004463022002106A802F0B8FE0023E20409
:103F9C00CDE903330593ADF80630029357D541F2C2
:103FAC0002039C4253D8324B20460693FFF77AFF0C
:103FBC0007260546002301274FF46022CDE907337D
:103FCC008DF824308DF82C300C9310930E938DF8C3
:103FDC003C30284B06A80A970D921C60FCF764FB3A
:103FEC00002840D1112D03953DD803A906A8CDE991
:103FFC000476FCF715FA002835D106A8FCF74CFC22
:10400C00002830D106A8FCF7C7FA60BB0A2106A825
:10401C00FCF750F938BB06A8FCF780FA830505D5E8
:10402C0006A8FCF7F9F980B2ADF8060006A8FCF773
:10403C0019FCC0B906A8FCF7B5FBA0B90C4A9368EB
:10404C0023F400039360BDF8060080B20CE00A492B
:10405C00204600F087FB02A906902046FFF716FFCA
:10406C00069B054613B9002013B0F0BD0226A1E74C
:10407C000024014028000020C07100082DE9F04701
:10408C008946244998461746064600F06BFBFEF716
:10409C006DFFDFF884A004465AF8203073B9B020C5
:1040AC00FFF7ACFE1B490546304600F05BFB0146B2
:1040BC002846FFF7A3F85AF824301D605AF824302C
:1040CC00144930461C6800F06FFBC0F3C435294618
:1040DC002046FEF71DFF0528824605D033460522F3
:1040EC0029462046FEF762FE022249462046FEF78C
:1040FC00E7FF43463A4629462046FFF707F8BAF150
:10410C00050F04D02046BDE8F047FEF72DBEBDE8F4
:10411C00F08700BFEC6F000854020020F8B514497A
:10412C00074600F01FFBFEF721FF124E044656F81F
:10413C00203073B9B020FFF761FE0D4905463846B3
:10414C0000F010FB01462846FFF758F856F82430CB
:10415C001D6056F824301C6844B12046FEF71CFF45
:10416C002046BDE8F840B021FFF74ABEF8BD00BFBD
:10417C00EC6F000854020020FCF796B8704708B5A5
:10418C00FCF786F8FCF77DFCFFF7F8FF08BD7047DD
:10419C000F4B84B0DA6942F08052DA61DA6902F0CE
:1041AC0080520192019A9A6942F001029A619A69CD
:1041BC0002F001020292029A5A6942F040025A61DC
:1041CC005B6903F040030393039B04B0704700BF8B
:1041DC00001002400C4BD3F8FC20D2015EBFD3F888
:1041EC00FC2042F08072C3F8FC200022074B5A607E
:1041FC001A6842F001021A6000BF00BF00BF586885
:10420C00B0FA80F04009704700ED00E0001000E0CB
:10421C0008B5FFF7BDFFFFF7DDFFFCF727F8FFF749
:10422C00B6FF00F0ADFC0348FCF730FCBDE80840DD
:10423C0000F08EBD2C0000200023C0E90033C0E943
:10424C00023370470023012803F101020AD1142222
:10425C00DBB25343054A181D1044816829B11A4436
:10426C001369184713464008EDE7704760020020B9
:10427C000120FCF77FBC0220FCF77CBC0420FCF77F
:10428C0079BC0820FCF776BC1020FCF773BC38B561
:10429C0005242025A8B2FCF76DFC013C4FEA45052E
:1042AC00F8D138BD38B506244FF48065A8B2FCF7B8
:1042BC0061FC013C4FEA4505F8D138BD344A08B5DC
:1042CC001046062300F8043BFFF7B6FF072302F164
:1042DC0018001375FFF7B0FF082302F12C0082F8C9
:1042EC002830FFF7A9FF092302F1400082F83C3087
:1042FC00FFF7A2FF0A23172102F1540082F8503075
:10430C00FFF79AFF02F1680082F86410FFF794FF40
:10431C0002F17C0082F87810FFF78EFF02F190001A
:10432C0082F88C10FFF788FF02F1A40082F8A0102D
:10433C00FFF782FF82F8B410282102F1B800FFF7D2
:10434C007BFF02F1CC0082F8C810FFF775FF02F179
:10435C00E00082F8DC10FFF76FFF02F1F40082F846
:10436C00F010FFF769FF02F5847082F80411FFF773
:10437C0063FF02F58E7082F81811FFF75DFFBDE840
:10438C00084002F5987082F82C11FFF755BF00BF5A
:10439C006002002038B5054CA4F5A075143C201D16
:1043AC00FEF72FFCAC42F9D138BD00BFA0030020B2
:1043BC00614B82B09A69013842F001029A619B69A3
:1043CC0003F001030193019B23281AD8DFE800F0C6
:1043DC00121B22292E353A41191919464D565B628A
:1043EC006B7479808919191919198E95191919195C
:1043FC009A9FA6AD514A536843F0E06343F0010322
:10440C00536002B070474D4A536823F0010343F0E8
:10441C00E063F5E7494A536843F0E06343F0020375
:10442C00EEE7464A536823F00203F0E7434A536829
:10443C0043F0E06343F00403E2E7404A536823F09F
:10444C000403E4E73D4A536843F0E06343F0080398
:10445C00D6E73A4A536823F00803D8E7374A53683B
:10446C0043F0E06343F0C003CAE7344A536823F0D7
:10447C00C00343F0E06343F04003C1E72F4A5368A5
:10448C0023F0C003C3E72D4A536843F0E06343F4C1
:10449C004073B5E7294A536823F4407343F0E06353
:1044AC0043F40073ACE7254A536823F4407343F09C
:1044BC00E06343F48073A3E7204A536823F440730A
:1044CC00A5E71E4A536843F0E06343F4406397E763
:1044DC001A4A536823F4406343F0E06343F40063E7
:1044EC008EE7164A536823F4406390E7134A5368E7
:1044FC0043F0E06343F4004382E7104A536823F42B
:10450C00004384E70D4A536823F0E06378E70B4AD5
:10451C00536823F0E06343F0807371E7074A5368F4
:10452C0023F0E06343F000736AE7044A536823F016
:10453C00E06343F0806363E7001002400000014039
:10454C0091FAA1F3B3FA83F370B50D0E0F2691FA1D
:10455C00A1F1B1FA81F144599B0006FA03F38900E9
:10456C0024EA03048A402243425170BD91FAA1F31C
:10457C00B3FA83F370B50D0E042691FAA1F1B1FADA
:10458C0081F144599B0006FA03F3890024EA0304E1
:10459C008A402243425170BD431C04D00C3151F867
:1045AC000C3C5A1C01D100207047834201F10C01D4
:1045BC00F5D1012070470000431C2DE9F34106465C
:1045CC000F4600D1FEE7584B00F00F02C0F303106A
:1045DC0001F0070853F82250FFF714FCB8F1010F53
:1045EC00044615D195FAA5F3B3FA83F30321280EEB
:1045FC0022589B0001FA03F322EA030295FAA5F371
:10460C00B3FA83F39B0099401143215001223BE004
:10461C00C7F30620B8F1030F0AD801A353F828F00A
:10462C003F460008194600088B460008AD460008B6
:10463C00FEE7FFF7BDFE082229462046FFF780FF64
:10464C0095FAA5F22B0EB2FA82F2E1580F239200E2
:10465C00934095FAA5F2B2FA82F2C7F301170B4018
:10466C009200012F23FA02F31CD0022F45D0082B05
:10467C002BD1042229462046FFF762FF25E07F2834
:10468C0001D0FFF795FE092229462046FFF758FF77
:10469C0017F0080218BF04222946FFF767FFCFE77F
:1046AC000022C9E7042B04D1082229462046FFF733
:1046BC0047FF01232A0A92FAA2F2B2FA82F2E168C7
:1046CC00934021EA15210B43E360184B9A6942F0A1
:1046DC0001029A619B6903F001030193019BA6F10E
:1046EC000D03012B14D8124A536823F0E06343F0F6
:1046FC008063536002B0BDE8F081042B04D1082222
:10470C0029462046FFF71CFFE36823EA1523DBE765
:10471C000F2E02D0133E012EECD8054A536823F01D
:10472C00E06343F00073E4E7106F000800100240F0
:10473C0000000140431C06D17047834202D18968B6
:10474C00FFF73ABF0C310B685A1CF6D1FEE70B6829
:10475C005A1C01D100207047834201D14868704730
:10476C000C31F4E7431C01D0FFF7F1BF0020704778
:10477C004B6813B94FF0FF307047834201D1086882
:10478C0070470C31F4E708B1FFF7F2BF4FF0FF3080
:10479C00704703460868421C00D17047984201D10B
:1047AC00886870470C31F5E7431C01D0FFF7F1BF67
:1047BC00704700000F4B1A6842F001021A605968EA
:1047CC000D4A0A405A601A6822F0847222F4803230
:1047DC001A601A6822F480221A605A6822F4FE02C7
:1047EC005A604FF41F029A604FF00062034B9A60BC
:1047FC00704700BF001002400000FFF800ED00E021
:10480C00043870470368164A84B093420BD1154B99
:10481C009A6942F400629A619B6903F40063019304
:10482C00019B04B07047B3F1804F0BD103F50433F7
:10483C00DA6942F00102DA61DB6903F001030293E9
:10484C00029BEEE7084A9342EBD1064BDA6942F041
:10485C000202DA61DB6903F002030393039BE0E7D6
:10486C00002C0140001002400004004003680E4A76
:10487C00934206D102F56442936923F40063936179
:10488C007047B3F1804F05D1084AD36923F0010377
:10489C00D3617047064A9342FBD102F50332D369C8
:1048AC0023F00203F4E700BF002C0140001002408B
:1048BC0000040040431C0AD0094B98420AD003F56F
:1048CC009433984208D0B0F1804F07D0FEE76FF0D8
:1048DC000D0070471D207047192070471C20704731
:1048EC0000040040431C0AD0094B98420AD003F53F
:1048FC009433984208D0B0F1804F07D0FEE76FF0A8
:10490C000D0070471D2070471B2070471C207047FE
:10491C000004004038B50446FFF774FF0068FFF749
:10492C00C9FFD4E91212FCF739F82068FFF7C2FF6F
:10493C00FCF764F822681046FFF7D4FF05461046D2
:10494C00FFF7B8FF85420BD0D4E912122846FCF7CA
:10495C0025F82068FFF7C6FFBDE83840FCF74EB8D5
:10496C0038BD0000431C0AD0084B98420BD003F50D
:10497C009433984205D0B0F1804F04D0FEE700206C
:10498C007047022070470120704700BF00040040B0
:10499C0008B50649FFF708FFC0F3C430431E032BCC
:1049AC0000D9FEE78000043808BD00BFEC6F00089A
:1049BC0008B5074B90F8612053F82200FEF7E2F897
:1049CC0000F02200A0F122035842584108BD00BF5C
:1049DC00A003002008B5074B90F8612053F8220083
:1049EC00FEF7D0F800F02100A0F121035842584105
:1049FC0008BD00BFA003002038B515460446B8B169
:104A0C00C16490F96000FCF707F8B4F87230A16E3D
:104A1C009BB294F861001944064BAAB253F82000DB
:104A2C00FDF7E4FE94F96000BDE83840FBF7E6BF03
:104A3C0038BD00BFA003002048B1436D013306D13F
:104A4C0090F86120024B53F82200FEF76BB87047C8
:104A5C00A003002048B1436D013306D190F86120CA
:104A6C00024B53F82200FEF775B87047A0030020E4
:104A7C00436C04381847836C0438184730B5044627
:104A8C0050F8043985B01D6815F0010512D00022CC
:104A9C0000921A6800925B680093009BFFF788FFF6
:104AAC0040BB0122204604F15E0105B0BDE8304058
:104ABC00FEF787B8196811F0020106D001951A6843
:104ACC0001925B680193019BE8E71A6812F00402FB
:104ADC0006D002911A6802925B680293029BDDE792
:104AEC0019680907DAD503921A6803925B68039375
:104AFC00039BD3E705B030BD08B52520FBF7B2FF0B
:104B0C00024B1868BDE80840FDF7E8BEA003002082
:104B1C00262008B5FBF7A6FF034B586818B1BDE873
:104B2C000840FDF7DBBE08BDA003002003460A4980
:104B3C0010B508680344EFF30882934205D90C22A0
:104B4C004FF0FF30054B1A6010BD054A054C121B87
:104B5C009342F4D20B60F7E7380000205811002084
:104B6C000028002000040000FEE700001622024B83
:104B7C004FF0FF301A607047581100200120704729
:104B8C0010B594B0142200210CA802F0B7F814222E
:104B9C0000210DEB020002F0B1F81022002101A857
:104BAC0002F0ACF802244FF480330122CDE911431A
:104BBC00CDE90A234FF4E0130AA80E921393FCF7E5
:104BCC0065FE00B1FEE70F23CDE905344FF4806399
:104BDC000790CDE90830214605A8FDF72DF800B166
:104BEC00FEE7122301934FF40043CDE9033001A8F3
:104BFC00FDF7FCF800B1FEE714B010BD08B50320BA
:104C0C00FBF7BAFEBDE8084000F05CBA08B5AFF39C
:104C1C000080FBF79DFAFBF7BDFA00F039FAFAE7D2
:104C2C000309024613F00C0010B50DD1074BD1B29D
:104C3C0053F8044B8C4203D102F4E062104310BDD4
:104C4C0001302328F4D1FAE72320F8E7E4720008B6
:104C5C00C1B20929024610B511D81B4850F82110D1
:104C6C0002F4E0630B43C9B2222912D8174850F85A
:104C7C00210003F4E0631843431C10D010BD00F076
:104C8C00C003C02B0BD1C92909D80F4802F03F0132
:104C9C00E4E703F0C004C02C01D1C92908D9CA2A01
:104CAC000ED0CB2A41F2020018BF4FF0FF30E5E7DF
:104CBC0003F03F0150F82100044951F82000D8E7D7
:104CCC0041F20100DAE700BFBC720008E472000890
:104CDC000C480D490D4A002302E0D458C45004334B
:104CEC00C4188C42F9D30A4A0A4C002301E0136021
:104CFC000432A242FBD3FFF75DFD02F017F8FFF779
:104D0C0085FF70470000002020020020AC740008D2
:104D1C002002002060110020FEE7000008B50121F0
:104D2C000C20FFF749FC084B0A201A68074B1B6B39
:104D3C00C3F30F23536100F09DF9BDE80840002137
:104D4C000C20FFF739BC00BF18000020106F0008C2
:104D5C0000F01CBA08B5FFF71BFABDE80840FFF7D6
:104D6C000FBF91420FD008D90123891A8B4098426A
:104D7C0008D30130C8400138704720B10130521AB5
:104D8C009040F8E700207047431E1F2B05D80C22DB
:104D9C00024B1860024B1A607047FEE74C00002073
:104DAC0048000020431E1F2B07D8044B1028186006
:104DBC00A8BF1020024B18607047FEE7440000208B
:104DCC004000002010B5FFF743FF431C0AD0064CEF
:104DDC002168FFF7D3F8054B21681A68BDE810402D
:104DEC00FFF7BFBF002010BD480000204C00002082
:104DFC00C3B2222B2DE9F04107460E4631D82C4A7E
:104E0C0000F4E06452F823301C43621C4ED0204660
:104E1C002849FFF7C1FBDFF8A0800546002831D0F8
:104E2C00264AC4F3031152F8210004F00F0520FAAE
:104E3C0005F3DB075FBF0123AB40034342F821308E
:104E4C001F4BD8F800101D6830462A46FFF789FF23
:104E5C001C490246EBB22046BDE8F0410968FFF759
:104E6C000DB900F0C002C02A20D1C92B1ED8164B98
:104E7C0000F03F0253F822200D4B00F4E06453F88D
:104E8C002230C1E73846012100F020F8D8F8001094
:104E9C0030460822FFF765FF7F2898BF2946384621
:104EAC00BDE8F04188BF012100F06EB8BDE8F0818B
:104EBC00E4720008EC6F000844000020A8030020F6
:104ECC00400000203C000020BC720008C3B2222B22
:104EDC002DE9F0410D462AD8274A00F4E06452F837
:104EEC0023301C43621C44D0244EC4F3031756F8E1
:104EFC00273004F00F0823FA08F3DB0710D52046FF
:104F0C001F49FFF749FB10B12046FFF707F90122B3
:104F1C0056F8273002FA08F223EA020346F8273043
:104F2C00052D15D8DFE805F015211B1D1F2300F0FA
:104F3C00C002C02A1DD1C92B1BD8124B00F03F0256
:104F4C0053F822200C4B00F4E06453F82230C8E7ED
:104F5C00FEE700212046BDE8F041FFF72DBB1021F4
:104F6C00F8E72021F6E70321F4E70121F2E7092114
:104F7C00F0E7BDE8F08100BFE4720008A803002050
:104F8C00EC6F0008BC720008C3B2222B18D8184A68
:104F9C0000F4E06052F823301843030913F00C0FAF
:104FAC0021D1144A03F00F0352F82330124A00F0B7
:104FBC000F0052F82020C2F30F22B1B11A617047D2
:104FCC0000F0C002C02A0CD1C92B0AD80B4B00F040
:104FDC003F0253F82220064B00F4E06053F82230D5
:104FEC00DAE74FF0FF300023E0E75A61704700BF6B
:104FFC00E472000818000020106F0008BC72000852
:10500C00C2B2222A10B5164900F4E06309D851F84F
:10501C00222013431A0912F00C0F0ED000239B68A8
:10502C00FFDE00F0C004C02CF8D1C92AF6D80D4A16
:10503C0000F03F0052F82020E9E70B4902F00F0284
:10504C0051F8222003F00F039068084AC04352F82D
:10505C00233000EA132080B2B0FA80F0400910BD72
:10506C00E4720008BC72000818000020106F0008E1
:10507C00FFF782B838B5044648B1FFF77DF805460E
:10508C0000F022F8FFF778F8431BA342F8D338BDA1
:10509C0008B5084B2BB1084800F0D2FE08B1AFF3AD
:1050AC000080064B2BB1064801F0ACF808B1AFF309
:1050BC00008008BD00000000D80C0020000000009B
:1050CC00EC0D0020FFF7A4B87047002070470000DB
:1050DC0021280ED022281DD0202808D10A68184B70
:1050EC001A600A791A714A795A718A799A71002070
:1050FC007047134B1A680A701A68120A4A705A8859
:10510C008A70DA78CA701A790A715A794A719B795D
:10511C008B71ECE70B4A4B8812780B49002A14BFB1
:10512C001A46012202F001020A700A7812B100211B
:10513C00064A1160064AC3F340031370D7E700BF59
:10514C00500000206D000020BD030020B80300209B
:10515C00BC03002010B5094C094801F0DDF82046CD
:10516C0001F047F90122074B20461A7001F04AF969
:10517C000146054801F0BFFC002010BDBE03002015
:10518C00840400206C0000200C05002010B50C4C91
:10519C0022789AB90B490C4800F0A4F870B90B4965
:1051AC00094800F0B2F848B90949074801F08AFCEF
:1051BC0020B9054800F0C2F80123237010BD00BFD0
:1051CC000A050020A00000200C0500208C01002006
:1051DC005800002038B50C4B0C4D1C683CB995F8A8
:1051EC009C32032B0CD0002000F0010038BDFBF7E3
:1051FC005BF895F89C32032BF5D1001B0228F2D8F2
:10520C00034B1878C0B2EFE7B80300200C05002060
:10521C00BD03002037B50F4CD4F8BC32D3F8143290
:10522C00ABB90D480DF1060101F0BEF8BDF8063022
:10523C00054663B1FBF738F8084B29461860BDF8F2
:10524C000620204601F049FC204601F060FC03B02A
:10525C0030BD00BF0C05002084040020B8030020E2
:10526C0010B50024044B05481C6001F0B8F8FFF79A
:10527C00D1FF204610BD00BFB803002084040020DD
:10528C0038B50A4D2B780BB1002038BD084801F019
:10529C00B9F801460028F7D0012406482C7001F01B
:1052AC002AFC044801F04EFC2046EEE76C0000207E
:1052BC00BE0300200C05002008B50988064801F043
:1052CC00DAF80022054B1A70FFF7DAFF10B9044820
:1052DC0001F04EFC002008BDBE0300206C00002035
:1052EC000C05002078B10023C0F8B832C0F8C432E5
:1052FC00C0F8D03209B1C0F8B4120123027080F8A2
:10530C009C3200F09BBC03207047002313B504466D
:10531C00ADF8063081B1CB6AC0F8B81223B10DF1EB
:10532C0006009847C4F8D0020020D4F8D8320133D4
:10533C00C4F8D83202B010BD0320FBE700F0AEBCBD
:10534C00D0F8B8320BB11B6818471846704708B52F
:10535C00D0F8B8325B689847002818BF032008BD06
:10536C0038B500F2AA250446284600F039FB012383
:10537C0094F8AA12C4F89432B4F8B032C4F8983243
:10538C0001F01F03012B08D0022B0CD08BB929463E
:10539C002046BDE8384000F015B929462046BDE846
:1053AC00384000F053BA29462046BDE8384000F09A
:1053BC007ABA2046BDE8384001F0800100F086BC86
:1053CC0070B50446164609BBD0F89432032B0CD1A9
:1053DC00D0E9573293420AD99B1A9A4228BF1A46EF
:1053EC003146C0F85C3100F04FFB002070BD90F8E6
:1053FC009C32032B06D1D0F8B8321B6913B1C0F81C
:10540C00D4129847204600F047FBEEE790F89C3208
:10541C00032BEAD1D0F8B8329B69002BE5D0BDE85C
:10542C0070400022C0F8D422184770B504461646C6
:10543C000D4600293DD1D0F89432022B0ED1D0E983
:10544C000732934212D99A1A3146C26100F007FB17
:10545C002B462A462946204600F066FC94F8A032DA
:10546C0013B1002384F8A032002070BD0CD18269E6
:10547C00934209D8D0F898329A4205D20A4600F0E5
:10548C00EEFAC4F89852E3E794F89C32032B08D157
:10549C00D4F8B832DB6823B100222046C4F8D422F9
:1054AC0098478021204600F011FC204600F0FFFABE
:1054BC00D4E790F89C32032BD6D1D0F8B8325B6984
:1054CC00002BD1D0BDE870400022C0F8D422184780
:1054DC00F8B50123002180F89C32D0F8B83204468C
:1054EC00C0F894124160C0F8A41280F8A012B3B9AD
:1054FC00002600224025012711464023204600F0BB
:10550C00D4FB2B46002280212046A4F86471C4F8F9
:10551C00605100F0CAFB3046A7842562F8BD5B6879
:10552C00002BE5D098470028E2D00326E1E7017470
:10553C000020704790F89C32042B1EBF90F89C32D0
:10554C00DBB280F89D32042380F89C320020704737
:10555C0090F89C32042B02BF90F89D32DBB280F89D
:10556C009C320020704708B590F89C22032A05D184
:10557C00D0F8B83213B1DB6903B19847002008BDED
:10558C00002070470020704710B5428803789A427B
:10559C0001D8002010BD04782044234444789BB2E9
:1055AC00052CF4D184788C42F1D1F3E710B5044684
:1055BC00802100F08BFB2046BDE81040002100F05C
:1055CC0085BB000073B50B78044603F06003202BF9
:1055DC000D4612D0402B10D0002B5AD14B78092BF2
:1055EC0057D8DFE813F002012401560016015600CB
:1055FC00840016005600EC00A00029462046D4F882
:10560C00D432AE3354F823309B6802B0BDE87040FE
:10561C00184700234988ADF806300B0A013B062BCE
:10562C0037D8DFE803F0041C2936364F5900D0F880
:10563C00B4321B68207C0DF106019847EA88002AD9
:10564C0000F0A080BDF806301BB39A4228BF1A4662
:10565C000146ADF80620204600F0F4F91CE0027C6F
:10566C00D0F8B83232B99B6A0DF106009847022384
:10567C004370E3E7DB6AF7E7C9B2D0F8B432052927
:10568C0018D8DFE801F0030D0F1113155B68002B20
:10569C00D0D12046FFF78AFF0025284602B070BD06
:1056AC009B68F4E7DB68F2E71B69F0E75B69EEE700
:1056BC009B69ECE7DB69002BEBD00DF10602007C5B
:1056CC009847BBE7037C002BE3D1D0F8B8320DF13F
:1056DC0006005B6B9847B1E7037C002BD9D1D0F85F
:1056EC00B8320DF106001B6B98470723C0E78B8877
:1056FC00002BCED1CB88002BCBD14D887F2DC8D899
:10570C0090F89C32032BC4D0E9B280F89E1200F0C2
:10571C00FDFA204600F0C0F91DB1022384F89C323A
:10572C00BAE70123FAE78978474D0129297003D993
:10573C00FFF73CFF0325B0E790F89C32022BDEB25A
:10574C0008D0032E17D0FFF731FF20462978FFF73A
:10575C00FEFDEFE7B1B101214160FFF7F1FD054618
:10576C00204625B1FFF722FF84F89C6295E700F0F4
:10577C0093F90323D2E749B90223416080F89C32A4
:10578C00FFF7E5FD204600F087F985E74168012920
:10579C00F8D0C9B2FFF7DBFD297820466160FFF72E
:1057AC00CFFD05460028EDD02046FFF7FFFE204632
:1057BC002179FFF7CCFD022384F89C326DE7CA886F
:1057CC00012A7FF466AF90F89C120229CBB207D85D
:1057DC00002B3FF45EAF0146002341F8083F3AE747
:1057EC00032B7FF456AF011D35E790F89C32013B3B
:1057FC00022B3FF64EAFCA88022A7FF44AAFD0F88C
:10580C00A4320146002B0CBF0123032341F80C3FAB
:10581C0021E74B88012B02D1C4F8A432B2E7022B4A
:10582C007FF437AF8B881B0A80F8A032AAE790F878
:10583C009C32013B022B3FF62CAF4B88012B7FF4A3
:10584C002BAF0023E8E700BFE807002038B50B7842
:10585C00044603F060025B060D4601D5402A1CD1BC
:10586C0094F89C32013B022B17D829792046022947
:10587C0014D8FFF785FEA0B9D4F8B8329B6883B171
:10588C00C4F8D402294620469847EA8822B918B9A8
:10589C00204600F001F9002038BD2046FFF786FEB7
:1058AC00F9E70320F8E770B50B78044603F06003C2
:1058BC00202B0E468A880D7952D0402B50D05BBBE2
:1058CC004B78012B3AD0032B1FD02BBB90F89C327A
:1058DC00022BD9B260D003291ED112F0800F4FF0E9
:1058EC00140205F00F0302FB030365D09B8C9BB1E4
:1058FC00142605F07F0303FB066606446B0667D18E
:10590C00002302223146336052E090F89C32022B85
:10591C00DAB237D0032A03D02046FFF747FE0BE05C
:10592C004B8833B9690604D0F38813B9294600F0C3
:10593C00CDF9204600F0B0F8002070BD90F89C32F4
:10594C00022BDAB21ED0032AE6D14B88002BF3D1FE
:10595C006B0602D0294600F0C0F9204600F09CF8F6
:10596C0029462046FFF70EFE0028E5D1D4F8B832C0
:10597C00C4F8D4029B68002BDED031462046BDE82B
:10598C00704018476A06C7D0294600F09FF980215D
:10599C00204600F09BF9CFE76906BDD10023120623
:1059AC004FF002024CBF00F1140100F5AA710B601C
:1059BC00204600F047F8BFE7B3F86431002BABD0BA
:1059CC00142305F07F0603FB060606F5AA7695E779
:1059DC002946204600F088F9002891D0012390E751
:1059EC000B7803704B7843704B8843808B88838093
:1059FC00CB88C380704710B50446802100F066F94F
:105A0C002046BDE81040002100F060B970B50D468D
:105A1C001646044670B1FAF773FBC3B201335B0050
:105A2C0033802B70032300216B700223013C14F88C
:105A3C00012F02B970BDEA545A1CD2B20233A954D8
:105A4C00DBB2F4E71346022210B5C0E90633C0F806
:105A5C0094220A46002100F060F9002010BD08B520
:105A6C0013460A46002100F058F9002008BD1346E1
:105A7C00032210B5C0E95633C0F894220A4600211F
:105A8C0000F052F9002010BD08B513460A4600215B
:105A9C0000F04AF9002008BD08B504220023C0F824
:105AAC00942219461A4600F038F9002008BD08B5B2
:105ABC0005220023C0F8942219461A4600F034F946
:105ACC00002008BD37B5244B026804469A4240D1E9
