:100000000C9468000C9490000C9490000C94900058
:100010000C9490000C9490000C9490000C94900020
:100020000C9490000C9490000C9490000C94900010
:100030000C9490000C9490000C9490000C94900000
:100040000C94B7070C9490000C9485070C945F07F0
:100050000C9490000C9490000C9490000C949000E0
:100060000C9490000C94900063825363000108008C
:100070000604000100000000240027002A00000000
:100080000000250028002B000404040404040404D8
:100090000202020202020303030303030102040833
:1000A00010204080010204081020010204081020E2
:1000B0000000000800020100000304070000000027
:1000C0000000000045000082000040002000010800
:1000D00011241FBECFEFD8E0DEBFCDBF11E0A0E0FE
:1000E000B1E0EAEBF7E202C005900D92AC34B10743
:1000F000D9F723E0ACE4B1E001C01D92AA32B20707
:10010000E1F710E0C8E6D0E004C02197FE010E94AC
:100110008012C736D107C9F70E943A080C94DB1346
:100120000C940000CF93DF93209176022223C1F03C
:10013000FC0120812223A1F0C6E7D2E0A2E7B2E0D1
:100140009C012C5F3F4F899141919D918427892388
:1001500039F4E217F307B9F781E0DF91CF91089501
:1001600080E0FBCFFC01538D448D252F30E0842FA0
:1001700090E0821B930B541710F0CF9608950197CF
:100180000895FC01918D828D981761F0A28DAE0FBC
:10019000BF2FB11D5D968C91928D9F5F9F73928F43
:1001A00090E008958FEF9FEF0895FC01918D828D6F
:1001B000981731F0828DE80FF11D858D90E008953C
:1001C0008FEF9FEF0895FC01918D228D892F90E094
:1001D000805C9F4F821B91098F7399270895FC01C2
:1001E000A48DA80FB92FB11DA35ABF4F2C91848D98
:1001F00090E001968F739927848FA689B7892C93F5
:10020000A089B1898C91837080648C93938D848D47
:10021000981306C00288F389E02D80818F7D80834A
:100220000895EF92FF920F931F93CF93DF93EC010A
:1002300081E0888F9B8D8C8D98131AC0E889F9898D
:10024000808185FF15C09FB7F894EE89FF89608390
:10025000E889F98980818370806480839FBF81E011
:1002600090E0DF91CF911F910F91FF90EF90089553
:10027000F62E0B8D10E00F5F1F4F0F731127E02E2E
:100280008C8D8E110CC00FB607FCFACFE889F98966
:10029000808185FFF5CFCE010E94EF00F1CFEB8D7D
:1002A000EC0FFD2FF11DE35AFF4FF0829FB7F8943A
:1002B0000B8FEA89FB8980818062CFCFCF93DF9358
:1002C000EC01888D8823B9F0AA89BB89E889F9896E
:1002D0008C9185FD03C0808186FD0DC00FB607FCA3
:1002E000F7CF8C9185FFF2CF808185FFEDCFCE01D6
:1002F0000E94EF00E9CFDF91CF9108958AE792E065
:100300000E94E30021E0892B09F420E0822F089568
:1003100080E090E0892B29F00E947E0181110C94ED
:1003200000000895AF92BF92CF92DF92EF92FF92BA
:100330000F931F93CF93DF936C017B018B01040F0D
:10034000151FEB015E01AE18BF08C017D10759F0A9
:100350006991D601ED91FC910190F081E02DC601EB
:100360000995892B79F7C501DF91CF911F910F91E5
:10037000FF90EF90DF90CF90BF90AF90089590E006
:10038000FC01E055FF4F2491FC01E456FF4F3491EE
:10039000FC01E857FF4FE491EE23C9F0222339F026
:1003A000233001F1A8F4213019F1223029F1F0E0D5
:1003B000EE0FFF1FE258FF4FA591B4918FB7F8944D
:1003C000EC91611126C030953E233C938FBF089578
:1003D0002730A9F02830C9F0243049F780918000F7
:1003E0008F7D03C0809180008F7780938000DFCF66
:1003F00084B58F7784BDDBCF84B58F7DFBCF8091B3
:10040000B0008F778093B000D2CF8091B0008F7D05
:10041000F9CF3E2BDACFCF93DF9390E0FC01E45687
:10042000FF4F249188579F4FFC0184918823D1F07E
:1004300090E0880F991FFC01EC58FF4FA591B491F3
:10044000FC01E258FF4FC591D49161110EC09FB7D6
:10045000F8948C91E22FE0958E238C932881E223EF
:10046000E8839FBFDF91CF9108958FB7F894EC9107
:10047000E22BEC938FBFF6CF0F931F93CF93C82F30
:100480008B0161E00E940B02012B39F460E08C2F9C
:10049000CF911F910F910C94BF01EC2FF0E0E0552C
:1004A000FF4FE491E33029F150F4E130D1F0E23034
:1004B00069F784B5806284BD81E088BD16C0E730ED
:1004C00021F1E83059F1E43009F780918000806231
:1004D0008093800081E090E090938B0080938A006D
:1004E00004C084B5806884BDE7BDCF911F910F9192
:1004F00008958091800080688093800081E090E082
:100500009093890080938800F0CF8091B00080683C
:100510008093B00081E08093B300E7CF8091B0007A
:1005200080628093B00081E08093B400DECF3FB75B
:10053000F8948091540190915501A0915601B09189
:10054000570126B5A89B05C02F3F19F00196A11DA4
:10055000B11D3FBFBA2FA92F982F8827BC01CD010D
:10056000620F711D811D911D42E0660F771F881F6C
:10057000991F4A95D1F708952FB7F89460915001CB
:100580007091510180915201909153012FBF0895B4
:10059000FC0180819181009749F0FC01208131812B
:1005A0002617370719F084819581F5CF08950E94A9
:1005B000C802009721F0FC0182819381089590E0A8
:1005C00080E008956F5F7F4F0E94D70221E0811580
:1005D0009F4F09F020E0822F08958091BA019091F9
:1005E000BB0198278927982744972091D80130E0AC
:1005F00044E0359527954A95E1F7220F331F220FE6
:10060000331F821B930B97FF02C090E080E0089598
:100610002091CE013091CC013093CE012093CC01BA
:100620002091CF013091CD013093CF012093CD01A6
:10063000EAEAF1E021A5820F911D25A585A7662391
:1006400081F021A7892F9927319721E0E63AF20717
:1006500089F71092DC011092DD0180E58093D801CA
:10066000089511A6EFCF0F931F93CF93DF9370E000
:1006700066557E4F8A01075F1F4F213029F02230D7
:1006800031F48A010250110930E020E003C000E09B
:1006900010E09801EB01FA01E230F10558F0A99160
:1006A000B991BA27AB27BA270A0F1B1F211D311D8D
:1006B0003297F2CFFA01EE7F6E0F7F1F4E175F0762
:1006C00069F0FB01408150E070E060E0762F652F1B
:1006D000542F4427040F151F261F371FA901662713
:1006E0007727411551056105710519F02227332738
:1006F000F1CF00951095E82FF0E0E655FE4F1083FE
:100700000183DF91CF911F910F910895EAEAF1E003
:10071000108E118E80E4848B158A868B20E044E154
:1007200050E06EE088E10C943303DC011696ED9105
:10073000FC9117979F012F5F3F4F17963C932E9385
:100740001697608381E090E00895089590E080E03E
:1007500008958EBD0DB407FEFDCF089561E0809130
:1007600058010E94BF0178940895F89460E0809148
:1007700058010C94BF010F931F93CF93DF93EC01AB
:100780008B010E94B5032097B9F08AE30E94A90368
:100790001EBCF801CE01019739F00DB407FEFDCF64
:1007A0002EB51EBC2193F7CF2197C00FD11F0DB4DA
:1007B00007FEFDCF8EB58883DF91CF911F910F91FA
:1007C0000C94AE031F93CF93DF93182FC62FD42F13
:1007D0000E94B5038C2F8F71812B0E94A9038D2F4E
:1007E0000E94A903DF91CF911F910C94AE03CF9388
:1007F000C82FC07680914E018C1799F043E06FE1CD
:1008000080EA0E94E203C0934E014C2F50E085E045
:10081000559547958A95E1F76FE180E8CF910C9463
:10082000E203CF910895CF93DF93C82FD62F0E9474
:10083000F7034D2F6C2F80E4DF91CF910C94E203EE
:10084000CF93DF93C82FD72F0E9413046D2F81E021
:100850008C0FDF91CF910C941304CF93C82F0E947B
:10086000F7030E94B5038C2F8F710E94A90380E0CB
:100870000E94A903C7FF03C080E00E94A903CEB570
:100880000E94AE038C2FCF910895CF93DF93EC019C
:1008900040E86FE180E80E94E20340E86FE180EA0F
:1008A0000E94E2034AE06CE180EA0E94E20360E019
:1008B0007CE082E00E942004BE01745F86E00E941A
:1008C000200440E060E08AE70E94E2030E94B50352
:1008D0002097B1F08AE70E94A9038091AA018EBDFA
:1008E000EBEAF1E0C655DE4FEC17FD0731F08191E0
:1008F0000DB407FEFDCF8EBDF7CF0DB407FEFDCFC3
:100900000E94AE0348E06FE180E80E94E203D0E07D
:10091000C0E08CE10E942D048A7029F42196C83E23
:1009200083E0D807B1F78CE10E942D0481FD03C05C
:10093000C83ED34039F448E06FE180EADF91CF91BF
:100940000C94E203DF91CF9108950F931F93CF93FF
:10095000DF938C018896CAEAD1E0988B898B0E943C
:1009600086031AAA1BAAA801445E5F4F22E06AE12F
:1009700082E30E943303C801C696DF91CF911F9195
:100980000F910C944504CF93DF93EB01682F84ED16
:100990000E941304BE0186ED0E9420048AEE0E948C
:1009A0002D0480FDFBCFDF91CF910895CF92DF9290
:1009B000EF92FF920F931F938634910568F1209177
:1009C000CD01233449F5C090D801D090D901E090F1
:1009D000DA01F090DB010091690110916A01209128
:1009E0006B0130916C01C016D106E206F306A1F44A
:1009F000E4ECF2E086559E4F9F012E5F3F4F418110
:100A00005081553319F45281651771F0F901E40FE3
:100A1000F11DE817F90780F380E01F910F91FF9017
:100A2000EF90DF90CF90089581E0F7CFE0914C01F7
:100A3000F0914D019F012F5F3F4F30934D01209367
:100A40004C0180830895FF920F931F93CF93DF9300
:100A5000162FF42E052F0E941605812F0E941605D1
:100A6000CF2DD02F115020F089910E941605FACF7A
:100A7000DF91CF911F910F91FF9008950F931F93D6
:100A8000CF93DF938C01EB0186E090E00E94A012EF
:100A9000FC0111830083D383C28315821482809169
:100AA000170390911803892B69F4F0931803E093CE
:100AB0001703F0931A03E0931903DF91CF911F916D
:100AC0000F910895A0911903B0911A031596FC9304
:100AD000EE931497EECF0F931F93CF93DF93182FBE
:100AE000062FC7E1D3E08C819D810E943C1382E0F8
:100AF0008E8382E090E00E94A012FC019D838C8393
:100B000010581083018383E08F83DF91CF911F9171
:100B10000F910895DC0196E0FB0101900D929A95EA
:100B2000E1F70895CF93DF93EB0144E050E0BC017F
:100B300086EC91E00E94C513892B49F460EC71E0CA
:100B4000CE010E948A0581E0DF91CF91089580E077
:100B5000FBCFBC018AEA91E00E948A056AE771E056
:100B600080EB91E00C948A05DC0194E0FB0101909C
:100B70000D929A95E1F708950F931F93CF938C01EF
:100B800084E391E00E94A905EAEAF1E088E0848725
:100B9000C6E0C58748E050E06CE670E088EB91E085
:100BA0000E947712EAECF1E0DF011D92CA95E9F7A5
:100BB0006AE771E080EC91E00E948A05B80180ED5F
:100BC00091E00E94B40566E772E086EC91E00E9435
:100BD000B4058AE290E0CF911F910F910C944504E7
:100BE00080EB91E00E94A90564EC71E088EC91E053
:100BF0000E94B40566E772E084EC91E00E94B405BF
:100C00000C948603262F20612093D901643021F0B3
:100C1000009711F481E090E061E00E9408031092D7
:100C2000BA0188E28093BB010E94F00584E08093C2
:100C3000DA011092DB0122E04CE150E06AE182E34C
:100C40000E94330386E390E00C944504CF93DF9336
:100C5000EB010E94A905BE0188EC91E00E94B40559
:100C600066E772E084EC91E0DF91CF910C94B405DB
:100C7000EF92FF920F931F93CF93DF938C01EAEAD9
:100C8000F1E086E191E0DF019C011D9221503040AE
:100C9000E1F780917901C4E3D1E0833011F4C4E637
:100CA000D1E0CE010E949200BE01882309F4ACC0BD
:100CB00084E891E00E9426068881807F803E91F042
:100CC00088819981AA81BB818F3F9F4FAF4FBF4FD2
:100CD00049F044E050E0BE0180E891E00E94C51375
:100CE000892B31F464E371E08AEA91E00E948A057D
:100CF00088E08093B6011092B70149E050E064ECBF
:100D000070E088EB91E00E9477121092BA0181E1C5
:100D10008093C1011092CE0183E48093CF011092A1
:100D2000CC0184E48093CD011092D0011092D201C5
:100D30001092D30164E371E08AEA91E00E948A058F
:100D400081E08093D4018093D50186E08093D60121
:100D50008091690190916A01A0916B01B0916C0141
:100D60008093D8019093D901A093DA01B093DB016D
:100D7000C0917901C33031F466E772E080EE91E012
:100D80000E94B4056AE771E080EF91E00E948A0555
:100D900080EC92E090934D0180934C01E8E6F0E006
:100DA00084910E941605E9E6F0E084910E94160500
:100DB000EAE6F0E084910E941605EBE6F0E084910B
:100DC0000E94160585E30E94160581E00E94160523
:100DD00083E0C11101C081E00E9416058DE30E94ED
:100DE000160587E00E94160581E00E9416058AE735
:100DF000E82E81E0F82EC7E0C15049F0D7018D916F
:100E00007D010E941605F8CF8AE891E053CF8091CA
:100E10000001882371F060E071E0FB010190002087
:100E2000E9F7BF016150714040E051E08CE00E9461
:100E300023050115110559F0A80164E082E30E9421
:100E4000230544E651E064E086E30E94230587E33E
:100E50000E94160583E00E94160581E00E94160597
:100E600083E00E94160586E00E9416058FEF0E941F
:100E70001605C0914C01D0914D01C45DD140CE0109
:100E80004C969093BA018093BB010E948603CE01D9
:100E900008969093D0018093D101AE01405F5F4FDF
:100EA00021E06AE188E20E943303CE018A96DF9155
:100EB000CF911F910F91FF90EF900C9445041F92DA
:100EC0000F920FB60F9211242F933F934F935F937E
:100ED0006F937F938F939F93AF93BF93EF93FF9302
:100EE0008AE792E00E94EF00FF91EF91BF91AF91EE
:100EF0009F918F917F916F915F914F913F912F9132
:100F00000F900FBE0F901F9018951F920F920FB663
:100F10000F9211242F938F939F93EF93FF93E09160
:100F20008A02F0918B028081E0919002F09191020F
:100F300082FD1BC09081809193028F5F8F732091FF
:100F40009402821741F0E0919302F0E0E658FD4FE1
:100F5000958F80939302FF91EF919F918F912F91A5
:100F60000F900FBE0F901F9018958081F4CF1F92A5
:100F70000F920FB60F9211242F933F938F939F934D
:100F8000AF93BF938091500190915101A091520174
:100F9000B091530130914F0123E0230F2D3758F5C5
:100FA0000196A11DB11D20934F0180935001909394
:100FB0005101A0935201B09353018091540190913B
:100FC0005501A0915601B09157010196A11DB11D87
:100FD0008093540190935501A0935601B09357010B
:100FE000BF91AF919F918F913F912F910F900FBE25
:100FF0000F901F90189526E8230F0296A11DB11D92
:10100000D2CFEAE7F2E01382128288EE93E0A0E00A
:10101000B0E084839583A683B7838EE391E09183C8
:10102000808385EC90E09587848784EC90E09787B7
:10103000868780EC90E0918B808B81EC90E0938BA5
:10104000828B82EC90E0958B848B86EC90E0978B82
:10105000868B118E128E138E148EE7E1F3E01182CF
:1010600010821382128286EF91E090932301809385
:1010700022010895CF93DF93CDB7DEB72A970FB63D
:10108000F894DEBF0FBECDBF789484B5826084BD76
:1010900084B5816084BD85B5826085BD85B581607C
:1010A00085BD80916E00816080936E0010928100FA
:1010B00080918100826080938100809181008160B5
:1010C0008093810080918000816080938000809176
:1010D000B10084608093B1008091B0008160809302
:1010E000B00080917A00846080937A0080917A00C9
:1010F000826080937A0080917A00816080937A0088
:1011000080917A00806880937A001092C10086E016
:10111000EAE2F1E0DE01119601900D928A95E1F785
:101120008091300190913101A0913201B091330151
:101130008F839887A987BA871092A40187E390E0EC
:10114000C12CD12C7601C3940097C1F0FC0113E0AF
:10115000F595E7951A95E1F7E75AFE4F282F277086
:10116000B701A60104C0440F551F661F771F2A95BB
:10117000D2F72081242B20830197E6CFBE016F5F39
:101180007F4F8AE791E00E948A0588EC90E0909377
:10119000A6018093A5010CB406FC25C061E08AE09D
:1011A0000E940B0261E08AE00E94BF0161E08BE0D7
:1011B0000E940B0261E08DE00E940B0260E08CE077
:1011C0000E940B0261E08BE00E94BF0160E08BE0B7
:1011D0000E94BF0160E08DE00E94BF0180E58CBDF0
:1011E0008DB581608DBD8AE08093580161E00E94D9
:1011F0000B020E94AE034FEF60E08FEF0E94E2030C
:101200000E9497026B017C01B2E08B2E912CA12CE5
:10121000B12C0E9497026C197D098E099F09683EC6
:10122000734081059105A8F328EEC20E23E0D21E7B
:10123000E11CF11C8A9489288A288B2829F0812CAA
:10124000912C54018394E5CF0E94B5038DE10E9457
:10125000A90380E00E94A9031EB50E94AE031123DA
:1012600099F370E060E088E00E94200470E060E0A4
:101270008CE00E9420046FEF7BE08AE00E94200453
:1012800060E07CE084E00E9420046FEF71E186E082
:101290000E94200466E774E084E10E94C30461EBCD
:1012A00088E30E9413046FE370E388E20E94200445
:1012B00069EF77EF80E30E94200461E080EC0E94F8
:1012C000130442E362EC80E80E94E20362E17CE006
:1012D00086EC0E94200462E184EC0E9413046CED11
:1012E00075E08AEC0E94200460917A0184EE0E94ED
:1012F000130460917B0185EE0E94130460917C01D0
:1013000082EE0E94130460917D0183EE0E9413041B
:1013100060917E0180EE0E94130460917F0181EE56
:101320000E94130460E071E080E10E94C3048FE139
:101330000E94F70340EC6BE180E80E94E20344E086
:101340006FE180E80E94E20382E70E942D04109280
:10135000A401BE01695F7F4F86E792E00E94B40559
:10136000E6E7F2E022E732E060E871E04AE752E0C7
:101370009191D9018D919D018095892BDB018D93F0
:10138000BD014E175F07A1F71092A2011092A101B3
:1013900061E082E00E940B0261E083E00E940B02A8
:1013A00061E084E00E940B0261E085E00E940B0294
:1013B00061E086E00E940B0261E087E00E940B0280
:1013C00061E088E00E940B0261E089E00E940B026C
:1013D00061E08EE00E940B0261E08FE00E940B0250
:1013E00061E080E10E940B0261E081E10E940B025A
:1013F00061E082E10E940B0261E083E10E940B0246
:1014000070E060E083E390E00E943E0570E060E001
:101410008DE390E00E943E0570E060E087E490E09C
:101420000E943E0570E060E081E895E70E943E057D
:1014300070E060E08BE895E70E943E0570E060E0B8
:1014400085E690E00E943E0570E060E08FE690E067
:101450000E943E0570E060E089E790E00E943E0552
:1014600070E060E083E890E00E943E0570E060E09C
:101470008DE890E00E943E0570E060E087E990E032
:101480000E943E0570E060E081EA90E00E943E0527
:1014900070E060E08BEA90E00E943E0570E060E062
:1014A00085EB90E00E943E05BB24B394E3E05E2E02
:1014B000F4E0AF2E8091A901882379F06091A70113
:1014C0007091A8016115710509F0C1C16FEF7BE052
:1014D0008CE00E9420041092A90189E30E942D044F
:1014E00010E000E08823C1F16091A7017091A8018C
:1014F00080E00E942004BE016F5F7F4F86E090E095
:101500000E94BB0389819A819093A8018093A701CF
:101510008D819E818C010078112787FF12C08B81FD
:101520009C8104970091A5011091A6010150110919
:101530008017910708F48C016AEA71E0C8010E94E3
:10154000BB03F801E655FE4F1082B092A90140E4BA
:101550006EE180E80E94E2038091A401882369F093
:1015600080917901823009F47BC108F073C188232E
:1015700009F4FCC1813009F419C20115110509F003
:10158000A6C28091A301857029F18091A10190915B
:10159000A201892BF9F461E184ED0E94130461E05A
:1015A00082ED0E9413048AEE0E942D0480FDFBCF81
:1015B00060E082ED0E94130489ED0E942D0482FFF9
:1015C00009C08DE991E00E94BC058091A30188606B
:1015D0008093A3018091A1019091A2010196909323
:1015E000A2018093A10180919C01813009F06CC01F
:1015F0008091A30181FF68C082E080939C0180916B
:1016000021018F5F80932101182F1F7182E991E0E2
:101610000E94920062E971E0882309F455C284E8CF
:1016200091E00E94260608E00093B6011092B701EF
:1016300049E050E064EC70E088EB91E00E947712A2
:101640008CE28093BB0186E08093C1010E948603F7
:101650001092CE011092CF018BE08093CC011093B9
:10166000CD01E0EDF1E0DF011D920A95E9F78091EF
:1016700020018093D2018D5F8093200180E68093CA
:10168000D80182E08093D9015092DA011092DB01F7
:101690001092DC011092DD011092DE011092DF0148
:1016A0008093E001A092E1018093E20186E28093C1
:1016B000E30122E040E250E06AE182E30E9433036A
:1016C0008AE390E00E94450488E991E00E9492003C
:1016D000882371F08091970181110AC08091960151
:1016E000811106C088E991E00E94BC05B092960184
:1016F00082E991E00E949200882371F0809191012B
:1017000081110AC080919001811106C082E991E0A7
:101710000E94BC05B092900162E370E087E193E023
:101720000E94E202682F82E00E94BF0162E370E043
:1017300087E193E00E94E202682F83E00E94BF01EC
:1017400062E370E087E193E00E94E202682F84E0A8
:101750000E94BF0162E370E087E193E00E94E20231
:10176000682F70E085E00E943C0262E370E087E150
:1017700093E00E94E202682F70E086E00E943C0243
:1017800062E370E087E193E00E94E202682F87E065
:101790000E94BF0162E370E087E193E00E94E202F1
:1017A000682F88E00E94BF0162E370E087E193E068
:1017B0000E94E202682F89E00E94BF0162E370E0AC
:1017C00087E193E00E94E202682F8EE00E94BF0151
:1017D00062E370E087E193E00E94E202682F8FE00D
:1017E0000E94BF0162E370E087E193E00E94E202A1
:1017F000682F80E10E94BF0162E370E087E193E01F
:101800000E94E202682F81E10E94BF0162E370E062
:1018100087E193E00E94E202682F82E10E94BF010B
:1018200062E370E087E193E00E94E202682F83E1C7
:101830000E94BF0120E030E0232B09F43BCE0E9440
:101840007E01882309F430CE0E9400002DCE615025
:1018500071093ECE833009F455C0843009F08DCE35
:1018600065E0C8010E94D604882309F4CAC08091AB
:101870006801811108C088E30E942D04682F6E7FE3
:1018800088E30E94130464EE71E086E792E00E9410
:10189000B405E4ECF2E0C80186559E4F6C017F016F
:1018A00092E0E90EF11C91808081863009F4FBC042
:1018B00008F0BEC0813009F4ECC0833009F4EFC0F9
:1018C000F701E90DF11DEC15FD0548F30E94BC027E
:1018D000609371017093720180937301909374010E
:1018E00080919D01882359F01092A2011092A101CC
:1018F000B092A3016DE971E0CB010E94B405509252
:1019000079013BCEC0907501D0907601E0907701CF
:10191000F0907801BFEFCB16DB06EB06FB0609F46F
:101920002CCE0E94BC022091710130917201409135
:10193000730150917401621B730B840B950B6C1532
:101940007D058E059F0508F418CE86E792E00E947B
:101950003806A09279010E94BC0260936D017093D9
:101960006E0180936F019093700107CE0E94BC02BC
:101970006093690170936A0180936B0190936C018D
:10198000E6E7F2E0DF012A2D1D922A95E9F790E0C3
:1019900080E00E94380688E30E942D04682F616071
:1019A00088E30E941304B0927901D5CF62E0C801A8
:1019B0000E94D604882329F164EE71E0CE010196DD
:1019C0000E94B405E4ECF2E0C80186559E4FBF01C9
:1019D0006E5F7F4F21813081363361F484E691E080
:1019E0000E94B405CE0101960E94380682E08093E1
:1019F0007901B1CFFB01E20FF11DE817F90738F3C8
:101A0000F1CF0E94BC02C0906D01D0906E01E090B9
:101A10006F01F09070016C197D098E099F09613189
:101A200077428105910508F4A8CD10927901A5CDE2
:101A30008A3331F08F3F09F449CF833309F040CF27
:101A40001092750110927601109277011092780130
:101A5000F701C701049620E030E0A9016191542FFD
:101A6000432F322F2227260F311D411D511DE8170C
:101A7000F907A1F72F3FAFEF3A074A075A07B9F422
:101A8000209375013093760140937701509378014C
:101A900017CFB70182E792E00E94B40511CFB701DA
:101AA0008DE991E0F9CFB70188E991E0F5CFA8EE93
:101AB000B3E00E9486126093750170937601809363
:101AC000770190937801FCCE8AE891E0AACD0932A3
:101AD000110508F421CE8091B601883009F01CCEA2
:101AE0008091B701863009F0BAC444E050E066E75F
:101AF00072E080ED91E00E94C513892B09F00CCEB5
:101B00008091BF01813029F580EB91E00E94A90509
:101B10001092BE0182E08093BF0160EC71E08AEC1C
:101B200091E00E948A056AE771E080EC91E00E94F2
:101B30008A0566EC71E080ED91E00E94B40566E7ED
:101B400072E086EC91E00E94B4058AE290E00E9487
:101B500045048091A30183FF0DC01091BF01123095
:101B600049F46AE871E08DE991E00E9492058111E3
:101B70001093A30180919701811110C0809196016B
:101B8000882361F064E871E088E991E00E949205A1
:101B9000882321F0B09297011092960180919101D3
:101BA0008111BACD80919001882309F4B5CD64E804
:101BB00071E082E991E00E949205882309F4ACCD9E
:101BC000B092910110929001A7CD0633110508F44F
:101BD000A3CD863009F0A0CD8091CE018B3009F0E5
:101BE0004AC044E050E062E971E084EC91E00E9478
:101BF000C513892B09F090CD1091D90185E012FD14
:101C000032C00E94ED0220919C012230F9F4212F74
:101C100020711271123179F460E090E080E00E944E
:101C20000206B8E1B093D90150929C0190E080E0A7
:101C30000E94A50471CDB0929C010196222311F05F
:101C400090E080E064E00E94020666CD253009F451
:101C500063CD10FF0BC0233009F45ECD69E001961F
:101C60000E94020686E080939C0156CD60E00097BA
:101C700009F452CDE8CF9091220120902301312C1C
:101C80008215130409F048CD8091CF01891344CD0A
:101C9000F090D901F1FE38C01092BA018CE2809325
:101CA000BB010E94F00582E18093D90160E081E0F0
:101CB00090E00E9408031092D0011092D10180910F
:101CC00020018093D2011092D3018D5F8093200177
:101CD00082E08093E001A092E10185E08093E2013F
:101CE0001092E30190E69093D8018093DA0188E79F
:101CF0008093DB0122E040E250E06AE182E30E944F
:101D000033038AE390E0F0C3F4FE06CD0E94ED02B7
:101D1000892B09F449C0E090D801F12C54E0F594E6
:101D2000E7945A95E1F7EE0CFF1CEE0CFF1CF7014F
:101D3000B2960E171F0708F4EFCCE655FE4FAFE141
:101D4000B3E081918D9326E233E02A173B07C9F770
:101D500080912403815080931D0390912103209151
:101D60002203922B09F0D8CC893C08F0D5CC90E026
:101D70000E94A01290931C0380931B03F701ED5265
:101D8000FE4F90E080E0C0901B03D0901C03209198
:101D90001D032817190671F06CF02191D601A80FC8
:101DA000B91F2C930196EFCFF0FEB6CC60E090E027
:101DB00080E049CFD6018C911196ED90FC9012975E
:101DC000FE24EF24FE2413960D911C911027012769
:101DD0001027EFEFE80FE03108F03FC3F0E0ED50DF
:101DE000F14F0C9480124810B810930F2E117F11F0
:101DF000030F2D122D122D122D122D122D122D1218
:101E00002D12AC11E40FBFEBEB1AB3E6FB0AB701DE
:101E100087E193E00E94C802009769F0FC011383F8
:101E20000283B70187E193E00E94D70208171907E0
:101E300039F064E001C062E086E00E946B0503C0F7
:101E400082E080931E0380911E03813009F462C0FA
:101E500060911B0370911C0380911D03082F10E0FB
:101E600098012F5F3F4F309323038F5F80932403AC
:101E700087E0EFE1F3E0A0EEB1E001900D928A95EA
:101E8000E1F7A80187EE91E00E94D2130E94ED02D3
:101E900060E00E940206C090D001D12CF12CE12C10
:101EA000FE2CED2CDC2CCC248091D101C80ED11C51
:101EB000E11CF11CFE2CED2CDC2CCC248091D201F9
:101EC000C80ED11CE11CF11CFE2CED2CDC2CCC240A
:101ED0008091D301C80ED11CE11CF11C095F1F4F7A
:101EE000F092D001E092D101D092D201C092D30100
:101EF000E8E1E093D901C8010E94A504C00ED11EFB
:101F0000E11CF11CC0926001D0926101E09262017B
:101F1000F092630180911B0390911C030E943C137B
:101F200010921D03F9CBC801019763E08D3791052D
:101F300060F4FFEBEF1AF3E6FF0AB70187E193E0E5
:101F40000E94C802892B19F462E083E076CFC601B3
:101F50000E943C13C8010196D82EDD0CD0921D03BF
:101F60008D2D90E00E94A01290931C0380931B0380
:101F700064E0009751F3DC015C92DA94DA941196F4
:101F8000DC92D12CC12C80901B0390901C030C156B
:101F90001D0509F47AC0B7016C0D7D1D87E193E042
:101FA0000E94D702BFEFCB1ADB0A9601220F331F24
:101FB000D401A20FB31F9C93E0911B03F0911C036B
:101FC000E20FF31F8183DFCFC80101978B379105A3
:101FD000D0F4F6012581C801880F991F281719062A
:101FE00091F4712C612C4701FFEB8F1AF3E69F0AE5
:101FF000B401660D771D87E193E00E94C802892B2A
:1020000029F462E001C063E080E117CF2FEF621A8C
:10201000720A0615170561F7C6010E943C1385E098
:1020200080931D0385E090E00E94A012FC01909334
:102030001C0380931B03892B11F464E0E5CF80E13E
:102040008083F182E28213820483F12CE12CB401BB
:102050006E0D7F1D87E193E00E94C802009761F03A
:10206000D60116962C91169717963C912327322766
:102070002327FC0133832283FFEFEF1AFF0A22E0BC
:10208000C20ED11C0E151F0511F750921E03DBCE98
:10209000C801019763E0803D974050F4B7016F5F3E
:1020A0007F4F87E193E00E94C802892B19F462E018
:1020B00081E0C3CEC6010E943C13C80123E096957F
:1020C00087952A95E1F7980127703327232B89F408
:1020D0008E5F80931D03D0901D038D2D90E00E9494
:1020E000A01290931C0380931B03009721F464E0DB
:1020F000DFCF8D5FEECFDC01BC92DA94DA941196DB
:10210000DC92D12CC12C712CB7016C0D7D1D8090FF
:102110001B0390901C030C151D0509F4B6CFBFEFEF
:10212000CB1ADB0A87E193E00E94E20241E050E033
:1021300060E070E0072C04C0440F551F661F771F36
:102140000A94D2F7F60193E0F695E7959A95E1F7B0
:102150003296E80DF91D9081882339F0492B408390
:102160007394E8E07E12D0CFCECF40954923F7CFCD
:10217000C801019763E0803D974050F52FEEE21AC9
:1021800028EDF20AB70187E193E00E94C802892B8B
:1021900009F48DCFC6010E943C13C801B3E09695A7
:1021A0008795BA95E1F7980127703327232B91F48F
:1021B0008E5F80931D03D0901D038D2D90E00E94B3
:1021C000A01290931C0380931B03009729F464E0F2
:1021D00082E033CE8D5FEDCF22E0DC012C93DA94E8
:1021E000DA941196DC9270E060E0912C60901B0311
:1021F00070901C030617170709F447CF6B01BFEF58
:10220000CB1ADB0A6E0D7F1D87E193E00E94D70297
:1022100041E050E060E070E0092C04C0440F551F1D
:10222000661F771F0A94D2F7F601A3E0F695E795AB
:10223000AA95E1F73296E60DF71D208181159F4F93
:1022400051F0409524232083939448E0941201C0D8
:10225000912CB601CBCF422B4083F6CFC80101971A
:1022600063E08D37910500F58FECE81A8AE8F80AEB
:10227000B70187E193E00E94C802892B09F417CFC8
:10228000C6010E943C13C8010196D82EDD0CD092E5
:102290001D038D2D90E00E94A01290931C0380934B
:1022A0001B03009719F464E084E0C7CDDC01AC9215
:1022B000DA94DA941196DC92D12CC12C80901B0315
:1022C00090901C030C151D0509F4DFCEB7016C0DB1
:1022D0007D1D87E193E00E94D702BFEFCB1ADB0A96
:1022E0009601220F331FD401A20FB31F9C93E091DC
:1022F0001B03F0911C03E20FF31F8183DFCF011555
:10230000EFEF1E0739F063E00115110519F5D12C27
:10231000C12C03C0C12CDD24DA94B7016F5F7F4F5D
:1023200087E193E00E94C802009799F0DC011396C0
:10233000DC92CE921297B70187E193E00E94E2020D
:1023400091E0012B09F490E0981709F479CD64E04D
:1023500001C062E085E071CDC80153E09695879594
:102360005A95E1F7980127703327232B09F001963E
:10237000980121503109203B3740B0F4F601258106
:102380002817190689F4712C612C4701FFEF8F1A69
:102390009F0AB401660D771D87E193E00E94C80291
:1023A000892B29F462E001C063E08FE046CD2FEF76
:1023B000621A720A0615170561F7C6010E943C13DE
:1023C00085E080931D0385E090E00E94A012FC014F
:1023D00090931C0380931B03892B11F464E0E5CFD9
:1023E0008FE08083F182E2821383048348013FEF10
:1023F000831A930A412C01E010E0F80143E0F695BE
:10240000E7954A95E1F7EC0DFD1D868190E0042CDF
:1024100002C0959587950A94E2F7612C77247A9407
:1024200080FD02C0712C612CB8016E0D7F1D87E10B
:1024300093E00E94C802009729F0DC0113967C9279
:102440006E9212974394B8E04B1201C0412C0F5F7B
:102450001F4F8016910689F618CE61E0EECC093246
:10246000110509F459C9811157C98091B801853402
:1024700009F052C944E050E066E772E088EC91E070
:102480000E94C513892BA9F044E050E060E871E098
:1024900088EC91E00E94C513892B59F044E050E08C
:1024A00064E371E088EC91E00E94C513892B09F088
:1024B00033C98091C101813009F087CB8091CC0173
:1024C000883009F029C90E94F0051092CC01809152
:1024D000CE01883F28F09091CF019F5F9093CF016C
:1024E000885F8093CE01C8010E94450415C9FB0195
:1024F000DC0102C005900D9241505040D8F708957C
:10250000EE0FFF1F0590F491E02D09940E949112A7
:10251000A59F900DB49F900DA49F800D911D112437
:102520000895A29FB001B39FC001A39F700D811DAC
:102530001124911DB29F700D811D1124911D0895CC
:102540000F931F93CF93DF938230910510F482E0B5
:1025500090E0E0912803F091290330E020E0B0E022
:10256000A0E0309799F42115310509F44AC0281BE1
:10257000390B24303105D8F58A819B8161157105AD
:1025800089F1FB0193838283FE0111C04081518157
:102590000281138148175907E0F04817590799F449
:1025A000109761F012960C93129713961C93329623
:1025B000CF01DF91CF911F910F91089500932803D0
:1025C00010932903F4CF2115310551F04217530719
:1025D00038F0A901DB019A01BD01DF01F801C1CF8B
:1025E000EF01F9CF9093290380932803CDCFFE010B
:1025F000E20FF31F8193919322503109398328838D
:10260000D7CF2091260330912703232B41F420912B
:102610002601309127013093270320932603209130
:102620002401309125012115310541F42DB73EB724
:102630004091280150912901241B350BE09126037C
:10264000F0912703E217F307A0F42E1B3F0B281786
:10265000390778F0AC014E5F5F4F2417350748F01B
:102660004E0F5F1F5093270340932603819391934E
:102670009FCFF0E0E0E09CCFCF93DF930097E9F0AD
:10268000FC01329713821282A0912803B091290392
:10269000ED0130E020E01097A1F420813181820F1C
:1026A000931F20912603309127032817390709F03B
:1026B00061C0F0932703E0932603DF91CF91089543
:1026C000EA01CE17DF07E8F54A815B819E014115DB
:1026D0005105B1F7E901FB83EA8349915991C40F90
:1026E000D51FEC17FD0761F4808191810296840F5C
:1026F000951FE90199838883828193819B838A83D3
:10270000F0E0E0E012968D919C9113970097B9F557
:102710002D913C911197CD010296820F931F20912C
:102720002603309127032817390739F6309751F5DA
:102730001092290310922803B0932703A093260335
:10274000BCCFD383C28340815181840F951FC817AA
:10275000D90761F44E5F5F4F88819981480F591FF7
:10276000518340838A819B81938382832115310524
:1027700009F0B0CFF0932903E09328039ECFFD0129
:10278000DC01C0CF13821282D7CFFB01DC0104C071
:102790008D910190801921F441505040C8F7881B59
:1027A000990B0895FB01DC0102C001900D9241508C
:0A27B0005040D8F70895F894FFCFC9
:1027BA0041726475696E6F2D454E4332386A363000
:1027CA002D30300000000000000000000000000072
:1027DA000A01500000002A038000DEADBEEFFEEDC4
:1027EA00C0A80078FFFFFFFFFFFF000000001101F3
:0C27FA009201B2005E01E300C100D500B6
:00000001FF
