:100000000C9462000C948A000C948A000C948A0070
:100010000C948A000C948A000C948A000C948A0038
:100020000C948A000C948A000C948A000C948A0028
:100030000C948A000C948A000C948A000C948A0018
:100040000C94CA020C948A000C9498020C947202CC
:100050000C948A000C948A000C948A000C948A00F8
:100060000C948A000C948A000000000024002700F1
:100070002A0000000000250028002B0000000000DE
:1000800023002600290004040404040404040202DA
:100090000202020203030303030301020408102007
:1000A0004080010204081020010204081020000012
:1000B0000008000201000003040700000000000027
:1000C0000000610511241FBECFEFD8E0DEBFCDBF19
:1000D00011E0A0E0B1E0ECE2FBE002C005900D927F
:1000E000AE35B107D9F722E0AEE5B1E001C01D920F
:1000F000AE30B207E1F710E0C2E6D0E004C02197CD
:10010000FE010E948E05C136D107C9F70E94140373
:100110000C9494050C940000AF92BF92CF92DF92A2
:10012000EF92FF920F931F93CF93DF936C017B01AC
:100130008B01040F151FEB015E01AE18BF08C0173D
:10014000D10759F06991D601ED91FC910190F081B0
:10015000E02DC6010995892B79F7C501DF91CF9173
:100160001F910F91FF90EF90DF90CF90BF90AF90D5
:100170000895FC01538D448D252F30E0842F90E0AD
:10018000821B930B541710F0CF9608950197089592
:10019000FC01918D828D981761F0A28DAE0FBF2F5B
:1001A000B11D5D968C91928D9F5F9F73928F90E0B1
:1001B00008958FEF9FEF0895FC01918D828D981720
:1001C00031F0828DE80FF11D858D90E008958FEF5D
:1001D0009FEF0895FC01918D228D892F90E0805C26
:1001E0009F4F821B91098F739927089581E791E0B2
:1001F0000E94EA0021E0892B09F420E0822F089573
:1002000080E090E0892B29F00E94F60081110C9487
:1002100000000895FC01A48DA80FB92FB11DA35AA9
:10022000BF4F2C91848D90E001968F739927848F16
:10023000A689B7892C93A089B1898C918370806439
:100240008C93938D848D981306C00288F389E02DDA
:1002500080818F7D80830895EF92FF920F931F938B
:10026000CF93DF93EC0181E0888F9B8D8C8D981369
:100270001AC0E889F989808185FF15C09FB7F89475
:10028000EE89FF896083E889F989808183708064C1
:1002900080839FBF81E090E0DF91CF911F910F910C
:1002A000FF90EF900895F62E0B8D10E00F5F1F4F1B
:1002B0000F731127E02E8C8D8E110CC00FB607FC2A
:1002C000FACFE889F989808185FFF5CFCE010E94B8
:1002D0000A01F1CFEB8DEC0FFD2FF11DE35AFF4F1B
:1002E000F0829FB7F8940B8FEA89FB898081806246
:1002F000CFCFCF93DF93EC01888D8823B9F0AA8903
:10030000BB89E889F9898C9185FD03C0808186FDD0
:100310000DC00FB607FCF7CF8C9185FFF2CF80811F
:1003200085FFEDCFCE010E940A01E9CFDF91CF9189
:100330000895833081F028F4813099F08230A9F05B
:1003400008958730A9F08830C9F08430B1F48091E5
:1003500080008F7D03C0809180008F778093800024
:10036000089584B58F7784BD089584B58F7DFBCFC4
:100370008091B0008F778093B00008958091B00095
:100380008F7DF9CFCF93DF93282F30E0F901E2552D
:10039000FF4F8491F901E656FF4FD491F901EA57D6
:1003A000FF4FC491CC23A1F081110E949901EC2F41
:1003B000F0E0EE0FFF1FE458FF4FA591B491EC91D0
:1003C000ED2381E090E009F480E0DF91CF91089582
:1003D00080E090E0FACF1F93CF93DF93282F30E097
:1003E000F901E255FF4F8491F901E656FF4FD49190
:1003F000F901EA57FF4FC491CC23A9F0162F8111C0
:100400000E949901EC2FF0E0EE0FFF1FEE58FF4F16
:10041000A591B4918FB7F894EC91111108C0D095C3
:10042000DE23DC938FBFDF91CF911F910895DE2BE8
:10043000F8CFCF93DF9390E0FC01E656FF4F249175
:100440008A579F4FFC0184918823C9F090E0880F60
:10045000991FFC01E859FF4FA591B491FC01EE589A
:10046000FF4FC591D49161110DC09FB7F8948C9145
:10047000209582238C938881282328839FBFDF9136
:10048000CF910895623051F49FB7F8943C91822F38
:10049000809583238C93E8812E2BEFCF8FB7F89430
:1004A000EC912E2B2C938FBFEACFCF93DF93FC01DF
:1004B00001900020E9F73197AF01481B590BBC01AF
:1004C00081E791E00E948C00EC0142E050E062E1A3
:1004D00071E081E791E00E948C008C0F9D1FDF91FD
:1004E000CF9108951F920F920FB60F9211242F9360
:1004F0003F934F935F936F937F938F939F93AF93AC
:10050000BF93EF93FF9381E791E00E940A01FF916F
:10051000EF91BF91AF919F918F917F916F915F917B
:100520004F913F912F910F900FBE0F901F901895F4
:100530001F920F920FB60F9211242F938F939F93B8
:10054000EF93FF93E0918101F09182018081E0912E
:100550008701F091880182FD1BC0908180918A0102
:100560008F5F8F7320918B01821741F0E0918A0198
:10057000F0E0EF58FE4F958F80938A01FF91EF9145
:100580009F918F912F910F900FBE0F901F901895F4
:100590008081F4CF1F920F920FB60F9211242F93E8
:1005A0003F938F939F93AF93BF93809163019091FB
:1005B0006401A0916501B09166013091620123E070
:1005C000230F2D3758F50196A11DB11D209362010F
:1005D0008093630190936401A0936501B0936601D9
:1005E00080915E0190915F01A0916001B0916101E5
:1005F0000196A11DB11D80935E0190935F01A093B0
:100600006001B0936101BF91AF919F918F913F9134
:100610002F910F900FBE0F901F90189526E8230F73
:100620000296A11DB11DD2CF789484B5826084BD9D
:1006300084B5816084BD85B5826085BD85B58160E6
:1006400085BD80916E00816080936E001092810064
:10065000809181008260809381008091810081601F
:1006600080938100809180008160809380008091E0
:10067000B10084608093B1008091B000816080936C
:10068000B00080917A00846080937A0080917A0033
:10069000826080937A0080917A00816080937A00F2
:1006A00080917A00806880937A001092C100E09176
:1006B0008101F091820182E08083E0917D01F091DF
:1006C0007E011082E0917F01F09180018FEC8083A8
:1006D00010928901E0918501F091860186E0808386
:1006E000E0918301F0918401808180618083E091B9
:1006F0008301F0918401808188608083E09183018F
:10070000F0918401808180688083E0918301F09181
:10071000840180818F7D808361E082E00E941902E4
:1007200060E088E00E94190261E086E00E94190200
:1007300061E083E00E94190261E084E00E941902F6
:1007400062E089E00E94190288EE93E0A0E0B0E048
:1007500080936B0190936C01A0936D01B0936E0137
:1007600080916B0190916C01A0916D01B0916E012F
:10077000892B8A2B8B2B41F410926B0110926C0108
:1007800010926D0110926E0180916B0190916C013D
:10079000A0916D01B0916E012FB7F8944091630163
:1007A0005091640160916501709166012FBF840FC3
:1007B000951FA61FB71F80936B0190936C01A093A8
:1007C0006D01B0936E0188EE93E0A0E0B0E08093FD
:1007D000670190936801A0936901B0936A018091C9
:1007E000670190916801A0916901B0916A01892B1C
:1007F0008A2B8B2B41F410926701109268011092A2
:10080000690110926A018091670190916801A0913D
:100810006901B0916A012FB7F8944091630150913A
:10082000640160916501709166012FBF840F951F6F
:10083000A61FB71F8093670190936801A093690179
:10084000B0936A0180E0E82E80E0F82E92E0C92E95
:10085000D12C28EE822E23E0922EA12CB12C03E085
:1008600010E088E00E94C201EC0186E00E94C20113
:1008700089E00E94C201C130D10509F0B5C00097DE
:1008800009F00BC180916F0190917001892B09F0E3
:100890004BC061E083E00E94EB0185E191E00E94A2
:1008A000550261E086E00E94EB01D0937001C09395
:1008B0006F0180926B0190926C01A0926D01B092D9
:1008C0006E0180916B0190916C01A0916D01B091CE
:1008D0006E01892B8A2B8B2B41F410926B011092A5
:1008E0006C0110926D0110926E0180916B019091DC
:1008F0006C01A0916D01B0916E012FB7F8944091F9
:1009000063015091640160916501709166012FBF90
:10091000840F951FA61FB71F80936B0190936C01E6
:10092000A0936D01B0936E0180916F019091700161
:10093000019721F52FB7F89480916301909164019C
:10094000A0916501B09166012FBF40916B0150915C
:100950006C0160916D0170916E0184179507A60777
:10096000B70760F060E083E00E94EB018AE391E06A
:100970000E9455021093700100936F0180916F01E6
:1009800090917001029721F52FB7F894809163013F
:1009900090916401A0916501B09166012FBF4091D3
:1009A0006701509168016091690170916A01841733
:1009B0009507A607B70760F060E084E00E94EB01AE
:1009C0008DE491E00E9455021093700100936F0135
:1009D000E114F10409F445CF0E94F600882309F4DC
:1009E00040CF0E9400003DCFCD2B09F056C00097AC
:1009F00009F053C080916F0190917001892B09F02B
:100A000093CF61E084E00E94EB0189E291E00E94D3
:100A1000550261E086E00E94EB01D0927001C09225
:100A20006F018092670190926801A0926901B09273
:100A30006A018091670190916801A0916901B0916C
:100A40006A01892B8A2B8B2B41F41092670110923B
:100A500068011092690110926A018091670190917A
:100A60006801A0916901B0916A012FB7F894409193
:100A700063015091640160916501709166012FBF1F
:100A8000840F951FA61FB71F80936701909368017D
:100A9000A0936901B0936A0147CF019709F044CF51
:100AA00060E083E00E94EB0160E084E00E94EB01E3
:100AB00060E086E00E94EB011092700110926F01DD
:100AC00033CFE1E7F1E01382128288EE93E0A0E0F9
:100AD000B0E084839583A683B78384E091E091831B
:100AE000808385EC90E09587848784EC90E09787FD
:100AF000868780EC90E0918B808B81EC90E0938BEB
:100B0000828B82EC90E0958B848B86EC90E0978BC7
:100B1000868B118E128E138E148E0895EE0FFF1F8A
:0C0B20000590F491E02D0994F894FFCFAB
:100B2C00000000002C018C00B9007901EA00C8001B
:100B3C00DC000D0A006164656C616E746520636F86
:100B4C006D706C657461646F0061747261732063A5
:100B5C006F6D706C657461646F006164656C616E5F
:100B6C00746520656E63656E6469646F0061747290
:0E0B7C00617320656E63656E6469646F0000CE
:107E0000112484B714BE81FFF0D085E080938100F7
:107E100082E08093C00088E18093C10086E0809377
:107E2000C20080E18093C4008EE0C9D0259A86E02C
:107E300020E33CEF91E0309385002093840096BBD3
:107E4000B09BFECF1D9AA8958150A9F7CC24DD24C4
:107E500088248394B5E0AB2EA1E19A2EF3E0BF2EE7
:107E6000A2D0813461F49FD0082FAFD0023811F036
:107E7000013811F484E001C083E08DD089C08234E0
:107E800011F484E103C0853419F485E0A6D080C0E4
:107E9000853579F488D0E82EFF2485D0082F10E0AE
:107EA000102F00270E291F29000F111F8ED06801E7
:107EB0006FC0863521F484E090D080E0DECF843638
:107EC00009F040C070D06FD0082F6DD080E0C81688
:107ED00080E7D80618F4F601B7BEE895C0E0D1E017
:107EE00062D089930C17E1F7F0E0CF16F0E7DF06D8
:107EF00018F0F601B7BEE89568D007B600FCFDCFD4
:107F0000A601A0E0B1E02C9130E011968C91119780
:107F100090E0982F8827822B932B1296FA010C0160
:107F200087BEE89511244E5F5F4FF1E0A038BF0790
:107F300051F7F601A7BEE89507B600FCFDCF97BE46
:107F4000E89526C08437B1F42ED02DD0F82E2BD052
:107F50003CD0F601EF2C8F010F5F1F4F84911BD097
:107F6000EA94F801C1F70894C11CD11CFA94CF0C13
:107F7000D11C0EC0853739F428D08EE10CD085E9AC
:107F80000AD08FE07ACF813511F488E018D01DD067
:107F900080E101D065CF982F8091C00085FFFCCF94
:107FA0009093C60008958091C00087FFFCCF809118
:107FB000C00084FD01C0A8958091C6000895E0E648
:107FC000F0E098E1908380830895EDDF803219F02E
:107FD00088E0F5DFFFCF84E1DECF1F93182FE3DFCA
:107FE0001150E9F7F2DF1F91089580E0E8DFEE27F6
:047FF000FF270994CA
:027FFE00040479
:0400000300007E007B
:00000001FF